:1000000072C00000E3C1000018C200004DC2000031
:1000100082C20000EEC20000B5C2000094C0000021
:1000200092C0000090C000008EC000008CC0000094
:100030008AC0000088C0000086C0000084C00000A4
:1000400082C0000080C000007EC000007CC00000B4
:100050007AC0000078C0000076C0000074C00000C4
:1000600072C0000042C600006EC000006CC00000FC
:100070006AC0000068C0000066C0000064C00000E4
:1000800062C0000060C000005EC000005CC00000F4
:100090003CC6000058C0000056C0000054C000001C
:1000A00052C0000050C00000DBC200004CC0000085
:1000B0004AC0000048C0000046C0000044C0000024
:1000C00042C0000040C000003EC000002EC600003C
:1000D0003AC0000038C0000038C6000034C000003C
:1000E00032C000007F0311241FBECFEFD1E2DEBF7C
:1000F000CDBF00E00CBF12E0A0E0B2E0EAECF7E117
:1001000000E00BBF02C007900D92AC30B107D9F7E9
:1001100022E0ACE0B2E001C01D92A23EB207E1F7DE
:1001200010E0C3E7D0E000E006C021970109802F6E
:10013000FE010E94DB0BC237D10780E00807A9F758
:10014000B6D30C94E30B5CCFCF92DF92EF92FF9289
:100150000F931F931092BA021092B9021092B80234
:1001600080E090E09C01220F331FF901E255FD4F22
:1001700011821082F901EA55FD4F1182108261E06F
:10018000680F86569D4FFED48091B8029091B902B7
:1001900061E0680F9C01220F331F220F331F220FD3
:1001A000331F820F931F8A589D4F31D38091B8021D
:1001B0009091B9029C01220F331F820F931F880F69
:1001C000991F880F991F880F991F0F2EF5E8CF2EC2
:1001D000FBEEDF2EF1E5EF2EFFE3FF2EF02D00E02A
:1001E00010E098014CE55FE86AE170E4845F9D4FA0
:1001F000D7D48091B8029091B90201969093B90238
:100200008093B802843091050CF4ACCF61E081E7B3
:1002100092E03CD362E08CE692E038D31F910F91DC
:10022000FF90EF90DF90CF9008958F929F92AF92C2
:10023000BF92CF92DF92EF92FF921F93CF93DF9303
:10024000CEEAD2E00F2EF0E0CF2EF2E0DF2EF02D3E
:100250000F2EF6EB8F2EF2E09F2EF02D7E016CEA32
:1002600072E05701E6EAF2E0D60180E090E04191C9
:1002700051911D9114039001159F300D1124820F8F
:10028000931FE617F70799F7F50191838083F2E052
:10029000EF0EF11C83E0C80ED11CE814F90409F735
:1002A00083E090E09093B7028093B6020F2EFEE9B0
:1002B000CF2EF2E0DF2EF02D0F2EFCE0EF2EF2E03D
:1002C000FF2EF02D69917991072E000C880B990B68
:1002D0000E94EC0A20E030E04BEE53E40E94510A09
:1002E00020E030E04AEA52E40E94780B0E94B90A0A
:1002F000F601619371936F01F70175876487F8E1E7
:10030000EF0EF11CC815D905E9F684E090E0909352
:10031000B9028093B802DF91CF911F91FF90EF90C7
:10032000DF90CF90BF90AF909F908F900895809175
:10033000BA028823C9F11092B9021092B80280E083
:1003400090E0FC01EE0FFF1FEE0FFF1FEE0FFF1FEF
:10035000E80FF91FEA58FD4F618172819C01220F5D
:10036000331F820F931F880F991F880F991F880FC3
:10037000991F845F9D4F2ED40E94B90A2091B80224
:100380003091B902C90186569D4FC1D38091B80200
:100390009091B90201969093B9028093B80284308B
:1003A00091057CF21092BA020895E6EAF2E0118219
:1003B000108213821282158214821782168284E0C0
:1003C00090E09093B9028093B80208951F920F9223
:1003D0000FB60F9211240BB60F928F939F93AF938A
:1003E000BF93EF93FF9300990EC0E6E7F2E085819B
:1003F0009681A781B0850196A11DB11D8583968345
:10040000A783B0870DC0E6E7F2E085819681A781DA
:10041000B0850197A109B10985839683A783B08729
:10042000FF91EF91BF91AF919F918F910F900BBE74
:100430000F900FBE0F901F9018951F920F920FB63E
:100440000F9211240BB60F928F939F93AF93BF938C
:10045000EF93FF9302990EC0E6E7F2E08685978559
:10046000A089B1890196A11DB11D86879787A08BB0
:10047000B18B0DC0E6E7F2E086859785A089B1894A
:100480000197A109B10986879787A08BB18BFF914E
:10049000EF91BF91AF919F918F910F900BBE0F90F5
:1004A0000FBE0F901F9018951F920F920FB60F92CC
:1004B00011240BB60F928F939F93AF93BF93EF933B
:1004C000FF93049B0EC0E6E7F2E08789908DA18D33
:1004D000B28D0196A11DB11D878B908FA18FB28F18
:1004E0000DC0E6E7F2E08789908DA18DB28D01976E
:1004F000A109B109878B908FA18FB28FFF91EF91E6
:10050000BF91AF919F918F910F900BBE0F900FBE37
:100510000F901F9018951F920F920FB60F921124F3
:100520000BB60F928F939F93AF93BF93EF93FF936D
:10053000069B0EC0E6E7F2E080A191A1A2A1B3A1C3
:100540000196A11DB11D80A391A3A2A3B3A30DC0C9
:10055000E6E7F2E080A191A1A2A1B3A10197A109D0
:10056000B10980A391A3A2A3B3A3FF91EF91BF917F
:10057000AF919F918F910F900BBE0F900FBE0F9078
:100580001F9018951F920F920FB60F9211240BB661
:100590000F928F939F93AF93BF93EF93FF933799EE
:1005A0000EC0E1E7F2E081819281A381B4810196DE
:1005B000A11DB11D81839283A383B4830DC0E1E7A4
:1005C000F2E081819281A381B4810197A109B109EF
:1005D00081839283A383B483FF91EF91BF91AF9105
:1005E0009F918F910F900BBE0F900FBE0F901F9099
:1005F00018951F920F920FB60F9211240BB60F92FF
:100600008F939F93AF93BF93EF93FF9335990EC052
:10061000ECE6F2E081819281A381B4810196A11D73
:10062000B11D81839283A383B4830DC0ECE6F2E015
:1006300081819281A381B4810197A109B10981834C
:100640009283A383B483FF91EF91BF91AF919F9168
:100650008F910F900BBE0F900FBE0F901F901895AB
:100660001F920F920FB60F9211240BB60F928F9319
:100670009F93AF93BF93EF93FF93E6E7F2E08581FB
:100680009681A781B08581839283A383B4831582E9
:1006900016821782108686859785A089B189828700
:1006A0009387A487B58716861786108A118A87894B
:1006B000908DA18DB28D838B948BA58BB68B178A71
:1006C000108E118E128E80A191A1A2A1B3A1848F50
:1006D000958FA68FB78F10A211A212A213A281E04C
:1006E0008093BA02FF91EF91BF91AF919F918F914B
:1006F0000F900BBE0F900FBE0F901F901895E6E75E
:10070000F2E08AE992E01182128213821482158249
:100710001682178210863996E817F907A1F710920A
:10072000720210927302109274021092750210926B
:100730006D0210926E0210926F0210927002ECE045
:10074000F2E08CE692E0108211821282138214820F
:1007500015821682178210861186128613861586D8
:10076000148617861686118A108A138A128A78963A
:10077000E817F90741F708957894FC0180818130EA
:1007800049F4E898E9E6F0E0808182608083E89AA5
:10079000E09A0895823049F4E998E9E6F0E0808132
:1007A00088608083E99AE19A0895833049F4EA9851
:1007B000E9E6F0E0808180628083EA9AE29A089517
:1007C000843041F4EB98E9E6F0E080818068808332
:1007D000EB9AE39A08958091BB02811117C0E1EA78
:1007E000F0E080818B608083E2E7F0E080818260CE
:1007F00080838CE49DE19093A9008093A8001092DF
:10080000A5001092A40081E08093BB020895CF93CD
:10081000DF93EC016883613029F450980898589A66
:10082000109A14C0623029F451980A98599A129A71
:100830000DC0633029F452980C985A9A149A06C045
:10084000643021F453980E985B9A169ACE0194DF87
:10085000CE01C1DFDF91CF910895FC01808181300D
:1008600049F4ED98EAE6F0E0808188608083ED9AB3
:10087000E59A0AC0823041F4EC98EAE6F0E0808123
:1008800082608083EC9AE49A78940895FC016083F6
:10089000613029F46D983F98759A479A06C0623086
:1008A00021F46C983D98749A459AD7CF089505D253
:1008B00010D289D249DC78948091BC02882311F04F
:1008C0003CD301C027D5B1DC32DDF6CFFC018081FD
:1008D0008130F1F4E7E0F1E0808182608083808103
:1008E00081608083EAE0F1E0808188608083E0E2DB
:1008F000F1E0808182688083E1E2F1E080818A61B9
:10090000808389EF90E090932701809326010895DA
:100910008230F1F4E7E0F1E08081886080838081BB
:1009200084608083EAE0F1E0808180618083E0E29E
:10093000F1E0808182628083E1E2F1E080818A617E
:10094000808389EF90E0909327018093260108959A
:100950008330F1F4E7E0F1E0808180618083808181
:1009600080628083EAE0F1E0808180628083E0E25F
:10097000F1E080818A608083E1E2F1E080818A6138
:10098000808389EF90E0909327018093260108955A
:100990008430C9F4E7E0F1E0808180648083808165
:1009A000806880836B9AE0E9F0E0808182688083D0
:1009B000E1E9F0E080818A61808389EF90E09093A3
:1009C0009700809396000895FC018081823091F019
:1009D00018F4813031F008958330A9F08430E1F0CB
:1009E0000895E8E0F1E080818260808380818E7FDD
:1009F00080830895E8E0F1E08081886080838081D1
:100A00008B7F80830895E8E0F1E0808180618083BE
:100A100080818F7D80830895E8E0F1E080818064AB
:100A2000808380818F7780830895FC01808182306C
:100A300091F018F4813031F008958330A9F08430BA
:100A4000E1F00895E8E0F1E080818D7F808380818E
:100A5000816080830895E8E0F1E08081877F808372
:100A60008081846080830895E8E0F1E080818F7E5A
:100A700080838081806280830895E8E0F1E0808156
:100A80008F7B80838081806880830895FC018081D2
:100A90008230B1F018F4813031F008958330E9F0FC
:100AA000843041F10895E8E0F1E080818D7F80831A
:100AB00080818E7F808310922901109228010895F1
:100AC000E8E0F1E08081877F808380818B7F808375
:100AD00010922B0110922A010895E8E0F1E0808144
:100AE0008F7E808380818F7D808310922D01109274
:100AF0002C010895E8E0F1E080818F7B8083808184
:100B00008F778083109299001092980008950F9328
:100B10001F93CF93DF938C01EB011C161D060CF481
:100B200053DFDD232CF4D195C195D109C8017DDFB8
:100B3000CA3FD10514F0C9EFD0E0F80180818230BE
:100B400071F018F4813031F018C0833069F08430CE
:100B500081F013C0D0932901C09328010EC0D09317
:100B60002B01C0932A0109C0D0932D01C0932C0101
:100B700004C0D0939900C0939800DF91CF911F914A
:100B80000F910895CF93DF93EC0168839FDECE0130
:100B90007DDF60E070E0CE01BADFDF91CF91089594
:100BA000CF92DF92EF92FF920F931F93FC0140834D
:100BB0005183628373830483158326833783C086BE
:100BC000D186E286F3861F910F91FF90EF90DF9020
:100BD000CF9008958F929F92AF92BF92EF92FF9223
:100BE0000F931F93CF93DF93EC017B016C857D8581
:100BF0008B010E191F091F870E878A899B89800F19
:100C0000911F8E3791052CF08DE790E09B8B8A8B9E
:100C10000BC083382FEF92071CF09B8B8A8B04C08C
:100C200083E89FEF9B8B8A8B6A897B89072E000C58
:100C3000880B990BD1D42C813D814E815F8158D591
:100C40004B015C01B801110F880B990BC5D42881A9
:100C500039814A815B814CD59B01AC01C501B4014E
:100C6000BCD34B015C0188899989B701681B790B5A
:100C7000072E000C880B990BAFD4288539854A853F
:100C80005B8536D59B01AC01C501B401A5D32C8988
:100C90003D894E895F89A1D36C8B7D8B8E8B9F8B19
:100CA000F98AE88ADF91CF911F910F91FF90EF9021
:100CB000BF90AF909F908F9008951092C50087E6E7
:100CC0008093C40088E98093C10086E08093C200CD
:100CD00008951092350189E18093340188E9809369
:100CE000310186E08093320108951F920F920FB672
:100CF0000F9211248F938091C6008093C5028F912B
:100D00000F900FBE0F901F9018951F920F920FB665
:100D10000F9211248F938091CE008093C4028F9103
:100D20000F900FBE0F901F9018951F920F920FB645
:100D30000F9211248F938091D6008093C3028F91DC
:100D40000F900FBE0F901F9018951F920F920FB625
:100D50000F9211240BB60F928F939F93EF93FF93F3
:100D6000809136018093C2029091BD02992389F04F
:100D70009091BE02E92FF0E0E154FD4F80839F5F28
:100D8000943018F49093BE0204C01092BE021092E8
:100D9000BD028D3F31F481E08093BD021092BC0210
:100DA00007C08E3F29F481E08093BD028093BC028E
:100DB000FF91EF919F918F910F900BBE0F900FBEFF
:100DC0000F901F901895EFEBF2E082E38083818310
:100DD00082831092BC021092E1021092DF02109204
:100DE000DE0283E08093C7028093C6021092D6028F
:100DF0001092D7021092D8021092D9021092DA0201
:100E00001092DB021092DC021092DD021092C902F5
:100E10008CED9CE0A0E0B0E08093D2029093D302EE
:100E2000A093D402B093D5028093CE029093CF02C8
:100E3000A093D002B093D10281E08093E00210929F
:100E40007202109273021092740210927502109244
:100E5000CD021092CC021092CB021092CA021092D4
:100E6000C80208950F931F93CF93C091C60280913B
:100E7000C70290E08C1B910912F061E001C06FEF96
:100E80006093E00210927202109273021092740248
:100E90001092750206EA12E08EE190E0F80191836B
:100EA0008083062E000C770B880B990B95D320E0DE
:100EB00030E04BE653E41CD45CD37093DF026093C4
:100EC000DE02F8011582148281E08093CD02C09386
:100ED000C7024091CE025091CF026091D002709132
:100EE000D1028091D2029091D302A091D402B0910C
:100EF000D5028A019B01081B190B2A0B3B0BD90158
:100F0000C8013AF488279927DC01801B910BA20BBA
:100F1000B30B8093D6029093D702A093D802B093DC
:100F2000D9024093D2025093D3026093D4027093BB
:100F3000D502CF911F910F9108958F929F92AF92FA
:100F4000BF92CF92DF92EF92FF920F931F93809107
:100F5000CD02811150C08091CC02811105C18091D8
:100F6000BF02813079F484E08093C6021092CE02F1
:100F70001092CF021092D0021092D10273DF109221
:100F8000BF0234C0823091F48093C60289E29FE2AE
:100F9000A0E0B0E08093CE029093CF02A093D00265
:100FA000B093D1025FDF1092BF0220C0833099F46A
:100FB00081E08093C6028EE491E3A0E0B0E08093EC
:100FC000CE029093CF02A093D002B093D1024ADF19
:100FD0001092BF020BC0843009F0EEC081E0809314
:100FE000CC028093CB021092BF02BEC08091CD0292
:100FF000882309F4B5C08091C902811130C0809165
:10100000E0026091DE027091DF0292E389026019D2
:1010100071091124072E000C880B990BDDD220E0FA
:1010200030E040E051E464D36B017C016091D60272
:101030007091D7028091D8029091D902CDD29B01B4
:10104000AC01C701B6012DD26093DA027093DB02C6
:101050008093DC029093DD0281E08093C902C0900E
:101060007202D0907302E0907402F0907502D70182
:10107000C601FF203CF488279927DC018C199D09C3
:10108000AE09BF094091D6025091D7026091D802B3
:101090007091D90284179507A607B70774F085D910
:1010A00010927202109273021092740210927502E2
:1010B0001092CD021092C90253C0689412F875952F
:1010C0006795579547951694D1F784179507A60706
:1010D000B7070CF18A019B01000F111F221F331F5C
:1010E000000F111F221F331F000F111F221F331F5C
:1010F000041B150B260B370B081719072A073B078C
:101100000CF4B1C08091DE029091DF029093A902AD
:101110008093A80225C0C701B6015ED22091DA02F1
:101120003091DB024091DC025091DD02E1D220E0FF
:1011300030E048E452E451D16B017C016091E0025F
:10114000062E000C770B880B990B46D29B01AC0145
:10115000C701B601CDD20DD27093A9026093A80247
:101160008091CC02882341F18091CB02882351F0F9
:10117000E6EAF2E088ED9FEF91838083138212828A
:10118000158214828091BF02863079F4E6EAF2E09B
:101190001182108288E290E0938382831582148208
:1011A0001092BF021092CB0207C0873029F4FDD8FD
:1011B0001092CC021092BF0281E08093C8025AC004
:1011C0001091E0028090DA029090DB02A090DC02A5
:1011D000B090DD02B7FAB094B7F8B094612F012E49
:1011E000000C770B880B990BF7D19B01AC01C50163
:1011F000B4017ED24B015C01C701B601EDD19B0168
:10120000AC01C501B40174D26B017C016091DE02B6
:101210007091DF02660F771F660F771F660F771FCB
:10122000072E000C880B990BD7D19B01AC01C7018D
:10123000B601D3D06B017C012EE531E01203B00181
:10124000139F700D1124072E000C880B990BC4D12D
:101250009B01AC01C701B601BFD08BD17093A9022D
:101260006093A8027DCF481759076A077B070CF4E3
:10127000A7CF51CF1F910F91FF90EF90DF90CF90AC
:10128000BF90AF909F908F9008951092DF021092C0
:10129000DE0283E08093C7028093C6021092D602DA
:1012A0001092D7021092D8021092D9021092DA024C
:1012B0001092DB021092DC021092DD021092C90241
:1012C0008CED9CE0A0E0B0E08093D2029093D3023A
:1012D000A093D402B093D5021092CE021092CF0206
:1012E0001092D0021092D10281E08093E00210921D
:1012F0007202109273021092740210927502109290
:10130000CD021092CC021092CB021092CA0210921F
:10131000C8020895EF92FF920F931F93CF93DF932C
:1013200006EA12E00F2EFFEBEF2EF2E0FF2EF02D7B
:10133000F7018081C2E3D0E0BE01681B7109072E6E
:10134000000C880B990B48D120E030E048E452E4CF
:10135000A8D020E030E048EC53E4CAD10AD1F8012B
:1013600071836083F701618170E062537109072E18
:10137000000C880B990B30D120E030E048E452E4B7
:1013800090D020E030E048EC53E4B2D1F2D0F80144
:1013900073836283F7018281C81BD109BE01DD0F0F
:1013A000880B990B19D120E030E048E452E479D061
:1013B00020E030E048EC52E49BD1DBD0F8017583AB
:1013C00064838091C802811160DFDF91CF911F910A
:1013D0000F91FF90EF9008955058BB27AA270ED089
:1013E0004DC13ED130F043D120F031F49F3F11F494
:1013F0001EF433C10EF4E095E7FB29C1E92F4FD16C
:1014000080F3BA17620773078407950718F071F421
:101410009EF567C10EF4E0950B2EBA2FA02D0B019F
:10142000B90190010C01CA01A0011124FF27591B29
:1014300099F0593F50F4503E68F11A16F040A22F2F
:10144000232F342F4427585FF3CF469537952795A0
:10145000A795F0405395C9F77EF41F16BA0B620B9F
:10146000730B840BBAF09150A1F0FF0FBB1F661FE6
:10147000771F881FC2F70EC0BA0F621F731F841F29
:1014800048F4879577956795B795F7959E3F08F04F
:10149000B3CF9395880F08F09927EE0F979587950E
:1014A00008950CD0EBC0E3D040F0DAD030F021F456
:1014B0005F3F19F0CCC0511115C1CFC0F0D098F3E7
:1014C0009923C9F35523B1F3951B550BBB27AA27C5
:1014D00062177307840738F09F5F5F4F220F331F37
:1014E000441FAA1FA9F333D00E2E3AF0E0E830D003
:1014F00091505040E695001CCAF729D0FE2F27D006
:10150000660F771F881FBB1F261737074807AB07D3
:10151000B0E809F0BB0B802DBF01FF2793585F4F48
:101520002AF09E3F510568F092C0DCC05F3FECF3AB
:10153000983EDCF3869577956795B795F7959F5F0D
:10154000C9F7880F911D9695879597F90895E1E061
:10155000660F771F881FBB1F621773078407BA07C0
:1015600020F0621B730B840BBA0BEE1F88F7E0951B
:10157000089504D06894B111B5C0089598D088F04A
:101580009F5790F0B92F9927B751A0F0D1F0660F6F
:10159000771F881F991F1AF0BA95C9F712C0B1308A
:1015A00081F09FD0B1E008959CC0672F782F8827E5
:1015B000B85F39F0B93FCCF3869577956795B395C9
:1015C000D9F73EF490958095709561957F4F8F4F38
:1015D0009F4F0895E89409C097FB3EF4909580953D
:1015E000709561957F4F8F4F9F4F9923A9F0F92FE9
:1015F00096E9BB279395F695879577956795B79567
:10160000F111F8CFFAF4BB0F11F460FF1BC06F5F4C
:101610007F4F8F4F9F4F16C0882311F096E911C05E
:10162000772321F09EE8872F762F05C0662371F07F
:1016300096E8862F70E060E02AF09A95660F771F93
:10164000881FDAF7880F9695879597F9089597F987
:101650009F6780E870E060E008959FEF80EC089558
:1016600000240A9416161706180609060895002481
:101670000A9412161306140605060895092E0394FB
:10168000000C11F4882352F0BB0F40F4BF2B11F46F
:1016900060FF04C06F5F7F4F8F4F9F4F089557FDCE
:1016A0009058440F551F59F05F3F71F04795880FD0
:1016B00097FB991F61F09F3F79F087950895121667
:1016C00013061406551FF2CF4695F1DF08C0161613
:1016D00017061806991FF1CF8695710561050894C4
:1016E0000895E894BB2766277727CB0197F90895DB
:1016F0000BD0C4CFB5DF28F0BADF18F0952309F07E
:10170000A6CFABCF1124EECFCADFA0F3959FD1F3C4
:10171000950F50E0551F629FF001729FBB27F00D9F
:10172000B11D639FAA27F00DB11DAA1F649F6627F4
:10173000B00DA11D661F829F2227B00DA11D621F43
:10174000739FB00DA11D621F839FA00D611D221FFD
:10175000749F3327A00D611D231F849F600D211DE1
:10176000822F762F6A2F11249F5750408AF0E1F084
:1017700088234AF0EE0FFF1FBB1F661F771F881FCD
:1017800091505040A9F79E3F510570F060CFAACF0D
:101790005F3FECF3983EDCF3869577956795B795B8
:1017A000F795E7959F5FC1F7FE2B880F911D9695E2
:1017B000879597F90895EE0FFF1F881F8BBF07903D
:0A17C000F691E02D1994F894FFCF84
:0C17CA00FF0101010101FF01FF0101FF0F
:00000001FF
