:1000000072C0000010C2000052C2000087C200008F
:10001000BCC2000028C30000EFC2000094C0000072
:1000200092C0000090C000008EC000008CC0000094
:100030008AC0000088C0000086C0000084C00000A4
:1000400082C0000080C000007EC000007CC00000B4
:100050007AC0000078C0000076C0000074C00000C4
:1000600072C0000091C600006EC000006CC00000AD
:100070006AC0000068C0000066C0000064C00000E4
:1000800062C0000060C000005EC000005CC00000F4
:100090008BC6000058C0000056C0000054C00000CD
:1000A00052C0000050C0000015C300004CC000004A
:1000B0004AC0000048C0000046C0000044C0000024
:1000C00042C0000040C000003EC000007DC60000ED
:1000D0003AC0000038C0000087C6000034C00000ED
:1000E00032C00000B90311241FBECFEFD1E2DEBF42
:1000F000CDBF00E00CBF12E0A0E0B2E0E2ECFDE119
:1001000000E00BBF02C007900D92AC30B107D9F7E9
:1001100022E0ACE0B2E001C01D92AF3EB207E1F7D1
:1001200010E0C3E7D0E000E006C021970109802F6E
:10013000FE010E94BE0EC237D10780E00807A9F772
:10014000F0D30C94DF0E5CCFCF92DF92EF92FF9250
:100150000F931F931092BD021092B9021092B80231
:1001600080E090E09C01220F331FF901E255FD4F22
:1001700011821082F901EA55FD4F1182108261E06F
:10018000680F86569D4F39D58091B8029091B9027B
:1001900061E0680F9C01220F331F220F331F220FD3
:1001A000331F820F931F8A589D4F6BD38091B802E3
:1001B0009091B9029C01220F331F820F931F880F69
:1001C000991F880F991F880F991F0F2EF5E8CF2EC2
:1001D000FBEEDF2EF1E5EF2EFFE3FF2EF02D00E02A
:1001E00010E098014CE55FE86AE170E4845F9D4FA0
:1001F00012D58091B8029091B90201969093B902FC
:100200008093B802843091050CF4ACCF61E081E7B3
:1002100092E076D362E08CE692E072D31092BB0259
:100220001092BA021092BC021F910F91FF90EF90B2
:10023000DF90CF9008958F929F92AF92BF92CF920E
:10024000DF92EF92FF921F93CF93DF93CEEAD2E03B
:100250000F2EF0E0CF2EF2E0DF2EF02D0F2EF6EB7A
:100260008F2EF2E09F2EF02D7E016CEA72E0570196
:10027000E6EAF2E0D60180E090E0419151911D91D3
:1002800014039001159F300D1124820F931FE61760
:10029000F70799F7F50191838083F2E0EF0EF11CE7
:1002A00083E0C80ED11CE814F90409F783E090E05C
:1002B0009093B7028093B6020F2EFEE9CF2EF2E0A4
:1002C000DF2EF02D0F2EFCE0EF2EF2E0FF2EF02DB2
:1002D00069917991072E000C880B990B0E94A10D52
:1002E00020E030E04BEE53E40E94060D20E030E0C9
:1002F0004AEA52E40E94550E0E946E0DF601619387
:1003000071936F01F70175876487F8E1EF0EF11CB7
:10031000C815D905E9F684E090E09093B90280937E
:10032000B802DF91CF911F91FF90EF90DF90CF90B7
:10033000BF90AF909F908F9008958091BD028823C9
:10034000C9F11092B9021092B80280E090E0FC016D
:10035000EE0FFF1FEE0FFF1FEE0FFF1FE80FF91F3D
:10036000EA58FD4F618172819C01220F331F820F79
:10037000931F880F991F880F991F880F991F845FFB
:100380009D4F63D40E946E0D2091B8023091B90246
:10039000C90186569D4FF6D38091B8029091B9025B
:1003A00001969093B9028093B802843091057CF253
:1003B0001092BD020895E6EAF2E0118210821382E3
:1003C0001282158214821782168284E090E0909344
:1003D000B9028093B80208951092B9021092B8023F
:1003E00080E090E086569D4F8CD38091B80290912A
:1003F000B902FC01EE0FFF1FE80FF91FEE0FFF1F00
:10040000EE0FFF1FEE0FFF1FE45FFD4F148A158AEA
:10041000168A178A01969093B9028093B8028430A5
:10042000910504F308951F920F920FB60F921124B5
:100430000BB60F928F939F93AF93BF93EF93FF935E
:1004400000990EC0E6E7F2E085819681A781B0852C
:100450000196A11DB11D85839683A783B0870DC02A
:10046000E6E7F2E085819681A781B0850197A10931
:10047000B10985839683A783B0878091BC028823C6
:1004800049F08091BA029091BB0201969093BB0211
:100490008093BA02FF91EF91BF91AF919F918F919D
:1004A0000F900BBE0F900FBE0F901F9018951F92CC
:1004B0000F920FB60F9211240BB60F928F939F934A
:1004C000AF93BF93EF93FF9302990EC0E6E7F2E07C
:1004D00086859785A089B1890196A11DB11D868762
:1004E0009787A08BB18B0DC0E6E7F2E086859785F4
:1004F000A089B1890197A109B10986879787A08B47
:10050000B18BFF91EF91BF91AF919F918F910F9020
:100510000BBE0F900FBE0F901F9018951F920F9259
:100520000FB60F9211240BB60F928F939F93AF9338
:10053000BF93EF93FF93049B0EC0E6E7F2E0878939
:10054000908DA18DB28D0196A11DB11D878B908FCD
:10055000A18FB28F0DC0E6E7F2E08789908DA18D63
:10056000B28D0197A109B109878B908FA18FB28FAE
:10057000FF91EF91BF91AF919F918F910F900BBE23
:100580000F900FBE0F901F9018951F920F920FB6ED
:100590000F9211240BB60F928F939F93AF93BF933B
:1005A000EF93FF93069B0EC0E6E7F2E080A191A1D6
:1005B000A2A1B3A10196A11DB11D80A391A3A2A3E5
:1005C000B3A30DC0E6E7F2E080A191A1A2A1B3A17F
:1005D0000197A109B10980A391A3A2A3B3A3FF919D
:1005E000EF91BF91AF919F918F910F900BBE0F90A4
:1005F0000FBE0F901F9018951F920F920FB60F927B
:1006000011240BB60F928F939F93AF93BF93EF93E9
:10061000FF9337990EC0E1E7F2E081819281A381D7
:10062000B4810196A11DB11D81839283A383B483FC
:100630000DC0E1E7F2E081819281A381B48101974D
:10064000A109B10981839283A383B483FF91EF91C0
:10065000BF91AF919F918F910F900BBE0F900FBEE6
:100660000F901F9018951F920F920FB60F921124A2
:100670000BB60F928F939F93AF93BF93EF93FF931C
:1006800035990EC0ECE6F2E081819281A381B481BC
:100690000196A11DB11D81839283A383B4830DC0F4
:1006A000ECE6F2E081819281A381B4810197A109F6
:1006B000B10981839283A383B483FF91EF91BF91AA
:1006C000AF919F918F910F900BBE0F900FBE0F9027
:1006D0001F9018951F920F920FB60F9211240BB610
:1006E0000F928F939F93AF93BF93EF93FF93E6E7A0
:1006F000F2E085819681A781B08581839283A3836F
:10070000B483158216821782108686859785A08904
:10071000B18982879387A487B58716861786108A42
:10072000118A8789908DA18DB28D838B948BA58B37
:10073000B68B178A108E118E128E80A191A1A2A164
:10074000B3A1848F958FA68FB78F10A211A212A28A
:1007500013A281E08093BD02FF91EF91BF91AF9111
:100760009F918F910F900BBE0F900FBE0F901F9017
:100770001895E6E7F2E08AE992E01182128213828C
:10078000148215821682178210863996E817F907A7
:10079000A1F71092720210927302109274021092DA
:1007A000750210926D0210926E0210926F021092FA
:1007B0007002ECE0F2E08CE692E01082118212828C
:1007C0001382148215821682178210861186128671
:1007D00013861586148617861686118A108A138A40
:1007E000128A7896E817F90741F708957894FC0182
:1007F0008081813049F4E898E9E6F0E08081826008
:100800008083E89AE09A0895823049F4E998E9E60D
:10081000F0E0808188608083E99AE19A08958330CE
:1008200049F4EA98E9E6F0E0808180628083EA9A00
:10083000E29A0895843041F4EB98E9E6F0E0808193
:1008400080688083EB9AE39A08958091BE028111BB
:1008500017C0E1EAF0E080818B608083E2E7F0E09E
:100860008081826080838CE49DE19093A9008093D5
:10087000A8001092A5001092A40081E08093BE020F
:100880000895CF93DF93EC016883613029F4509889
:100890000898589A109A14C0623029F451980A980E
:1008A000599A129A0DC0633029F452980C985A9AAA
:1008B000149A06C0643021F453980E985B9A169AE5
:1008C000CE0194DFCE01C1DFDF91CF910895FC010D
:1008D0008081813049F4ED98EAE6F0E0808188601B
:1008E0008083ED9AE59A0AC0823041F4EC98EAE6FA
:1008F000F0E0808182608083EC9AE49A7894089595
:10090000FC016083613029F46D983F98759A479A8D
:1009100006C0623021F46C983D98749A459AD7CFFE
:10092000089506D211D21CD208D30EDC789480919F
:10093000BF02882311F013D401C003D37CDCFDDC9B
:10094000F6CFFC0180818130F1F4E7E0F1E08081B5
:1009500082608083808181608083EAE0F1E0808131
:1009600088608083E0E2F1E0808182688083E1E258
:10097000F1E080818A61808389EF90E09093270184
:100980008093260108958230F1F4E7E0F1E0808160
:1009900088608083808184608083EAE0F1E08081E8
:1009A00080618083E0E2F1E0808182628083E1E225
:1009B000F1E080818A61808389EF90E09093270144
:1009C0008093260108958330F1F4E7E0F1E080811F
:1009D00080618083808180628083EAE0F1E08081B1
:1009E00080628083E0E2F1E080818A608083E1E2DE
:1009F000F1E080818A61808389EF90E09093270104
:100A00008093260108958430C9F4E7E0F1E0808105
:100A1000806480838081806880836B9AE0E9F0E065
:100A2000808182688083E1E9F0E080818A6180834F
:100A300089EF90E090939700809396000895FC01D1
:100A40008081823091F018F4813031F00895833044
:100A5000A9F08430E1F00895E8E0F1E0808182605F
:100A6000808380818E7F80830895E8E0F1E080813B
:100A70008860808380818B7F80830895E8E0F1E047
:100A800080818061808380818F7D80830895E8E00C
:100A9000F1E080818064808380818F7780830895F6
:100AA000FC018081823091F018F4813031F008959A
:100AB0008330A9F08430E1F00895E8E0F1E080812E
:100AC0008D7F80838081816080830895E8E0F1E0FC
:100AD0008081877F80838081846080830895E8E0BF
:100AE000F1E080818F7E80838081806280830895A1
:100AF000E8E0F1E080818F7B808380818068808363
:100B00000895FC0180818230B1F018F4813031F019
:100B100008958330E9F0843041F10895E8E0F1E090
:100B200080818D7F808380818E7F808310922901D8
:100B3000109228010895E8E0F1E08081877F8083AA
:100B400080818B7F808310922B0110922A0108955F
:100B5000E8E0F1E080818F7E808380818F7D8083DB
:100B600010922D0110922C010895E8E0F1E08081AF
:100B70008F7B808380818F77808310929900109281
:100B8000980008950F931F93CF93DF938C01EB018F
:100B90001C161D060CF453DFDD232CF4D195C195F2
:100BA000D109C8017DDFCA3FD10514F0C9EFD0E0FB
:100BB000F8018081823071F018F4813031F018C072
:100BC000833069F0843081F013C0D0932901C09341
:100BD00028010EC0D0932B01C0932A0109C0D093E5
:100BE0002D01C0932C0104C0D0939900C0939800AC
:100BF000DF91CF911F910F910895CF93DF93EC0177
:100C000068839FDECE017DDF60E070E0CE01BADF59
:100C1000DF91CF910895CF92DF92EF92FF920F93E1
:100C20001F93FC0140835183628373830483158384
:100C300026833783C086D186E286F3861F910F9183
:100C4000FF90EF90DF90CF9008958F929F92AF9298
:100C5000BF92EF92FF920F931F93CF93DF93EC011C
:100C60007B016C857D858B010E191F091F870E87FF
:100C70008A899B89800F911F8E3791052CF08DE713
:100C800090E09B8B8A8B0BC083382FEF92071CF070
:100C90009B8B8A8B04C083E89FEF9B8B8A8B6A892E
:100CA0007B89072E000C880B990B4BD72C813D813B
:100CB0004E815F81FAD74B015C01B801110F880B9F
:100CC000990B3FD7288139814A815B81EED79B01FF
:100CD000AC01C501B40132D64B015C018889998908
:100CE000B701681B790B072E000C880B990B29D7CD
:100CF000288539854A855B85D8D79B01AC01C5011C
:100D0000B4011BD62C893D894E895F8917D66C8B1F
:100D10007D8B8E8B9F8BF98AE88ADF91CF911F9113
:100D20000F91FF90EF90BF90AF909F908F9008959C
:100D30001092C50087E68093C40088E98093C100C3
:100D400086E08093C20008951092D50087E68093D4
:100D5000D40088E98093D10086E08093D200089582
:100D60001092350189E18093340188E98093310143
:100D700086E0809332010895E0E3F1E0908195FFF1
:100D8000FDCF8093360108951F920F920FB60F92F8
:100D900011248F938091C6008093C8028F910F9089
:100DA0000FBE0F901F9018951F920F920FB60F92C3
:100DB00011248F938091CE008093C7028F910F9062
:100DC0000FBE0F901F9018951F920F920FB60F92A3
:100DD00011248F938091D6008093C6028F910F903B
:100DE0000FBE0F901F9018951F920F920FB60F9283
:100DF00011240BB60F928F939F93EF93FF938091E3
:100E000036018093C5029091C002992389F0909198
:100E1000C102E92FF0E0EE53FD4F80839F5F9430D5
:100E200018F49093C10204C01092C1021092C00243
:100E30008D3F31F481E08093C0021092BF0207C061
:100E40008E3F29F481E08093C0028093BF02FF911E
:100E5000EF919F918F910F900BBE0F900FBE0F904F
:100E60001F90189583E08093CA028093C9028AEB91
:100E700099E0A0E0B0E08093DA029093DB02A093C7
:100E8000DC02B093DD021092D6021092D7021092CB
:100E9000D8021092D902E2ECF2E082E380838183EF
:100EA00082838CE390E09093EB028093EA021092AD
:100EB000ED021092EC021092DE021092DF0210920C
:100EC000E0021092E1021092E6021092E702109204
:100ED000E8021092E9021092E2021092E3021092EC
:100EE000E4021092E5021092D00281E08093EE02BB
:100EF0001092720210927302109274021092750294
:100F000010926D0210926E0210926F021092700297
:100F10001092D5021092D4021092D3021092D102F4
:100F20001092D2021092CF021092CE021092CD02F5
:100F30001092CC021092CB0208951092BF0292CF71
:100F40000895EF92FF920F931F93CF93DF9306EADA
:100F500012E00F2EF2ECEF2EF2E0FF2EF02DF70153
:100F60008081C2E3D0E0BE01681B7109072E000C2E
:100F7000880B990BE6D520E030E048E452E446D5F2
:100F800020E030E047ED53E490D6A8D5F801718316
:100F90006083F701618170E062537109072E000CD4
:100FA000880B990BCED520E030E048E452E42ED5F2
:100FB00020E030E047ED53E478D690D5F801738314
:100FC0006283F7018281C81BD109BE01DD0F880B46
:100FD000990BB7D520E030E048E452E417D520E083
:100FE00030E048EC52E461D679D5F801758364832A
:100FF0008091CF02811136DFDF91CF911F910F9148
:10100000FF90EF900895CF92DF92EF92FF920F93AF
:101010001F938091CA0290E02091C902821B91091E
:1010200012F021E001C02FEF2093EE021092720225
:10103000109273021092740210927502E6EAF2E0C6
:101040008FE090E0918380831582148281E0809309
:10105000D5024091D6025091D7026091D80270918A
:10106000D9028091DA029091DB02A091DC02B0916A
:10107000DD026A017B01C81AD90AEA0AFB0AD70114
:10108000C6013AF488279927DC018C199D09AE091D
:10109000BF098093DE029093DF02A093E002B09339
:1010A000E10288329A40A105B10564F00EEA11E030
:1010B0002003C001219F900D11249093ED02809395
:1010C000EC0208C03AEF2303C00111249093ED0213
:1010D0008093EC024093DA025093DB026093DC02CF
:1010E0007093DD021F910F91FF90EF90DF90CF90F2
:1010F00008958091CA02813099F48093D20285E0EC
:101100008093C9028EEF9CEFAFEFBFEF8093D602C2
:101110009093D702A093D802B093D90274CF0895C8
:101120009091D202992391F0853081F482E08093EE
:10113000C90289EF94E2A0E0B0E08093D6029093D8
:10114000D702A093D802B093D9025DCF0895CF9370
:10115000C82F8CEF11DE8C2F0FDECF9108954F92A8
:101160005F926F927F928F929F92AF92BF92CF9237
:10117000DF92EF92FF920F931F93CF93DF93CDB740
:10118000DEB728970FB6F894DEBF0FBECDBF8091B3
:10119000D502811164C08091D402811160C0809118
:1011A000C202813079F484E08093C9021092D602A1
:1011B0001092D7021092D8021092D90224DF109216
:1011C000C2024DC0823091F48093C90289EF94E24B
:1011D000A0E0B0E08093D6029093D702A093D8020B
:1011E000B093D90210DF1092C20239C0833099F453
:1011F00081E08093C90285EA9DE2A0E0B0E080939F
:10120000D6029093D702A093D802B093D902FBDE06
:101210001092C20224C08430E9F48091D302882362
:1012200059F0E6EAF2E08CE390E091838083138248
:101230001282158214820BC081E08093D402109236
:101240006D0210926E0210926F0210927002109254
:10125000C20205C0853019F44CDF1092C2028091A1
:10126000D202882309F498C08091CB02882361F1CF
:101270008091720290917302A0917402B0917502F4
:10128000181619061A061B0644F421E08837954003
:10129000A105B10584F420E00EC0B095A09590950D
:1012A00081959F4FAF4FBF4F21E088379540A105F3
:1012B000B1050CF420E0222339F07DD81092CC0245
:1012C00087E045DF1092D2028091CC02882309F496
:1012D0003CC06091BA027091BB026C3385E0780724
:1012E000F0F01092CC0281E08093CB02E6EAF2E0CB
:1012F000118210828EE79FEF93838283158214827E
:10130000109272021092730210927402109275027F
:101310001092BB021092BA021092BC0216C06F3932
:1013200092E0790790F480E090E009D42AE237E671
:1013300047E35DE3BAD420E030E040EA52E4FDD276
:10134000CDD37093AB026093AA028091CD02882323
:1013500019F180916D0290916E02A0916F02B0918F
:101360007002803B9440A105B105B4F024D81092DE
:10137000CD0281E08093CC028093BC021092BB022C
:101380001092BA02E6EAF2E011821082138212820F
:1013900080EB9FEF958384838091D302882381F033
:1013A00080916D0290916E02A0916F02B0917002D7
:1013B0004F97A105B10524F40E94DB011092D302DE
:1013C0008091D502882309F4EDC18091D00281116A
:1013D0005DC00091EE02002E000C110BA090EC02FB
:1013E000B090ED026091DE027091DF028091E00228
:1013F0009091E102A6D36B017C0120EB2003B001A8
:10140000219F700D11246A0D7B1D072E000C880B87
:10141000990B97D32B013C0124EA30E749E151E4D1
:10142000C701B601F3D29B01AC01C301B201EED2F8
:101430006093E6027093E7028093E8029093E902DA
:1014400089E1809FB001819F700D11246A197B0989
:10145000072E000C880B990B74D34B015C012DEC0B
:101460003CEC4CE450E4C701B601D0D29B01AC0186
:10147000C501B401CBD26093E2027093E302809382
:10148000E4029093E50281E08093D00240907202E2
:10149000509073026090740270907502C090DE02EA
:1014A000D090DF02E090E002F090E102D301C201AF
:1014B00077203CF488279927DC0184199509A6092F
:1014C000B7098C159D05AE05BF050CF455C00E94EB
:1014D000DB010E94EC011092DE021092DF021092FA
:1014E000E0021092E1021092D5021092D002809197
:1014F000CA02843091F48091C902823089F5109239
:101500006D0210926E0210926F021092700281E0D2
:101510008093D4028093CE0223C0833031F4809133
:10152000C9028430E9F413DE1BC08530C9F4809110
:10153000C9028230A9F410926D0210926E021092CC
:101540006F021092700281E08093CD02E6EAF2E031
:1015500084EC9FEF91838083138212821582148220
:101560008091D202882319F08091C902F0DD809128
:10157000C9028093CA0216C1141415041604170474
:10158000ECF4C301B201DDD24B015C01C701B6012D
:10159000D8D269837A838B839C8324EA30E749E13C
:1015A00051E434D26D837E838F8398879B01AC0195
:1015B000C501B40176D3882314F546C06627772782
:1015C000CB016419750986099709BBD24B015C01EF
:1015D000C701B601B6D269837A838B839C8324EAE0
:1015E00030E749E151E412D26D837E838F8398877F
:1015F0009B01AC01C501B40154D38823A4F12DECA7
:101600003CEC4CE450E469817A818B819C81FED171
:101610009B01AC0169817A818B819C818ED19B0178
:10162000AC01C501B401EED118164CF08091EC026A
:101630009091ED029093A9028093A802B3C0141474
:101640001504160417047CF4C301B2017AD24B01CD
:101650005C019B01AC016D817E818F81988521D3D6
:101660008823A4F439C066277727CB01641975094C
:101670008609970966D24B015C019B01AC016D8123
:101680007E818F8198850DD3882334F1C301B20107
:1016900058D22091E6023091E7024091E802509141
:1016A000E90203D320E030E040EA52E447D16B0185
:1016B0007C016091EE02062E000C770B880B990BD3
:1016C00040D29B01AC01C701B601EFD207D27093A3
:1016D000A9026093A80266C02DEC3CEC4CE450E4F7
:1016E00069817A818B819C8191D16D837E838F8387
:1016F00098879B01AC0169817A818B819C811DD186
:101700009B01AC01C501B401CCD288230CF44AC0C2
:101710003091EE02398389E1380280011124B80149
:10172000012E000C880B990B0CD24B015C018091AF
:10173000EC029091ED02D801A81BB90BA70196010C
:1017400017D3FFD12D813E814F8158855FD19B01F9
:10175000AC01C501B401F1D06B017C012981622F7C
:10176000220F770B880B990BECD12091E20230917C
:10177000E3024091E4025091E50297D24B015C01F3
:10178000C301B201DED19B01AC01C501B4018DD210
:101790009B01AC01C701B601D1D0A0D17093A902C1
:1017A0006093A8028091D402882309F4ACC0809190
:1017B000C402811110C0E6EAF2E08091EA02909141
:1017C000EB02919581959109918380831382128216
:1017D000158214828EC0813099F4E6EAF2E011821B
:1017E0001082138212828091EA029091EB0291950D
:1017F000819591099583848381E08093D1027DC096
:10180000823081F4E6EAF2E01182108213821282C1
:101810008091EA029091EB029583848381E080932A
:10182000D1026BC0843099F4E6EAF2E08091EA02DA
:101830009091EB0291958195910991838083138218
:1018400012821582148281E08093D10256C08330C7
:1018500081F4E6EAF2E0118210828091EA0290912E
:10186000EB02938382831582148281E08093D102FC
:1018700044C0853099F4E6EAF2E0118210821382C6
:1018800012828091EA029091EB02919581959109E3
:101890009583848381E08093D1022FC0863081F4C8
:1018A000E6EAF2E011821082138212828091EA024B
:1018B0009091EB029583848381E08093D1021DC0D7
:1018C0008730B9F40E94DB011092D1028CE390E0E2
:1018D0009093EB028093EA021092D40281E080930D
:1018E000D3028091CE02882371F086E030DC109222
:1018F000CE028091D102882331F084E190E0909370
:10190000EB028093EA0281E08093CF0228960FB623
:10191000F894DEBF0FBECDBFDF91CF911F910F9125
:10192000FF90EF90DF90CF90BF90AF909F908F90FF
:101930007F906F905F904F9008955058BB27AA27D3
:101940000ED075C166D130F06BD120F031F49F3FDD
:1019500011F41EF45BC10EF4E095E7FB51C1E92FD1
:1019600077D180F3BA17620773078407950718F0D9
:1019700071F49EF58FC10EF4E0950B2EBA2FA02DB9
:101980000B01B90190010C01CA01A0011124FF272C
:10199000591B99F0593F50F4503E68F11A16F04027
:1019A000A22F232F342F4427585FF3CF4695379526
:1019B0002795A795F0405395C9F77EF41F16BA0BEB
:1019C000620B730B840BBAF09150A1F0FF0FBB1F99
:1019D000661F771F881FC2F70EC0BA0F621F731FE2
:1019E000841F48F4879577956795B795F7959E3F3F
:1019F00008F0B3CF9395880F08F09927EE0F9795CD
:101A000087950895D9D008F481E008950CD00FC1CE
:101A100007D140F0FED030F021F45F3F19F0F0C064
:101A2000511139C1F3C014D198F39923C9F3552347
:101A3000B1F3951B550BBB27AA27621773078407C1
:101A400038F09F5F5F4F220F331F441FAA1FA9F377
:101A500033D00E2E3AF0E0E830D091505040E69569
:101A6000001CCAF729D0FE2F27D0660F771F881FCA
:101A7000BB1F261737074807AB07B0E809F0BB0BB9
:101A8000802DBF01FF2793585F4F2AF09E3F5105DD
:101A900068F0B6C000C15F3FECF3983EDCF386957A
:101AA00077956795B795F7959F5FC9F7880F911D53
:101AB0009695879597F90895E1E0660F771F881F3F
:101AC000BB1F621773078407BA0720F0621B730BF2
:101AD000840BBA0BEE1F88F7E095089504D0689444
:101AE000B111D9C00895BCD088F09F5790F0B92F9C
:101AF0009927B751A0F0D1F0660F771F881F991F63
:101B00001AF0BA95C9F712C0B13081F0C3D0B1E074
:101B10000895C0C0672F782F8827B85F39F0B93F84
:101B2000CCF3869577956795B395D9F73EF4909564
:101B30008095709561957F4F8F4F9F4F0895E894E2
:101B400009C097FB3EF490958095709561957F4F05
:101B50008F4F9F4F9923A9F0F92F96E9BB279395B3
:101B6000F695879577956795B795F111F8CFFAF4C3
:101B7000BB0F11F460FF1BC06F5F7F4F8F4F9F4FF4
:101B800016C0882311F096E911C0772321F09EE852
:101B9000872F762F05C0662371F096E8862F70E0B8
:101BA00060E02AF09A95660F771F881FDAF7880F92
:101BB0009695879597F90895990F0008550FAA0BE8
:101BC000E0E8FEEF16161706E807F907C0F0121650
:101BD0001306E407F50798F0621B730B840B950B53
:101BE00039F40A2661F0232B242B252B21F40895A8
:101BF0000A2609F4A140A6958FEF811D811D089545
:101C000097F99F6780E870E060E008959FEF80ECAF
:101C1000089500240A941616170618060906089552
:101C200000240A9412161306140605060895092EB8
:101C30000394000C11F4882352F0BB0F40F4BF2B27
:101C400011F460FF04C06F5F7F4F8F4F9F4F089567
:101C500057FD9058440F551F59F05F3F71F047955D
:101C6000880F97FB991F61F09F3F79F08795089542
:101C7000121613061406551FF2CF4695F1DF08C061
:101C8000161617061806991FF1CF8695710561057E
:101C900008940895E894BB2766277727CB0197F926
:101CA00008958ADF08F48FEF08950BD0C0CFB1DF1D
:101CB00028F0B6DF18F0952309F0A2CFA7CF1124A2
:101CC000EACFC6DFA0F3959FD1F3950F50E0551FE3
:101CD000629FF001729FBB27F00DB11D639FAA2781
:101CE000F00DB11DAA1F649F6627B00DA11D661FD0
:101CF000829F2227B00DA11D621F739FB00DA11DF1
:101D0000621F839FA00D611D221F749F3327A00DAA
:101D1000611D231F849F600D211D822F762F6A2F46
:101D200011249F5750408AF0E1F088234AF0EE0FCB
:101D3000FF1FBB1F661F771F881F91505040A9F7D8
:101D40009E3F510570F05CCFA6CF5F3FECF3983E0D
:101D5000DCF3869577956795B795F795E7959F5F3F
:101D6000C1F7FE2B880F911D9695879597F90895D9
:101D7000B7FF0CC00BD0821B930B0895EE0FFF1F13
:101D8000881F8BBF0790F691E02D199409D0A59F6D
:101D9000900DB49F900DA49F800D911D1124089566
:101DA000A29FB001B39FC001A39F700D811D11249C
:101DB000911DB29F700D811D1124911D0895F894FD
:021DC000FFCF53
:0C1DC200FF0101010101FF01FF0101FF11
:00000001FF
