:1000000072C0000008C200004AC200007FC20000A7
:10001000B4C2000020C30000E7C2000094C000008A
:1000200092C000000C944B0D8EC000008CC00000EC
:100030008AC0000088C0000086C0000084C00000A4
:1000400082C0000080C000007EC000007CC00000B4
:100050007AC0000078C0000076C0000074C00000C4
:1000600072C000008FC600006EC000006CC00000AF
:100070006AC0000068C0000066C0000064C00000E4
:1000800062C0000060C000005EC000005CC00000F4
:1000900089C6000058C0000056C0000054C00000CF
:1000A00052C0000050C000000DC300004CC0000052
:1000B0004AC0000048C0000046C0000044C0000024
:1000C00042C0000040C000003EC000007BC60000EF
:1000D0003AC0000038C0000085C6000034C00000EF
:1000E00032C00000B10311241FBECFEFD1E2DEBF4A
:1000F000CDBF00E00CBF12E0A0E0B2E0EEE9FFE10E
:1001000000E00BBF02C007900D92AC30B107D9F7E9
:1001100022E0ACE0B2E001C01D92AD3FB207E1F7D2
:1001200010E0C3E7D0E000E006C021970109802F6E
:10013000FE010E94AC0FC237D10780E00807A9F783
:10014000E8D30C94CD0F5CCFCF92DF92EF92FF9269
:100150000F931F931092BD021092B9021092B80231
:1001600080E090E09C01220F331FF901E255FD4F22
:1001700011821082F901EA55FD4F1182108261E06F
:10018000680F86569D4F31D58091B8029091B90283
:1001900061E0680F9C01220F331F220F331F220FD3
:1001A000331F820F931F8A589D4F63D38091B802EB
:1001B0009091B9029C01220F331F820F931F880F69
:1001C000991F880F991F880F991F0F2EF5E8CF2EC2
:1001D000FBEEDF2EF1E5EF2EFFE3FF2EF02D00E02A
:1001E00010E098014CE55FE86AE170E4845F9D4FA0
:1001F0000AD58091B8029091B90201969093B90204
:100200008093B802843091050CF4ACCF61E081E7B3
:1002100092E06ED362E08CE692E06AD31092BB0269
:100220001092BA021092BC021F910F91FF90EF90B2
:10023000DF90CF9008958F929F92AF92BF92CF920E
:10024000DF92EF92FF921F93CF93DF93CEEAD2E03B
:100250000F2EF0E0CF2EF2E0DF2EF02D0F2EF6EB7A
:100260008F2EF2E09F2EF02D7E016CEA72E0570196
:10027000E6EAF2E0D60180E090E0419151911D91D3
:1002800014039001159F300D1124820F931FE61760
:10029000F70799F7F50191838083F2E0EF0EF11CE7
:1002A00083E0C80ED11CE814F90409F783E090E05C
:1002B0009093B7028093B6020F2EFEE9CF2EF2E0A4
:1002C000DF2EF02D0F2EFCE0EF2EF2E0FF2EF02DB2
:1002D00069917991072E000C880B990B0E948F0E63
:1002E00020E030E04BEE53E40E94F40D20E030E0DB
:1002F0004AEA52E40E94430F0E945C0EF6016193A9
:1003000071936F01F70175876487F8E1EF0EF11CB7
:10031000C815D905E9F684E090E09093B90280937E
:10032000B802DF91CF911F91FF90EF90DF90CF90B7
:10033000BF90AF909F908F9008958091BD028823C9
:10034000C9F11092B9021092B80280E090E0FC016D
:10035000EE0FFF1FEE0FFF1FEE0FFF1FE80FF91F3D
:10036000EA58FD4F618172819C01220F331F820F79
:10037000931F880F991F880F991F880F991F845FFB
:100380009D4F5BD40E945C0E2091B8023091B9025F
:10039000C90186569D4FEED38091B8029091B90263
:1003A00001969093B9028093B802843091057CF253
:1003B0001092BD020895E6EAF2E0118210821382E3
:1003C0001282158214821782168284E090E0909344
:1003D000B9028093B8020895CF93DF93AEEAB2E0FA
:1003E000C6EAD2E0ECE0F2E086EB92E01D921D92CC
:1003F00019921992148A158A168A178A7896A8175C
:10040000B907A1F784E090E09093B9028093B80215
:10041000DF91CF9108951F920F920FB60F92112482
:100420000BB60F928F939F93AF93BF93EF93FF936E
:1004300000990EC0E6E7F2E085819681A781B0853C
:100440000196A11DB11D85839683A783B0870DC03A
:10045000E6E7F2E085819681A781B0850197A10941
:10046000B10985839683A783B0878091BC028823D6
:1004700049F08091BA029091BB0201969093BB0221
:100480008093BA02FF91EF91BF91AF919F918F91AD
:100490000F900BBE0F900FBE0F901F9018951F92DC
:1004A0000F920FB60F9211240BB60F928F939F935A
:1004B000AF93BF93EF93FF9302990EC0E6E7F2E08C
:1004C00086859785A089B1890196A11DB11D868772
:1004D0009787A08BB18B0DC0E6E7F2E08685978504
:1004E000A089B1890197A109B10986879787A08B57
:1004F000B18BFF91EF91BF91AF919F918F910F9031
:100500000BBE0F900FBE0F901F9018951F920F9269
:100510000FB60F9211240BB60F928F939F93AF9348
:10052000BF93EF93FF93049B0EC0E6E7F2E0878949
:10053000908DA18DB28D0196A11DB11D878B908FDD
:10054000A18FB28F0DC0E6E7F2E08789908DA18D73
:10055000B28D0197A109B109878B908FA18FB28FBE
:10056000FF91EF91BF91AF919F918F910F900BBE33
:100570000F900FBE0F901F9018951F920F920FB6FD
:100580000F9211240BB60F928F939F93AF93BF934B
:10059000EF93FF93069B0EC0E6E7F2E080A191A1E6
:1005A000A2A1B3A10196A11DB11D80A391A3A2A3F5
:1005B000B3A30DC0E6E7F2E080A191A1A2A1B3A18F
:1005C0000197A109B10980A391A3A2A3B3A3FF91AD
:1005D000EF91BF91AF919F918F910F900BBE0F90B4
:1005E0000FBE0F901F9018951F920F920FB60F928B
:1005F00011240BB60F928F939F93AF93BF93EF93FA
:10060000FF9337990EC0E1E7F2E081819281A381E7
:10061000B4810196A11DB11D81839283A383B4830C
:100620000DC0E1E7F2E081819281A381B48101975D
:10063000A109B10981839283A383B483FF91EF91D0
:10064000BF91AF919F918F910F900BBE0F900FBEF6
:100650000F901F9018951F920F920FB60F921124B2
:100660000BB60F928F939F93AF93BF93EF93FF932C
:1006700035990EC0ECE6F2E081819281A381B481CC
:100680000196A11DB11D81839283A383B4830DC004
:10069000ECE6F2E081819281A381B4810197A10906
:1006A000B10981839283A383B483FF91EF91BF91BA
:1006B000AF919F918F910F900BBE0F900FBE0F9037
:1006C0001F9018951F920F920FB60F9211240BB620
:1006D0000F928F939F93AF93BF93EF93FF93E6E7B0
:1006E000F2E085819681A781B08581839283A3837F
:1006F000B483158216821782108686859785A08915
:10070000B18982879387A487B58716861786108A52
:10071000118A8789908DA18DB28D838B948BA58B47
:10072000B68B178A108E118E128E80A191A1A2A174
:10073000B3A1848F958FA68FB78F10A211A212A29A
:1007400013A281E08093BD02FF91EF91BF91AF9121
:100750009F918F910F900BBE0F900FBE0F901F9027
:100760001895E6E7F2E08AE992E01182128213829C
:10077000148215821682178210863996E817F907B7
:10078000A1F71092720210927302109274021092EA
:10079000750210926D0210926E0210926F0210920A
:1007A0007002ECE0F2E08CE692E01082118212829C
:1007B0001382148215821682178210861186128681
:1007C00013861586148617861686118A108A138A50
:1007D000128A7896E817F90741F708957894FC0192
:1007E0008081813049F4E898E9E6F0E08081826018
:1007F0008083E89AE09A0895823049F4E998E9E61E
:10080000F0E0808188608083E99AE19A08958330DE
:1008100049F4EA98E9E6F0E0808180628083EA9A10
:10082000E29A0895843041F4EB98E9E6F0E08081A3
:1008300080688083EB9AE39A08958091BE028111CB
:1008400017C0E1EAF0E080818B608083E2E7F0E0AE
:100850008081826080838CE49DE19093A9008093E5
:10086000A8001092A5001092A40081E08093BE021F
:100870000895CF93DF93EC016883613029F4509899
:100880000898589A109A14C0623029F451980A981E
:10089000599A129A0DC0633029F452980C985A9ABA
:1008A000149A06C0643021F453980E985B9A169AF5
:1008B000CE0194DFCE01C1DFDF91CF910895FC011D
:1008C0008081813049F4ED98EAE6F0E0808188602B
:1008D0008083ED9AE59A0AC0823041F4EC98EAE60A
:1008E000F0E0808182608083EC9AE49A78940895A5
:1008F000FC016083613029F46D983F98759A479A9E
:1009000006C0623021F46C983D98749A459AD7CF0E
:1009100008950CD217D222D217DC87D47894809114
:10092000BF02882311F0C0D401C023D384DC05DDCD
:10093000F6CFFC0180818130F1F4E7E0F1E08081C5
:1009400082608083808181608083EAE0F1E0808141
:1009500088608083E0E2F1E0808182688083E1E268
:10096000F1E080818A61808389EF90E09093270194
:100970008093260108958230F1F4E7E0F1E0808170
:1009800088608083808184608083EAE0F1E08081F8
:1009900080618083E0E2F1E0808182628083E1E235
:1009A000F1E080818A61808389EF90E09093270154
:1009B0008093260108958330F1F4E7E0F1E080812F
:1009C00080618083808180628083EAE0F1E08081C1
:1009D00080628083E0E2F1E080818A608083E1E2EE
:1009E000F1E080818A61808389EF90E09093270114
:1009F0008093260108958430C9F4E7E0F1E0808116
:100A0000806480838081806880836B9AE0E9F0E075
:100A1000808182688083E1E9F0E080818A6180835F
:100A200089EF90E090939700809396000895FC01E1
:100A30008081823091F018F4813031F00895833054
:100A4000A9F08430E1F00895E8E0F1E0808182606F
:100A5000808380818E7F80830895E8E0F1E080814B
:100A60008860808380818B7F80830895E8E0F1E057
:100A700080818061808380818F7D80830895E8E01C
:100A8000F1E080818064808380818F778083089506
:100A9000FC018081823091F018F4813031F00895AA
:100AA0008330A9F08430E1F00895E8E0F1E080813E
:100AB0008D7F80838081816080830895E8E0F1E00C
:100AC0008081877F80838081846080830895E8E0CF
:100AD000F1E080818F7E80838081806280830895B1
:100AE000E8E0F1E080818F7B808380818068808373
:100AF0000895FC0180818230B1F018F4813031F02A
:100B000008958330E9F0843041F10895E8E0F1E0A0
:100B100080818D7F808380818E7F808310922901E8
:100B2000109228010895E8E0F1E08081877F8083BA
:100B300080818B7F808310922B0110922A0108956F
:100B4000E8E0F1E080818F7E808380818F7D8083EB
:100B500010922D0110922C010895E8E0F1E08081BF
:100B60008F7B808380818F77808310929900109291
:100B7000980008950F931F93CF93DF938C01EB019F
:100B80001C161D060CF453DFDD232CF4D195C19502
:100B9000D109C8017DDFCA3FD10514F0C9EFD0E00B
:100BA000F8018081823071F018F4813031F018C082
:100BB000833069F0843081F013C0D0932901C09351
:100BC00028010EC0D0932B01C0932A0109C0D093F5
:100BD0002D01C0932C0104C0D0939900C0939800BC
:100BE000DF91CF911F910F910895CF93DF93EC0187
:100BF00068839FDECE017DDF60E070E0CE01BADF6A
:100C0000DF91CF910895CF92DF92EF92FF920F93F1
:100C10001F93FC0140835183628373830483158394
:100C200026833783C086D186E286F3861F910F9193
:100C3000FF90EF90DF90CF9008958F929F92AF92A8
:100C4000BF92EF92FF920F931F93CF93DF93EC012C
:100C50007B016C857D858B010E191F091F870E870F
:100C60008A899B89800F911F8E3791052CF08DE723
:100C700090E09B8B8A8B0BC083382FEF92071CF080
:100C80009B8B8A8B04C083E89FEF9B8B8A8B6A893E
:100C90007B89072E000C880B990B0E948F0E2C81EC
:100CA0003D814E815F810E94430F4B015C01B80181
:100CB000110F880B990B0E948F0E288139814A8170
:100CC0005B810E94430F9B01AC01C501B40124D795
:100CD0004B015C0188899989B701681B790B072E44
:100CE000000C880B990B0E948F0E288539854A8548
:100CF0005B850E94430F9B01AC01C501B4010BD77A
:100D00002C893D894E895F8907D76C8B7D8B8E8BB3
:100D10009F8BF98AE88ADF91CF911F910F91FF9005
:100D2000EF90BF90AF909F908F9008951092C50064
:100D300087E68093C40088E98093C10086E08093B1
:100D4000C20008951092D50087E68093D40088E908
:100D50008093D10086E08093D200089510923501EF
:100D600089E18093340188E98093310186E08093A2
:100D700032010895E0E3F1E0908195FFFDCF80938B
:100D8000360108951F920F920FB60F9211248F9380
:100D90008091C6008093C8028F910F900FBE0F9074
:100DA0001F9018951F920F920FB60F9211248F93D8
:100DB0008091CE008093C7028F910F900FBE0F904D
:100DC0001F9018951F920F920FB60F9211248F93B8
:100DD0008091D6008093C6028F910F900FBE0F9026
:100DE0001F9018951F920F920FB60F9211240BB6F9
:100DF0000F928F939F93EF93FF938091360180938F
:100E0000C5029091C002992389F09091C102E92F07
:100E1000F0E0EE53FD4F80839F5F943018F4909381
:100E2000C10204C01092C1021092C0028D3F31F481
:100E300081E08093C0021092BF0207C08E3F29F468
:100E400081E08093C0028093BF02FF91EF919F9158
:100E50008F910F900BBE0F900FBE0F901F901895A3
:100E600083E08093CB028093CA021092C90288ED7E
:100E700099E0A0E0B0E08093DE029093DF02A093BF
:100E8000E002B093E1021092DA021092DB021092BB
:100E9000DC021092DD02E2ECF2E082E380838183E7
:100EA00082838CE390E09093F9028093F802109291
:100EB000FB021092FA021092E2021092E3021092E8
:100EC000E4021092E5021092F4021092F5021092E0
:100ED000F6021092F7021092F0021092F1021092B4
:100EE000F2021092F30289E190E09093EF02809376
:100EF000EE021092EA021092EB021092EC021092B3
:100F0000ED021092E6021092E7021092E8021092AF
:100F1000E9021092D40281E08093FC0210927202E6
:100F200010927302109274021092750210926D0268
:100F300010926E0210926F02109270021092D902FB
:100F40001092D8021092D7021092D5021092D602B7
:100F50001092D3021092D2021092D1021092D002BB
:100F60001092CF021092CE021092CD021092CC02BB
:100F70000895EF92FF920F931F93CF93DF9306EAAA
:100F800012E00F2EF2ECEF2EF2E0FF2EF02DF70123
:100F90008081C2E3D0E0BE01681B7109072E000CFE
:100FA000880B990BBCD620E030E048E452E41CD614
:100FB00020E030E047ED53E466D77ED6F801718338
:100FC0006083F701618170E062537109072E000CA4
:100FD000880B990BA4D620E030E048E452E404D614
:100FE00020E030E047ED53E44ED766D6F801738336
:100FF0006283F7018281C81BD109BE01DD0F880B16
:10100000990B8DD620E030E048E452E4EDD520E0A5
:1010100030E048EC52E437D74FD6F801758364834B
:101020008091D30281111CDFDF91CF911F910F912D
:10103000FF90EF900895CF92DF92EF92FF92809110
:10104000CB0290E02091CA02821B910912F021E0AC
:1010500001C02FEF2093FC021092720210927302D3
:1010600010927402109275021092AB021092AA02B2
:1010700081E08093D9024091DA025091DB026091C5
:10108000DC027091DD028091DE029091DF02A0917E
:10109000E002B091E102481B590B6A0B7B0BDB01AC
:1010A000CA013AF488279927DC01841B950BA60B0B
:1010B000B70B8093E2029093E302A093E402B09313
:1010C000E50288349D40A105B105C4F04EEA51E027
:1010D0002403C001259F900D11249093FB0280935F
:1010E000FA0287E390E09093EF028093EE0284E1AE
:1010F00090E09093A7028093A60214C03AEF2303D6
:10110000C00111249093FB028093FA0289E190E0E0
:101110009093EF028093EE028FE090E09093A7020D
:101120008093A6026091E2027091E3028091E40252
:101130009091E502F4D56B017C0120E030E040E2C3
:1011400051E452D56093EA027093EB028093EC0273
:101150009093ED022DEC3CEC4CE450E4C701B60159
:1011600043D56093E6027093E7028093E802909380
:10117000E9028091DA029091DB02A091DC02B09149
:10118000DD028093DE029093DF02A093E002B09331
:10119000E102FF90EF90DF90CF9008958091CB0215
:1011A000982F9D7F9130A1F481E08093D60285E055
:1011B0008093CA0280EE9CEFAFEFBFEF8093DA021C
:1011C0009093DB02A093DC02B093DD0234CF08954C
:1011D0009091D602992391F0853081F482E080933A
:1011E000CA0289EA94E2A0E0B0E08093DA02909328
:1011F000DB02A093DC02B093DD021DCF0895CF93F4
:10120000C82F8CEFB7DD8C2FB5DDCF910895F89402
:10121000E8E6F0E0808181608083D89AEBE6F0E038
:10122000808180618083789408951092BF02249811
:1012300017DEEDCF08951092E2021092E3021092B1
:10124000E4021092E5021092D9021092D402109298
:10125000CD028091CB02833031F48091CA02843078
:1012600069F4CDDF0BC0853049F48091CA02823029
:1012700029F481E08093D1028093CF021092CE02B4
:101280008091D602882319F08091CA02B8DF80913C
:10129000CA028093CB0210927202109273021092D3
:1012A00074021092750208954F925F926F927F922E
:1012B0008F929F92AF92BF92CF92DF92EF92FF9266
:1012C0001F93CF93DF9300D000D0CDB7DEB78091CE
:1012D000D902811172C08091D80281116EC08091B3
:1012E000D7028111B7C38091C202853059F4E6EA72
:1012F000F2E084EC9FEF9183808313821282158247
:1013000014825BC0863059F4E6EAF2E08CE390E0A8
:101310009183808313821282158214824EC087309B
:1013200059F4E6EAF2E0118210828CE390E09383B4
:1013300082831582148241C0883059F4E6EAF2E0D3
:101340001182108284EC9FEF938382831582148232
:1013500034C08091D602811101C02DD88091C20283
:10136000813049F484E08093C90281E08093D70200
:101370001092C20274C3823041F48093C90281E0AA
:101380008093D7021092C2026AC3833041F481E095
:101390008093C9028093D7021092C20260C3843046
:1013A00031F481E08093D8021092C20258C3893090
:1013B00021F4F4DE1092C20252C38091CF0288233E
:1013C00009F46FC08091C2028E30C1F4E6EAF2E007
:1013D0008CE390E0918380838EE190E0938382831D
:1013E0001582148210926D0210926E0210926F029A
:1013F0001092700281E08093CC0219C08091CC02DF
:101400008823A9F080916D0290916E02A0916F02E5
:10141000B0917002873B9E4FAF4FBF4F44F40E9484
:10142000DB011092CF021092D6021092CC02809172
:10143000D0028823D9F08091BA029091BB028C3BF4
:101440009240A0F01092D002E6EAF2E08AE69FEF26
:101450009183808383E290E0938382831582148258
:101460001092BC021092BB021092BA028091D1027B
:101470008823B9F01092D10281E08093D00280934A
:10148000BC02E6EAF2E011821082138212828AE63E
:101490009FEF958384831092BB021092BA028CE076
:1014A000AEDE8091D702882309F44FC08091C30239
:1014B000823009F040C08091C902843081F4809369
:1014C000CA021092DA021092DB021092DC02109231
:1014D000DD02B1DD1092D7021092C90236C082300F
:1014E000A1F48093CA0289EA94E2A0E0B0E080937C
:1014F000DA029093DB02A093DC02B093DD029BDD65
:101500001092D7021092C90220C08130F1F480936A
:10151000CA0285E59DE2A0E0B0E08093DA029093F4
:10152000DB02A093DC02B093DD0285DD1092D702CE
:101530001092C9020AC0E6EAF2E08CE390E09183DF
:10154000808313821282158214828091D9028823AB
:1015500009F4BAC18091D40281114CC08091FC027F
:10156000E090FA02F090FB02C82E082E000CDD0875
:10157000B70190E58902601971091124072E000C4A
:10158000880B990BCCD32091EA023091EB02409169
:10159000EC025091ED0228D36093F4027093F502AF
:1015A0008093F6029093F7028091EE029091EF0201
:1015B000C89EB001C99E700DD89E700D11246E1981
:1015C0007F09072E000C880B990BA9D32091E60206
:1015D0003091E7024091E8025091E90205D360930F
:1015E000F0027093F1028093F2029093F30281E093
:1015F0008093D4028091CD0281112FC08091E202AC
:101600009091E302A091E402B091E50280529340F0
:10161000A109B10940917202509173026091740264
:101620007091750277233CF47095609550954195C3
:101630005F4F6F4F7F4F481759076A077B076CF062
:101640008091CA028450823018F48BE0D8DD02C049
:101650008FE0D5DD81E08093CD028091CE028111B3
:10166000EADDC0907202D0907302E0907402F090B4
:1016700075028090E2029090E302A090E402B090A4
:10168000E502D701C601FF203CF488279927DC0139
:101690008C199D09AE09BF0988159905AA05BB05D6
:1016A0007CF0E6EAF2E0118210828091FC0229E1EE
:1016B0008202C0011124938382831582148204C1A3
:1016C0001C141D041E041F04B4F4C701B60127D363
:1016D00069837A838B839C834090EA025090EB026B
:1016E0006090EC027090ED02A3019201C8D38823B0
:1016F0000CF43DC019C066277727CB016C197D0912
:101700008E099F090CD369837A838B839C834090D5
:10171000EA025090EB026090EC027090ED02A3019F
:101720009201ADD3882384F1C501B401F8D2209190
:10173000E6023091E7024091E8025091E902EBD1D4
:101740009B01AC0169817A818B819C8149D21816F9
:101750004CF08091FA029091FB029093A902809341
:10176000A802B2C01C141D041E041F046CF4C7019F
:10177000B601D5D269837A838B839C83A3019201BE
:101780002FD2181694F437C066277727CB016C192F
:101790007D098E099F09C3D269837A838B839C83D9
:1017A000A30192011DD2181634F1C701B601B7D2B8
:1017B0002091F4023091F5024091F6025091F70227
:1017C00062D320E030E040EA52E4A6D16B017C0114
:1017D0006091FC02062E000C770B880B990B9FD2B0
:1017E0009B01AC01C701B6014ED366D27093A9022A
:1017F0006093A80269C04090E6025090E7026090B2
:10180000E8027090E902C501B40189D2A3019201F6
:1018100082D19B01AC0169817A818B819C812FD31C
:1018200088230CF451C01091FC022091EE023091FB
:10183000EF021203C001139F900D11249E838D832C
:10184000BC01990F880B990B6AD269837A838B83C9
:101850009C838091FA029091FB02AD81BE81A81B0E
:10186000B90BA501940172D35AD2A3019201BCD144
:101870009B01AC0169817A818B819C814CD14B01A8
:101880005C01612F110F770B880B990B48D22091C7
:10189000F0023091F1024091F2025091F302F3D242
:1018A0002B013C01C701B6013AD29B01AC01C30137
:1018B000B201E9D29B01AC01C501B4012DD1FCD12B
:1018C0007093A9026093A8028091D802882309F43A
:1018D000BDC08091C2028D3071F40E94DB01109274
:1018E000D8021092D5028CE390E09093F902809395
:1018F000F8021092C2028091C402811110C0E6EA7F
:10190000F2E08091F8029091F90291958195910908
:101910009183808313821282158214828DC081305C
:10192000A9F48091F8029091F902E6EAF2E0222708
:101930003327281B390B31832083059793838283B8
:101940001582148281E08093D5027AC0823081F4BE
:10195000E6EAF2E011821082138212828091F8028C
:101960009091F9029583848381E08093D50268C0C9
:10197000843099F4E6EAF2E0118210828091F80254
:101980009091F902919581959109938382831582B3
:10199000148281E08093D50253C0833081F4E6EA5B
:1019A000F2E0118210828091F8029091F902938303
:1019B00082831582148281E08093D50241C08530F4
:1019C00099F4E6EAF2E01182108213821282809189
:1019D000F8029091F90291958195910995838483FC
:1019E00081E08093D5022CC0863081F4E6EAF2E0F3
:1019F00011821082138212828091F8029091F90272
:101A00009583848381E08093D5021AC08730A1F446
:101A10000E94DB011092D5028CE390E09093F902D2
:101A20008093F8021092D8028091D202882371F03C
:101A30008AE0E5DB1092D2028091D502882331F052
:101A400084E190E09093F9028093F80281E0809322
:101A5000D3020BC08091CF028111B4CC27CD8091ED
:101A6000CF02882309F41DCDC9CC26960FB6F89471
:101A7000DEBF0FBECDBFDF91CF911F91FF90EF90E2
:101A8000DF90CF90BF90AF909F908F907F906F909E
:101A90005F904F9008951F920F920FB60F921124EE
:101AA0000BB60F922F933F934F935F936F937F9358
:101AB0008F939F93AF93BF93EF93FF938091D9023E
:101AC000882391F08091D80281110EC08091CF02BD
:101AD00081110AC003C00E94EC010AC00E94EC01FF
:101AE00081E08093CE0204C08091CF028111F3CFB8
:101AF000FF91EF91BF91AF919F918F917F916F91E6
:101B00005F914F913F912F910F900BBE0F900FBEA1
:101B10000F901F9018955058BB27AA270ED075C15B
:101B200066D130F06BD120F031F49F3F11F41EF4F8
:101B30005BC10EF4E095E7FB51C1E92F77D180F34B
:101B4000BA17620773078407950718F071F49EF5BA
:101B50008FC10EF4E0950B2EBA2FA02D0B01B90109
:101B600090010C01CA01A0011124FF27591B99F013
:101B7000593F50F4503E68F11A16F040A22F232F1F
:101B8000342F4427585FF3CF469537952795A7956F
:101B9000F0405395C9F77EF41F16BA0B620B730B16
:101BA000840BBAF09150A1F0FF0FBB1F661F771F87
:101BB000881FC2F70EC0BA0F621F731F841F48F43C
:101BC000879577956795B795F7959E3F08F0B3CFC2
:101BD0009395880F08F09927EE0F979587950895AC
:101BE000D9D008F481E008950CD00FC107D140F09E
:101BF000FED030F021F45F3F19F0F0C0511139C12F
:101C0000F3C014D198F39923C9F35523B1F3951B6D
:101C1000550BBB27AA2762177307840738F09F5F0D
:101C20005F4F220F331F441FAA1FA9F333D00E2E7C
:101C30003AF0E0E830D091505040E695001CCAF7E9
:101C400029D0FE2F27D0660F771F881FBB1F2617AE
:101C500037074807AB07B0E809F0BB0B802DBF0181
:101C6000FF2793585F4F2AF09E3F510568F0B6C09A
:101C700000C15F3FECF3983EDCF38695779567955E
:101C8000B795F7959F5FC9F7880F911D9695879532
:101C900097F90895E1E0660F771F881FBB1F621751
:101CA00073078407BA0720F0621B730B840BBA0B0F
:101CB000EE1F88F7E095089504D06894B111D9C05B
:101CC0000895BCD088F09F5790F0B92F9927B7514D
:101CD000A0F0D1F0660F771F881F991F1AF0BA95F0
:101CE000C9F712C0B13081F0C3D0B1E00895C0C0CF
:101CF000672F782F8827B85F39F0B93FCCF38695E6
:101D000077956795B395D9F73EF490958095709542
:101D100061957F4F8F4F9F4F0895E89409C097FBBF
:101D20003EF490958095709561957F4F8F4F9F4FB2
:101D30009923A9F0F92F96E9BB279395F6958795F6
:101D400077956795B795F111F8CFFAF4BB0F11F4B9
:101D500060FF1BC06F5F7F4F8F4F9F4F16C0882360
:101D600011F096E911C0772321F09EE8872F762F96
:101D700005C0662371F096E8862F70E060E02AF0D7
:101D80009A95660F771F881FDAF7880F96958795C3
:101D900097F90895990F0008550FAA0BE0E8FEEF98
:101DA00016161706E807F907C0F012161306E4071F
:101DB000F50798F0621B730B840B950B39F40A2618
:101DC00061F0232B242B252B21F408950A2609F4F6
:101DD000A140A6958FEF811D811D089597F99F67FA
:101DE00080E870E060E008959FEF80EC08950024A3
:101DF0000A941616170618060906089500240A9470
:101E000012161306140605060895092E0394000CF5
:101E100011F4882352F0BB0F40F4BF2B11F460FF84
:101E200004C06F5F7F4F8F4F9F4F089557FD9058AD
:101E3000440F551F59F05F3F71F04795880F97FB8E
:101E4000991F61F09F3F79F0879508951216130648
:101E50001406551FF2CF4695F1DF08C01616170677
:101E60001806991FF1CF86957105610508940895AC
:101E7000E894BB2766277727CB0197F908958ADF77
:101E800008F48FEF08950BD0C0CFB1DF28F0B6DF94
:101E900018F0952309F0A2CFA7CF1124EACFC6DF0F
:101EA000A0F3959FD1F3950F50E0551F629FF0016D
:101EB000729FBB27F00DB11D639FAA27F00DB11DC6
:101EC000AA1F649F6627B00DA11D661F829F22274F
:101ED000B00DA11D621F739FB00DA11D621F839FD6
:101EE000A00D611D221F749F3327A00D611D231FAC
:101EF000849F600D211D822F762F6A2F11249F57FA
:101F000050408AF0E1F088234AF0EE0FFF1FBB1F1C
:101F1000661F771F881F91505040A9F79E3F5105BB
:101F200070F05CCFA6CF5F3FECF3983EDCF3869574
:101F300077956795B795F795E7959F5FC1F7FE2B66
:101F4000880F911D9695879597F90895B7FF0CC056
:101F50000BD0821B930B0895EE0FFF1F881F8BBFC2
:101F60000790F691E02D199409D0A59F900DB49F8C
:101F7000900DA49F800D911D11240895A29FB00182
:101F8000B39FC001A39F700D811D1124911DB29FAD
:0E1F9000700D811D1124911D0895F894FFCF4E
:0C1F9E00FF0101010101FF01FF0101FF33
:00000001FF
