S00D0000536C6176652E737265631C
S113000072C0000008C200004AC200007FC20000A3
S1130010B4C2000020C30000E7C2000094C0000086
S113002092C000000C94F40C8EC000008CC0000040
S11300308AC0000088C0000086C0000084C00000A0
S113004082C0000080C000007EC000007CC00000B0
S11300507AC0000078C0000076C0000074C00000C0
S113006072C000008CC600006EC000006CC00000AE
S11300706AC0000068C0000066C0000064C00000E0
S113008062C0000060C000005EC000005CC00000F0
S113009086C6000058C0000056C0000054C00000CE
S11300A052C0000050C000000DC300004CC000004E
S11300B04AC0000048C0000046C0000044C0000020
S11300C042C0000040C000003EC0000078C60000EE
S11300D03AC0000038C0000082C6000034C00000EE
S11300E032C00000B10311241FBECFEFD1E2DEBF46
S11300F0CDBF00E00CBF12E0A0E0B2E0EEEDFEE107
S113010000E00BBF02C007900D92AC30B107D9F7E5
S113011022E0ACE0B2E001C01D92AB3FB207E1F7D0
S113012010E0C3E7D0E000E006C021970109802F6A
S1130130FE010E944C0FC237D10780E00807A9F7DF
S1130140E8D30C946D0F5CCFCF92DF92EF92FF92C5
S11301500F931F931092BD021092B9021092B8022D
S113016080E090E09C01220F331FF901E255FD4F1E
S113017011821082F901EA55FD4F1182108261E06B
S1130180680F86569D4F31D58091B8029091B9027F
S113019061E0680F9C01220F331F220F331F220FCF
S11301A0331F820F931F8A589D4F63D38091B802E7
S11301B09091B9029C01220F331F820F931F880F65
S11301C0991F880F991F880F991F0F2EF5E8CF2EBE
S11301D0FBEEDF2EF1E5EF2EFFE3FF2EF02D00E026
S11301E010E098014CE55FE86AE170E4845F9D4F9C
S11301F00AD58091B8029091B90201969093B90200
S11302008093B802843091050CF4ACCF61E081E7AF
S113021092E06ED362E08CE692E06AD31092BB0265
S11302201092BA021092BC021F910F91FF90EF90AE
S1130230DF90CF9008958F929F92AF92BF92CF920A
S1130240DF92EF92FF921F93CF93DF93CEEAD2E037
S11302500F2EF0E0CF2EF2E0DF2EF02D0F2EF6EB76
S11302608F2EF2E09F2EF02D7E016CEA72E0570192
S1130270E6EAF2E0D60180E090E0419151911D91CF
S113028014039001159F300D1124820F931FE6175C
S1130290F70799F7F50191838083F2E0EF0EF11CE3
S11302A083E0C80ED11CE814F90409F783E090E058
S11302B09093B7028093B6020F2EFEE9CF2EF2E0A0
S11302C0DF2EF02D0F2EFCE0EF2EF2E0FF2EF02DAE
S11302D069917991072E000C880B990B0E942F0EBF
S11302E020E030E04BEE53E40E94940D20E030E037
S11302F04AEA52E40E94E30E0E94FC0DF601619367
S113030071936F01F70175876487F8E1EF0EF11CB3
S1130310C815D905E9F684E090E09093B90280937A
S1130320B802DF91CF911F91FF90EF90DF90CF90B3
S1130330BF90AF909F908F9008958091BD028823C5
S1130340C9F11092B9021092B80280E090E0FC0169
S1130350EE0FFF1FEE0FFF1FEE0FFF1FE80FF91F39
S1130360EA58FD4F618172819C01220F331F820F75
S1130370931F880F991F880F991F880F991F845FF7
S11303809D4F5BD40E94FC0D2091B8023091B902BC
S1130390C90186569D4FEED38091B8029091B9025F
S11303A001969093B9028093B802843091057CF24F
S11303B01092BD020895E6EAF2E0118210821382DF
S11303C01282158214821782168284E090E0909340
S11303D0B9028093B8020895CF93DF93AEEAB2E0F6
S11303E0C6EAD2E0ECE0F2E086EB92E01D921D92C8
S11303F019921992148A158A168A178A7896A81758
S1130400B907A1F784E090E09093B9028093B80211
S1130410DF91CF9108951F920F920FB60F9211247E
S11304200BB60F928F939F93AF93BF93EF93FF936A
S113043000990EC0E6E7F2E085819681A781B08538
S11304400196A11DB11D85839683A783B0870DC036
S1130450E6E7F2E085819681A781B0850197A1093D
S1130460B10985839683A783B0878091BC028823D2
S113047049F08091BA029091BB0201969093BB021D
S11304808093BA02FF91EF91BF91AF919F918F91A9
S11304900F900BBE0F900FBE0F901F9018951F92D8
S11304A00F920FB60F9211240BB60F928F939F9356
S11304B0AF93BF93EF93FF9302990EC0E6E7F2E088
S11304C086859785A089B1890196A11DB11D86876E
S11304D09787A08BB18B0DC0E6E7F2E08685978500
S11304E0A089B1890197A109B10986879787A08B53
S11304F0B18BFF91EF91BF91AF919F918F910F902D
S11305000BBE0F900FBE0F901F9018951F920F9265
S11305100FB60F9211240BB60F928F939F93AF9344
S1130520BF93EF93FF93049B0EC0E6E7F2E0878945
S1130530908DA18DB28D0196A11DB11D878B908FD9
S1130540A18FB28F0DC0E6E7F2E08789908DA18D6F
S1130550B28D0197A109B109878B908FA18FB28FBA
S1130560FF91EF91BF91AF919F918F910F900BBE2F
S11305700F900FBE0F901F9018951F920F920FB6F9
S11305800F9211240BB60F928F939F93AF93BF9347
S1130590EF93FF93069B0EC0E6E7F2E080A191A1E2
S11305A0A2A1B3A10196A11DB11D80A391A3A2A3F1
S11305B0B3A30DC0E6E7F2E080A191A1A2A1B3A18B
S11305C00197A109B10980A391A3A2A3B3A3FF91A9
S11305D0EF91BF91AF919F918F910F900BBE0F90B0
S11305E00FBE0F901F9018951F920F920FB60F9287
S11305F011240BB60F928F939F93AF93BF93EF93F6
S1130600FF9337990EC0E1E7F2E081819281A381E3
S1130610B4810196A11DB11D81839283A383B48308
S11306200DC0E1E7F2E081819281A381B481019759
S1130630A109B10981839283A383B483FF91EF91CC
S1130640BF91AF919F918F910F900BBE0F900FBEF2
S11306500F901F9018951F920F920FB60F921124AE
S11306600BB60F928F939F93AF93BF93EF93FF9328
S113067035990EC0ECE6F2E081819281A381B481C8
S11306800196A11DB11D81839283A383B4830DC000
S1130690ECE6F2E081819281A381B4810197A10902
S11306A0B10981839283A383B483FF91EF91BF91B6
S11306B0AF919F918F910F900BBE0F900FBE0F9033
S11306C01F9018951F920F920FB60F9211240BB61C
S11306D00F928F939F93AF93BF93EF93FF93E6E7AC
S11306E0F2E085819681A781B08581839283A3837B
S11306F0B483158216821782108686859785A08911
S1130700B18982879387A487B58716861786108A4E
S1130710118A8789908DA18DB28D838B948BA58B43
S1130720B68B178A108E118E128E80A191A1A2A170
S1130730B3A1848F958FA68FB78F10A211A212A296
S113074013A281E08093BD02FF91EF91BF91AF911D
S11307509F918F910F900BBE0F900FBE0F901F9023
S11307601895E6E7F2E08AE992E011821282138298
S1130770148215821682178210863996E817F907B3
S1130780A1F71092720210927302109274021092E6
S1130790750210926D0210926E0210926F02109206
S11307A07002ECE0F2E08CE692E010821182128298
S11307B0138214821582168217821086118612867D
S11307C013861586148617861686118A108A138A4C
S11307D0128A7896E817F90741F708957894FC018E
S11307E08081813049F4E898E9E6F0E08081826014
S11307F08083E89AE09A0895823049F4E998E9E61A
S1130800F0E0808188608083E99AE19A08958330DA
S113081049F4EA98E9E6F0E0808180628083EA9A0C
S1130820E29A0895843041F4EB98E9E6F0E080819F
S113083080688083EB9AE39A08958091BE028111C7
S113084017C0E1EAF0E080818B608083E2E7F0E0AA
S11308508081826080838CE49DE19093A9008093E1
S1130860A8001092A5001092A40081E08093BE021B
S11308700895CF93DF93EC016883613029F4509895
S11308800898589A109A14C0623029F451980A981A
S1130890599A129A0DC0633029F452980C985A9AB6
S11308A0149A06C0643021F453980E985B9A169AF1
S11308B0CE0194DFCE01C1DFDF91CF910895FC0119
S11308C08081813049F4ED98EAE6F0E08081886027
S11308D08083ED9AE59A0AC0823041F4EC98EAE606
S11308E0F0E0808182608083EC9AE49A78940895A1
S11308F0FC016083613029F46D983F98759A479A9A
S113090006C0623021F46C983D98749A459AD7CF0A
S1130910089509D214D21FD217DC75D4789480912B
S1130920BF02882311F0C0D401C01CD384DC05DDD0
S1130930F6CFFC0180818130F1F4E7E0F1E08081C1
S113094082608083808181608083EAE0F1E080813D
S113095088608083E0E2F1E0808182688083E1E264
S1130960F1E080818A61808389EF90E09093270190
S11309708093260108958230F1F4E7E0F1E080816C
S113098088608083808184608083EAE0F1E08081F4
S113099080618083E0E2F1E0808182628083E1E231
S11309A0F1E080818A61808389EF90E09093270150
S11309B08093260108958330F1F4E7E0F1E080812B
S11309C080618083808180628083EAE0F1E08081BD
S11309D080628083E0E2F1E080818A608083E1E2EA
S11309E0F1E080818A61808389EF90E09093270110
S11309F08093260108958430C9F4E7E0F1E0808112
S1130A00806480838081806880836B9AE0E9F0E071
S1130A10808182688083E1E9F0E080818A6180835B
S1130A2089EF90E090939700809396000895FC01DD
S1130A308081823091F018F4813031F00895833050
S1130A40A9F08430E1F00895E8E0F1E0808182606B
S1130A50808380818E7F80830895E8E0F1E0808147
S1130A608860808380818B7F80830895E8E0F1E053
S1130A7080818061808380818F7D80830895E8E018
S1130A80F1E080818064808380818F778083089502
S1130A90FC018081823091F018F4813031F00895A6
S1130AA08330A9F08430E1F00895E8E0F1E080813A
S1130AB08D7F80838081816080830895E8E0F1E008
S1130AC08081877F80838081846080830895E8E0CB
S1130AD0F1E080818F7E80838081806280830895AD
S1130AE0E8E0F1E080818F7B80838081806880836F
S1130AF00895FC0180818230B1F018F4813031F026
S1130B0008958330E9F0843041F10895E8E0F1E09C
S1130B1080818D7F808380818E7F808310922901E4
S1130B20109228010895E8E0F1E08081877F8083B6
S1130B3080818B7F808310922B0110922A0108956B
S1130B40E8E0F1E080818F7E808380818F7D8083E7
S1130B5010922D0110922C010895E8E0F1E08081BB
S1130B608F7B808380818F7780831092990010928D
S1130B70980008950F931F93CF93DF938C01EB019B
S1130B801C161D060CF453DFDD232CF4D195C195FE
S1130B90D109C8017DDFCA3FD10514F0C9EFD0E007
S1130BA0F8018081823071F018F4813031F018C07E
S1130BB0833069F0843081F013C0D0932901C0934D
S1130BC028010EC0D0932B01C0932A0109C0D093F1
S1130BD02D01C0932C0104C0D0939900C0939800B8
S1130BE0DF91CF911F910F910895CF93DF93EC0183
S1130BF068839FDECE017DDF60E070E0CE01BADF66
S1130C00DF91CF910895CF92DF92EF92FF920F93ED
S1130C101F93FC0140835183628373830483158390
S1130C2026833783C086D186E286F3861F910F918F
S1130C30FF90EF90DF90CF9008958F929F92AF92A4
S1130C40BF92EF92FF920F931F93CF93DF93EC0128
S1130C507B016C857D858B010E191F091F870E870B
S1130C608A899B89800F911F8E3791052CF08DE71F
S1130C7090E09B8B8A8B0BC083382FEF92071CF07C
S1130C809B8B8A8B04C083E89FEF9B8B8A8B6A893A
S1130C907B89072E000C880B990BE1D72C813D81B1
S1130CA04E815F810E94E30E4B015C01B801110F7C
S1130CB0880B990BD4D7288139814A815B810E94A2
S1130CC0E30E9B01AC01C501B401C6D64B015C0126
S1130CD088899989B701681B790B072E000C880B4A
S1130CE0990BBDD7288539854A855B850E94E30E1B
S1130CF09B01AC01C501B401AED62C893D894E8956
S1130D005F89AAD66C8B7D8B8E8B9F8BF98AE88A40
S1130D10DF91CF911F910F91FF90EF90BF90AF9013
S1130D209F908F9008951092C50087E68093C40029
S1130D3088E98093C10086E08093C20008951092F0
S1130D40D50087E68093D40088E98093D10086E0BB
S1130D508093D20008951092350189E18093340183
S1130D6088E98093310186E0809332010895E0E3BD
S1130D70F1E0908195FFFDCF8093360108951F9295
S1130D800F920FB60F9211248F938091C600809317
S1130D90C8028F910F900FBE0F901F9018951F924D
S1130DA00F920FB60F9211248F938091CE008093EF
S1130DB0C7028F910F900FBE0F901F9018951F922E
S1130DC00F920FB60F9211248F938091D6008093C7
S1130DD0C6028F910F900FBE0F901F9018951F920F
S1130DE00F920FB60F9211240BB60F928F939F930D
S1130DF0EF93FF93809136018093C5029091C002D6
S1130E00992389F09091C102E92FF0E0EE53FD4F50
S1130E1080839F5F943018F49093C10204C01092B1
S1130E20C1021092C0028D3F31F481E08093C00270
S1130E301092BF0207C08E3F29F481E08093C00264
S1130E408093BF02FF91EF919F918F910F900BBE02
S1130E500F900FBE0F901F90189583E08093CA02E5
S1130E608093C9028AEB99E0A0E0B0E08093DC02B1
S1130E709093DD02A093DE02B093DF021092D802B9
S1130E801092D9021092DA021092DB02E2ECF2E044
S1130E9082E38083818382838CE390E09093F702E2
S1130EA08093F6021092F9021092F8021092E00276
S1130EB01092E1021092E2021092E3021092F20206
S1130EC01092F3021092F4021092F5021092EE02C4
S1130ED01092EF021092F0021092F10289E190E078
S1130EE09093ED028093EC021092E8021092E902D2
S1130EF01092EA021092EB021092E4021092E502C0
S1130F001092E6021092E7021092D30281E08093DD
S1130F10FA021092720210927302109274021092EA
S1130F20750210926D0210926E0210926F0210926E
S1130F3070021092D7021092D6021092D40210922C
S1130F40D5021092D2021092D1021092D0021092C5
S1130F50CF021092CE021092CD021092CC021092C7
S1130F60CB020895EF92FF920F931F93CF93DF93D9
S1130F7006EA12E00F2EF2ECEF2EF2E0FF2EF02D37
S1130F80F7018081C2E3D0E0BE01681B7109072E1E
S1130F90000C880B990B63D620E030E048E452E45F
S1130FA0C3D520E030E047ED53E40DD725D6F80152
S1130FB071836083F701618170E062537109072EC8
S1130FC0000C880B990B4BD620E030E048E452E447
S1130FD0ABD520E030E047ED53E4F5D60DD6F8016B
S1130FE073836283F7018281C81BD109BE01DD0FBF
S1130FF0880B990B34D620E030E048E452E494D5D1
S113100020E030E048EC52E4DED6F6D5F8017583F2
S113101064838091D202811120DFDF91CF911F91EF
S11310200F91FF90EF900895CF92DF92EF92FF928D
S11310308091CA0290E02091C902821B910912F0AA
S113104021E001C02FEF2093FA0210927202109255
S113105073021092740210927502E6EAF2E08FE0D5
S113106090E0918380831582148281E08093D7027B
S11310704091D8025091D9026091DA027091DB025A
S11310808091DC029091DD02A091DE02B091DF023A
S1131090481B590B6A0B7B0BDB01CA013AF4882706
S11310A09927DC01841B950BA60BB70B8093E002F8
S11310B09093E102A093E202B093E30288329A4053
S11310C0A105B10594F04EEA51E02403C001259F27
S11310D0900D11249093F9028093F80287E390E035
S11310E09093ED028093EC020EC03AEF2303C0010B
S11310F011249093F9028093F80289E190E090938F
S1131100ED028093EC026091E0027091E102809123
S1131110E2029091E302A3D56B017C0124EA30E75B
S113112049E151E401D56093E8027093E9028093A8
S1131130EA029093EB022DEC3CEC4CE450E4C70142
S1131140B601F2D46093E4027093E5028093E60260
S11311509093E7028091D8029091D902A091DA028B
S1131160B091DB028093DC029093DD02A093DE0257
S1131170B093DF02FF90EF90DF90CF9008958091BD
S1131180CA02813099F48093D50285E08093C90224
S11311908EEF9CEFAFEFBFEF8093D8029093D9020C
S11311A0A093DA02B093DB023FCF08959091D50269
S11311B0992391F0853081F482E08093C9028BE811
S11311C094E2A0E0B0E08093D8029093D902A09377
S11311D0DA02B093DB0228CF0895CF93C82F8CEFA7
S11311E0C6DD8C2FC4DDCF910895F894E8E6F0E0D5
S11311F0808181608083D89AEBE6F0E08081806111
S11312008083789408951092BF02249826DEEDCF4F
S113121008951092E0021092E1021092E2021092FC
S1131220E3021092D7021092CB021092D302809163
S1131230CA02833031F48091C9028430F9F4CDDFDD
S11312401DC08530D9F48091C9028230B9F410925E
S11312506D0210926E0210926F021092700281E081
S11312608093D002E6EAF2E02EE73FEF3183208359
S113127013821282158214828093CD021092CC02C2
S11312808091D502882319F08091C902A6DF80914C
S1131290C9028093CA0210927202109273021092D1
S11312A074021092750208954F925F926F927F922A
S11312B08F929F92AF92BF92CF92DF92EF92FF9262
S11312C01F93CF93DF9300D01F92CDB7DEB78091E9
S11312D0D70281116AC38091D60281116BC38091B8
S11312E0C202853059F4E6EAF2E084EC9FEF918380
S11312F0808313821282158214825BC0863059F473
S1131300E6EAF2E08CE390E0918380831382128218
S1131310158214824EC08091D502811101C04BD830
S11313208091C202813079F484E08093C9021092E2
S1131330D8021092D9021092DA021092DB0274DE03
S11313401092C20236C0823091F48093C9028BE8B5
S113135094E2A0E0B0E08093D8029093D902A093E5
S1131360DA02B093DB0260DE1092C20222C0833044
S113137099F481E08093C90287E39DE2A0E0B0E0A4
S11313808093D8029093D902A093DA02B093DB023F
S11313904BDE1092C2020DC0843031F481E08093A0
S11313A0D6021092C20205C0873019F4E8DE10920A
S11313B0C2028091D502882309F486C08091CE02AE
S11313C0882379F180916D0290916E02A0916F0251
S11313D0B0917002181619061A061B0644F421E08F
S11313E088399840A105B10584F420E00EC0B09579
S11313F0A095909581959F4FAF4FBF4F21E08839BD
S11314009840A105B1050CF420E0222351F00E947C
S1131410DB011092CF021092CD0289E0DEDE109241
S1131420D5028091CF02882339F18091BA0290913C
S1131430BB028E39924000F11092CF0281E080937A
S1131440CE02E6EAF2E08CE99FEF918380838EE19D
S113145090E0938382831582148210926D0210921D
S11314606E0210926F02109270021092BB021092E0
S1131470BA021092BC0228C08091D002882321F1C4
S113148080916D0290916E02A0916F02B0917002F2
S11314908C3D9105A105B105BCF00E94DB011092C1
S11314A0D00281E08093CF028093BC021092BB02F1
S11314B01092BA02E6EAF2E01182108213821282DA
S11314C08CE99FEF958384838091D702882309F464
S11314D0BAC18091D30281114CC08091FA02E0908C
S11314E0F802F090F902C82E082E000CDD08B701AE
S11314F030E58302601971091124072E000C880B52
S1131500990BADD32091E8023091E9024091EA02AF
S11315105091EB0209D36093F2027093F30280932B
S1131520F4029093F5028091EC029091ED02C89E32
S1131530B001C99E700DD89E700D11246E197F09DB
S1131540072E000C880B990B8AD32091E40230916A
S1131550E5024091E6025091E702E6D26093EE0282
S11315607093EF028093F0029093F10281E08093F4
S1131570D3028091CC0281114CDEC0907202D090D3
S11315807302E0907402F09075028090E0029090F3
S1131590E102A090E202B090E302D701C601FF206D
S11315A03CF488279927DC018C199D09AE09BF09F1
S11315B088159905AA05BB05F4F08091CA02833009
S11315C029F48091C902843091F406C0813079F401
S11315D08091C902853059F4E6EAF2E01182108262
S11315E087EE9FEF93838283158214822CC10E941D
S11315F0EC010FDE28C11C141D041E041F04B4F4E6
S1131600C701B6012CD369837A838B839C83409072
S1131610E8025090E9026090EA027090EB02A301A4
S11316209201CDD388230CF43DC019C066277727D7
S1131630CB016C197D098E099F0911D369837A83C3
S11316408B839C834090E8025090E9026090EA0208
S11316507090EB02A3019201B2D3882384F1C501F7
S1131660B401FDD22091E4023091E5024091E602FA
S11316705091E702F0D19B01AC0169817A818B81A1
S11316809C814ED218164CF08091F8029091F90288
S11316909093A9028093A802D6C01C141D041E04B2
S11316A01F046CF4C701B601DAD269837A838B8391
S11316B09C83A301920134D21816A4F439C066277E
S11316C07727CB016C197D098E099F09C8D26983DC
S11316D07A838B839C839B01AC01C301B2016FD3DA
S11316E0882334F1C701B601BAD22091F2023091B5
S11316F0F3024091F4025091F50265D320E030E00A
S113170040EA52E4A9D16B017C016091FA02062EF1
S1131710000C770B880B990BA2D29B01AC01C7017B
S1131720B60151D369D27093A9026093A8028BC009
S1131730C501B40194D22091E4023091E5024091B4
S1131740E6025091E70287D19B01AC0169817A815D
S11317508B819C8134D388230CF475C08091CB0297
S1131760811114C08091CA02833029F48091C90286
S1131770843049F406C0813031F48091C902853047
S113178011F48AE02ADD81E08093CB021091FA0201
S11317902091EC023091ED0212037001139FF00CC2
S11317A01124B7010F2C000C880B990B58D24B0154
S11317B05C018091F8029091F902D701A81BB90B42
S11317C02091E0023091E1024091E2025091E30263
S11317D05DD345D22091E4023091E5024091E602C6
S11317E05091E702A1D19B01AC01C501B40133D1F1
S11317F06B017C01612F110F770B880B990B2FD292
S11318002091EE023091EF024091F0025091F102EA
S1131810DAD24B015C016091720270917302809183
S11318207402909175021BD29B01AC01C501B401F5
S1131830CAD29B01AC01C701B6010ED1DDD17093B0
S1131840A9026093A8028091D602882309F4A9C052
S11318508091C402811110C0E6EAF2E08091F602A0
S11318609091F702919581959109918380831382D8
S11318701282158214828BC0813099F4E6EAF2E078
S113188011821082138212828091F6029091F702E3
S11318909195819591099583848381E08093D40205
S11318A07AC0823081F4E6EAF2E011821082138277
S11318B012828091F6029091F7029583848381E0ED
S11318C08093D40268C0843099F4E6EAF2E080910F
S11318D0F6029091F7029195819591099183808305
S11318E0138212821582148281E08093D40253C041
S11318F0833081F4E6EAF2E0118210828091F602EC
S11319009091F702938382831582148281E08093FD
S1131910D40241C0853099F4E6EAF2E011821082E3
S1131920138212828091F6029091F702919581952B
S113193091099583848381E08093D4022CC08630FE
S113194081F4E6EAF2E0118210821382128280911D
S1131950F6029091F7029583848381E08093D40208
S11319601AC08730A1F40E94DB011092D4028CE3E8
S113197090E09093F7028093F6021092D602809141
S1131980D102882371F088E028DC1092D102809182
S1131990D402882331F084E190E09093F70280939D
S11319A0F60281E08093D2020BC08091D5028111AE
S11319B005CD8FCD8091D502882309F449CFFECC83
S11319C00F900F900F900F90DF91CF911F91FF9088
S11319D0EF90DF90CF90BF90AF909F908F907F90CB
S11319E06F905F904F9008951F920F920FB60F92D1
S11319F011240BB60F922F933F934F935F936F93E2
S1131A007F938F939F93AF93BF93EF93FF938091B3
S1131A10D702882369F08091D602811109C0809190
S1131A20CD02811105C00E94EC0181E08093CC02BB
S1131A30FF91EF91BF91AF919F918F917F916F91A2
S1131A405F914F913F912F910F900BBE0F900FBE5E
S1131A500F901F9018955058BB27AA270ED075C118
S1131A6066D130F06BD120F031F49F3F11F41EF4B5
S1131A705BC10EF4E095E7FB51C1E92F77D180F308
S1131A80BA17620773078407950718F071F49EF577
S1131A908FC10EF4E0950B2EBA2FA02D0B01B901C6
S1131AA090010C01CA01A0011124FF27591B99F0D0
S1131AB0593F50F4503E68F11A16F040A22F232FDC
S1131AC0342F4427585FF3CF469537952795A7952C
S1131AD0F0405395C9F77EF41F16BA0B620B730BD3
S1131AE0840BBAF09150A1F0FF0FBB1F661F771F44
S1131AF0881FC2F70EC0BA0F621F731F841F48F4F9
S1131B00879577956795B795F7959E3F08F0B3CF7E
S1131B109395880F08F09927EE0F97958795089568
S1131B20D9D008F481E008950CD00FC107D140F05A
S1131B30FED030F021F45F3F19F0F0C0511139C1EB
S1131B40F3C014D198F39923C9F35523B1F3951B2A
S1131B50550BBB27AA2762177307840738F09F5FCA
S1131B605F4F220F331F441FAA1FA9F333D00E2E39
S1131B703AF0E0E830D091505040E695001CCAF7A6
S1131B8029D0FE2F27D0660F771F881FBB1F26176B
S1131B9037074807AB07B0E809F0BB0B802DBF013E
S1131BA0FF2793585F4F2AF09E3F510568F0B6C057
S1131BB000C15F3FECF3983EDCF38695779567951B
S1131BC0B795F7959F5FC9F7880F911D96958795EF
S1131BD097F90895E1E0660F771F881FBB1F62170E
S1131BE073078407BA0720F0621B730B840BBA0BCC
S1131BF0EE1F88F7E095089504D06894B111D9C018
S1131C000895BCD088F09F5790F0B92F9927B75109
S1131C10A0F0D1F0660F771F881F991F1AF0BA95AC
S1131C20C9F712C0B13081F0C3D0B1E00895C0C08B
S1131C30672F782F8827B85F39F0B93FCCF38695A2
S1131C4077956795B395D9F73EF4909580957095FF
S1131C5061957F4F8F4F9F4F0895E89409C097FB7C
S1131C603EF490958095709561957F4F8F4F9F4F6F
S1131C709923A9F0F92F96E9BB279395F6958795B3
S1131C8077956795B795F111F8CFFAF4BB0F11F476
S1131C9060FF1BC06F5F7F4F8F4F9F4F16C088231D
S1131CA011F096E911C0772321F09EE8872F762F53
S1131CB005C0662371F096E8862F70E060E02AF094
S1131CC09A95660F771F881FDAF7880F9695879580
S1131CD097F90895990F0008550FAA0BE0E8FEEF55
S1131CE016161706E807F907C0F012161306E407DC
S1131CF0F50798F0621B730B840B950B39F40A26D5
S1131D0061F0232B242B252B21F408950A2609F4B2
S1131D10A140A6958FEF811D811D089597F99F67B6
S1131D2080E870E060E008959FEF80EC089500245F
S1131D300A941616170618060906089500240A942C
S1131D4012161306140605060895092E0394000CB2
S1131D5011F4882352F0BB0F40F4BF2B11F460FF41
S1131D6004C06F5F7F4F8F4F9F4F089557FD90586A
S1131D70440F551F59F05F3F71F04795880F97FB4B
S1131D80991F61F09F3F79F0879508951216130605
S1131D901406551FF2CF4695F1DF08C01616170634
S1131DA01806991FF1CF8695710561050894089569
S1131DB0E894BB2766277727CB0197F908958ADF34
S1131DC008F48FEF08950BD0C0CFB1DF28F0B6DF51
S1131DD018F0952309F0A2CFA7CF1124EACFC6DFCC
S1131DE0A0F3959FD1F3950F50E0551F629FF0012A
S1131DF0729FBB27F00DB11D639FAA27F00DB11D83
S1131E00AA1F649F6627B00DA11D661F829F22270B
S1131E10B00DA11D621F739FB00DA11D621F839F92
S1131E20A00D611D221F749F3327A00D611D231F68
S1131E30849F600D211D822F762F6A2F11249F57B6
S1131E4050408AF0E1F088234AF0EE0FFF1FBB1FD9
S1131E50661F771F881F91505040A9F79E3F510578
S1131E6070F05CCFA6CF5F3FECF3983EDCF3869531
S1131E7077956795B795F795E7959F5FC1F7FE2B23
S1131E80880F911D9695879597F90895B7FF0CC013
S1131E900BD0821B930B0895EE0FFF1F881F8BBF7F
S1131EA00790F691E02D199409D0A59F900DB49F49
S1131EB0900DA49F800D911D11240895A29FB0013F
S1131EC0B39FC001A39F700D811D1124911DB29F6A
S1111ED0700D811D1124911D0895F894FFCF0B
S10F1EDEFF0101010101FF01FF0101FFF0
S9030000FC
