S00D0000536C6176652E737265631C
S113000072C0000017C2000059C200008EC2000076
S1130010C3C200002FC30000F6C2000094C0000059
S113002092C000000C94840D8EC000008CC00000AF
S11300308AC0000088C0000086C0000084C00000A0
S113004082C0000080C000007EC000007CC00000B0
S11300507AC0000078C0000076C0000074C00000C0
S113006072C0000099C600006EC000006CC00000A1
S11300706AC0000068C0000066C0000064C00000E0
S113008062C0000060C000005EC000005CC00000F0
S113009093C6000058C0000056C0000054C00000C1
S11300A052C0000050C000001CC300004CC000003F
S11300B04AC0000048C0000046C0000044C0000020
S11300C042C0000040C000003EC0000085C60000E1
S11300D03AC0000038C000008FC6000034C00000E1
S11300E032C00000C00311241FBECFEFD1E2DEBF37
S11300F0CDBF00E00CBF12E0A0E0B2E0E0E1F0E22E
S113010000E00BBF02C007900D92AC30B107D9F7E5
S113011022E0ACE0B2E001C01D92AE3FB207E1F7CD
S113012010E0C3E7D0E000E006C021970109802F6A
S1130130FE010E94E50FC237D10780E00807A9F746
S1130140F7D30C9406105CCFCF92DF92EF92FF921C
S11301500F931F931092BD021092B9021092B8022D
S113016080E090E09C01220F331FF901E255FD4F1E
S113017011821082F901EA55FD4F1182108261E06B
S1130180680F86569D4F40D58091B8029091B90270
S113019061E0680F9C01220F331F220F331F220FCF
S11301A0331F820F931F8A589D4F72D38091B802D8
S11301B09091B9029C01220F331F820F931F880F65
S11301C0991F880F991F880F991F0F2EF5E8CF2EBE
S11301D0FBEEDF2EF1E5EF2EFFE3FF2EF02D00E026
S11301E010E098014CE55FE86AE170E4845F9D4F9C
S11301F019D58091B8029091B90201969093B902F1
S11302008093B802843091050CF4ACCF61E081E7AF
S113021092E07DD362E08CE692E079D31092BB0247
S11302201092BA021092BC021F910F91FF90EF90AE
S1130230DF90CF9008952F923F925F926F928F92AA
S11302409F92AF92BF92CF92DF92EF92FF921F9351
S1130250CF93DF93CEEAD2E00F2EF0E0CF2EF2E080
S1130260DF2EF02D0F2EF6EB2F2EF2E03F2EF02D89
S11302707E010F2EF6EA8F2EF2E09F2EF02D6CEA0F
S113028072E0512C612C5701F401D601852D962D75
S1130290419151911D9114039001159F300D11242A
S11302A0820F931FE617F70799F7F501918380836F
S11302B0F2E0EF0EF11C83E0C80ED11CE214F3044B
S11302C011F783E090E09093B7028093B6020F2E6B
S11302D0FEE9CF2EF2E0DF2EF02D0F2EFCE0EF2E04
S11302E0F2E0FF2EF02D69917991072E000C880B16
S11302F0990B0E94C80E20E030E04BEE53E40E94BC
S11303002D0E20E030E04AEA52E40E947C0F0E9465
S1130310950EF601619371936F01F70175876487F8
S1130320F8E1EF0EF11CC215D305E9F684E090E084
S11303309093B9028093B802DF91CF911F91FF90FF
S1130340EF90DF90CF90BF90AF909F908F906F9081
S11303505F903F902F9008958091BD028823C9F14A
S11303601092B9021092B80280E090E0FC01EE0F06
S1130370FF1FEE0FFF1FEE0FFF1FE80FF91FEA58D4
S1130380FD4F618172819C01220F331F820F931FE5
S1130390880F991F880F991F880F991F845F9D4F9D
S11303A05BD40E94950E2091B8023091B902C90124
S11303B086569D4FEED38091B8029091B902019672
S11303C09093B9028093B802843091057CF2109224
S11303D0BD020895E6EAF2E01182108213821282CD
S11303E0158214821782168284E090E09093B902F9
S11303F08093B8020895CF93DF93AEEAB2E0C6EAE1
S1130400D2E0ECE0F2E086EB92E01D921D921992AC
S11304101992148A158A168A178A7896A817B90722
S1130420A1F784E090E09093B9028093B802DF9141
S1130430CF9108951F920F920FB60F9211240BB60D
S11304400F928F939F93AF93BF93EF93FF93009972
S11304500EC0E6E7F2E085819681A781B08501961A
S1130460A11DB11D85839683A783B0870DC0E6E7E0
S1130470F2E085819681A781B0850197A109B10930
S113048085839683A783B0878091BC02882349F033
S11304908091BA029091BB0201969093BB02809323
S11304A0BA02FF91EF91BF91AF919F918F910F90FD
S11304B00BBE0F900FBE0F901F9018951F920F92B6
S11304C00FB60F9211240BB60F928F939F93AF9395
S11304D0BF93EF93FF9302990EC0E6E7F2E086859F
S11304E09785A089B1890196A11DB11D868797873B
S11304F0A08BB18B0DC0E6E7F2E086859785A089D5
S1130500B1890197A109B10986879787A08BB18B1F
S1130510FF91EF91BF91AF919F918F910F900BBE7F
S11305200F900FBE0F901F9018951F920F920FB649
S11305300F9211240BB60F928F939F93AF93BF9397
S1130540EF93FF93049B0EC0E6E7F2E08789908D5A
S1130550A18DB28D0196A11DB11D878B908FA18FA6
S1130560B28F0DC0E6E7F2E08789908DA18DB28D40
S11305700197A109B109878B908FA18FB28FFF9149
S1130580EF91BF91AF919F918F910F900BBE0F9000
S11305900FBE0F901F9018951F920F920FB60F92D7
S11305A011240BB60F928F939F93AF93BF93EF9346
S11305B0FF93069B0EC0E6E7F2E080A191A1A2A101
S11305C0B3A10196A11DB11D80A391A3A2A3B3A3BE
S11305D00DC0E6E7F2E080A191A1A2A1B3A1019729
S11305E0A109B10980A391A3A2A3B3A3FF91EF91A1
S11305F0BF91AF919F918F910F900BBE0F900FBE43
S11306000F901F9018951F920F920FB60F921124FE
S11306100BB60F928F939F93AF93BF93EF93FF9378
S113062037990EC0E1E7F2E081819281A381B48120
S11306300196A11DB11D81839283A383B4830DC050
S1130640E1E7F2E081819281A381B4810197A1095C
S1130650B10981839283A383B483FF91EF91BF9106
S1130660AF919F918F910F900BBE0F900FBE0F9083
S11306701F9018951F920F920FB60F9211240BB66C
S11306800F928F939F93AF93BF93EF93FF933599FB
S11306900EC0ECE6F2E081819281A381B4810196DF
S11306A0A11DB11D81839283A383B4830DC0ECE6A5
S11306B0F2E081819281A381B4810197A109B109FA
S11306C081839283A383B483FF91EF91BF91AF9110
S11306D09F918F910F900BBE0F900FBE0F901F90A4
S11306E018951F920F920FB60F9211240BB60F920A
S11306F08F939F93AF93BF93EF93FF93E6E7F2E05B
S113070085819681A781B08581839283A383B483F5
S1130710158216821782108686859785A089B189ED
S113072082879387A487B58716861786108A118ACD
S11307308789908DA18DB28D838B948BA58BB68B7D
S1130740178A108E118E128E80A191A1A2A1B3A13D
S1130750848F958FA68FB78F10A211A212A213A215
S113076081E08093BD02FF91EF91BF91AF919F9182
S11307708F910F900BBE0F900FBE0F901F90189586
S1130780E6E7F2E08AE992E011821282138214828F
S113079015821682178210863996E817F907A1F791
S11307A010927202109273021092740210927502E7
S11307B010926D0210926E0210926F0210927002EB
S11307C0ECE0F2E08CE692E0108211821282138255
S11307D01482158216821782108611861286138659
S11307E01586148617861686118A108A138A128A29
S11307F07896E817F90741F708957894FC01808109
S1130800813049F4E898E9E6F0E0808182608083F1
S1130810E89AE09A0895823049F4E998E9E6F0E02C
S1130820808188608083E99AE19A0895833049F44D
S1130830EA98E9E6F0E0808180628083EA9AE29AAD
S11308400895843041F4EB98E9E6F0E08081806813
S11308508083EB9AE39A08958091BE02811117C0B8
S1130860E1EAF0E080818B608083E2E7F0E0808160
S1130870826080838CE49DE19093A9008093A8001A
S11308801092A5001092A40081E08093BE02089506
S1130890CF93DF93EC016883613029F45098089872
S11308A0589A109A14C0623029F451980A98599AA7
S11308B0129A0DC0633029F452980C985A9A149ADB
S11308C006C0643021F453980E985B9A169ACE01B0
S11308D094DFCE01C1DFDF91CF910895FC018081C7
S11308E0813049F4ED98EAE6F0E080818860808305
S11308F0ED9AE59A0AC0823041F4EC98EAE6F0E019
S1130900808182608083EC9AE49A78940895FC0153
S11309106083613029F46D983F98759A479A06C0B0
S1130920623021F46C983D98749A459AD7CF089513
S113093007D212D21DD208DC89D478948091BF02E8
S1130940882311F0C2D401C022D375DC05DDF6CFB3
S1130950FC0180818130F1F4E7E0F1E08081826084
S11309608083808181608083EAE0F1E08081886017
S11309708083E0E2F1E0808182688083E1E2F1E05B
S113098080818A61808389EF90E09093270180932E
S1130990260108958230F1F4E7E0F1E08081886077
S11309A08083808184608083EAE0F1E080818061DB
S11309B08083E0E2F1E0808182628083E1E2F1E021
S11309C080818A61808389EF90E0909327018093EE
S11309D0260108958330F1F4E7E0F1E0808180613D
S11309E08083808180628083EAE0F1E0808180629C
S11309F08083E0E2F1E080818A608083E1E2F1E0DB
S1130A0080818A61808389EF90E0909327018093AD
S1130A10260108958430C9F4E7E0F1E08081806420
S1130A2080838081806880836B9AE0E9F0E0808134
S1130A3082688083E1E9F0E080818A61808389EFC4
S1130A4090E090939700809396000895FC01808134
S1130A50823091F018F4813031F008958330A9F098
S1130A608430E1F00895E8E0F1E0808182608083E1
S1130A7080818E7F80830895E8E0F1E08081886042
S1130A80808380818B7F80830895E8E0F1E080811A
S1130A908061808380818F7D80830895E8E0F1E028
S1130AA080818064808380818F7780830895FC01B6
S1130AB08081823091F018F4813031F008958330D0
S1130AC0A9F08430E1F00895E8E0F1E080818D7FC1
S1130AD080838081816080830895E8E0F1E08081F3
S1130AE0877F80838081846080830895E8E0F1E0DB
S1130AF080818F7E80838081806280830895E8E096
S1130B00F1E080818F7B8083808180688083089579
S1130B10FC0180818230B1F018F4813031F0089505
S1130B208330E9F0843041F10895E8E0F1E0808118
S1130B308D7F808380818E7F808310922901109223
S1130B4028010895E8E0F1E08081877F8083808137
S1130B508B7F808310922B0110922A010895E8E084
S1130B60F1E080818F7E808380818F7D80831092ED
S1130B702D0110922C010895E8E0F1E080818F7B33
S1130B80808380818F7780831092990010929800DF
S1130B9008950F931F93CF93DF938C01EB011C16E1
S1130BA01D060CF453DFDD232CF4D195C195D10936
S1130BB0C8017DDFCA3FD10514F0C9EFD0E0F801C8
S1130BC08081823071F018F4813031F018C08330A4
S1130BD069F0843081F013C0D0932901C0932801B7
S1130BE00EC0D0932B01C0932A0109C0D0932D01CC
S1130BF0C0932C0104C0D0939900C0939800DF9156
S1130C00CF911F910F910895CF93DF93EC016883E7
S1130C109FDECE017DDF60E070E0CE01BADFDF91C0
S1130C20CF910895CF92DF92EF92FF920F931F938B
S1130C30FC01408351836283738304831583268379
S1130C403783C086D186E286F3861F910F91FF9089
S1130C50EF90DF90CF900895CF92DF92EF92FF92C2
S1130C600F931F93CF93DF93EC018B016C857D85EC
S1130C70601B710B7F876E878A899B89860F971FFC
S1130C808E3791052CF08DE790E09B8B8A8B0BC0FF
S1130C9083382FEF92071CF09B8B8A8B04C083E868
S1130CA09FEF9B8B8A8B072E000C880B990B0E945D
S1130CB0C80E288139814A815B810E947C0F6B01B7
S1130CC07C018A899B89BC01990F880B990B0E942E
S1130CD0C80E2C813D814E815F810E947C0F9B0157
S1130CE0AC01C701B60151D76B017C018889998990
S1130CF09801281B390BB901330F880B990B0E94FB
S1130D00C80E288539854A855B850E947C0F9B0126
S1130D10AC01C701B60138D72C893D894E895F895A
S1130D2034D76C8B7D8B8E8B9F8B198B088BDF91CB
S1130D30CF911F910F91FF90EF90DF90CF90089586
S1130D401092C50087E68093C40088E98093C100AF
S1130D5086E08093C20008951092D50087E68093C0
S1130D60D40088E98093D10086E08093D20008956E
S1130D701092350189E18093340188E9809331012F
S1130D8086E0809332010895E0E3F1E0908195FFDD
S1130D90FDCF8093360108951F920F920FB60F92E4
S1130DA011248F938091C6008093C8028F910F9075
S1130DB00FBE0F901F9018951F920F920FB60F92AF
S1130DC011248F938091CE008093C7028F910F904E
S1130DD00FBE0F901F9018951F920F920FB60F928F
S1130DE011248F938091D6008093C6028F910F9027
S1130DF00FBE0F901F9018951F920F920FB60F926F
S1130E0011240BB60F928F939F93EF93FF939091BE
S1130E1036019093C5028091C002882389F08091A5
S1130E20C102E82FF0E0EE53FD4F90838F5F8430D2
S1130E3018F48093C10204C01092C1021092C0023F
S1130E408091C5028D3F31F481E08093C0021092FD
S1130E50BF0207C08E3F29F481E08093C0028093D3
S1130E60BF02FF91EF919F918F910F900BBE0F9056
S1130E700FBE0F901F90189583E08093CB02809350
S1130E80CA021092C90288ED99E0A0E0B0E0809314
S1130E90DF029093E002A093E102B093E202109289
S1130EA0DB021092DC021092DD021092DE02E2EC10
S1130EB0F2E082E38083818382838CE390E09093E9
S1130EC0FA028093F9021092FC021092FB02109233
S1130ED0E3021092E4021092E5021092E6021092EC
S1130EE0F5021092F6021092F7021092F802109294
S1130EF0F1021092F2021092F3021092F40289E1CC
S1130F0090E09093F0028093EF021092EB02109223
S1130F10EC021092ED021092EE021092E70210928F
S1130F20E8021092E9021092EA021092D50281E0DE
S1130F308093FD0210927202109273021092740256
S1130F401092750210926D0210926E0210926F024E
S1130F50109270021092DA021092D9021092D80202
S1130F601092D6021092D7021092D4021092D30299
S1130F701092D2021092D1021092D0021092CF029B
S1130F801092CE021092CD021092CC020895EF92EC
S1130F90FF920F931F93CF93DF9306EA12E00F2E75
S1130FA0F2ECEF2EF2E0FF2EF02DF7018081C2E388
S1130FB0D0E0BE01681B7109072E000C880B990B49
S1130FC0E7D620E030E048E452E447D620E030E0C1
S1130FD047ED53E491D7A9D6F80171836083F701F3
S1130FE0618170E062537109072E000C880B990B24
S1130FF0CFD620E030E048E452E42FD620E030E0C1
S113100047ED53E479D791D6F80173836283F701EE
S11310108281C81BD109BE01DD0F880B990BB8D69C
S113102020E030E048E452E418D620E030E048EC18
S113103052E462D77AD6F801758364838091D4022E
S113104081111ADFDF91CF911F910F91FF90EF90E3
S11310500895CF92DF92EF92FF928091CB0290E0BD
S11310602091CA02821B910912F021E001C02FEFE6
S11310702093FD0210927202109273021092740275
S1131080109275021092AB021092AA0281E0809332
S1131090DA024091DB025091DC026091DD02709132
S11310A0DE028091DF029091E002A091E102B09112
S11310B0E202481B590B6A0B7B0BDB01CA013AF4B1
S11310C088279927DC01841B950BA60BB70B80930B
S11310D0E3029093E402A093E502B093E60288341D
S11310E09D40A105B105C4F04EEA51E02403C001BE
S11310F0259F900D11249093FC028093FB0287E3BB
S113110090E09093F0028093EF0284E190E090935A
S1131110A7028093A60214C03AEF2303C00111244E
S11311209093FC028093FB0289E190E09093F0029B
S11311308093EF028FE090E09093A7028093A60241
S11311406091E3027091E4028091E5029091E602DD
S11311501FD66B017C0120E030E040E251E47DD5F4
S11311606093EB027093EC028093ED029093EE0295
S11311702DEC3CEC4CE450E4C701B6016ED5609311
S1131180E7027093E8028093E9029093EA02809167
S1131190DB029091DC02A091DD02B091DE0280932B
S11311A0DF029093E002A093E102B093E202FF9089
S11311B0EF90DF90CF9008958091CB02982F9D7F80
S11311C09130A1F481E08093D70285E08093CA0234
S11311D080EE9CEFAFEFBFEF8093DB029093DC02D5
S11311E0A093DD02B093DE0234CF08959091D7022C
S11311F09923A9F0853099F482E08093CA0289EAA0
S113120094E2A0E0B0E08093DB029093DC02A09330
S1131210DD02B093DE021DDF81E08093CC020895ED
S1131220CF93C82F8CEFB0DD8C2FAEDDCF91089516
S1131230F894E8E6F0E0808181608083D89AEBE658
S1131240F0E0808180618083789408951092BF02D9
S1131250249812DEEDCF08951092E3021092E40276
S11312601092E5021092E6021092DA021092D50270
S11312701092CE028091CB02833031F48091CA0265
S1131280843069F4CDDF0BC0853049F48091CA0203
S1131290823029F481E08093D2028093D0021092AC
S11312A0CF028091D702882319F08091CA02B8DF57
S11312B08091CA028093CB02109272021092730240
S11312C0109274021092750208954F925F926F9279
S11312D07F928F929F92AF92BF92CF92DF92EF92C2
S11312E0FF920F931F93CF93DF9300D01F92CDB73C
S11312F0DEB78091DA02811172C08091D902811126
S11313006EC08091D802811178C38091C202853069
S113131059F4E6EAF2E084EC9FEF91838083138230
S11313201282158214822CC0863059F4E6EAF2E067
S11313308CE390E09183808313821282158214825D
S11313401FC0873059F4E6EAF2E0118210828CE380
S113135090E0938382831582148212C0883059F4FA
S1131360E6EAF2E01182108284EC9FEF9383828399
S11313701582148205C08091D702811101C02AD838
S11313808091C202813049F484E08093C90281E0F3
S11313908093D8021092C2022BC3823041F480930E
S11313A0C90281E08093D8021092C20221C3833023
S11313B041F481E08093C9028093D8021092C20262
S11313C017C3843031F481E08093D9021092C202B1
S11313D00FC3893021F4F0DE1092C20209C3809158
S11313E0D002882309F468C08091C2028E30C1F40F
S11313F0E6EAF2E08CE390E0918380838EE190E072
S1131400938382831582148210926D0210926E026D
S113141010926F021092700281E08093CD0204C09A
S11314208091CD02882371F080916D0290916E02BB
S1131430A0916F02B0917002873B9E4FAF4FBF4F98
S11314400CF4E0C28091D1028823D9F08091BA02D1
S11314509091BB028C3B9240A0F01092D102E6EA3C
S1131460F2E08AE69FEF9183808383E290E09383A6
S11314708283158214821092BC021092BB021092D5
S1131480BA028091D2028823B9F01092D20281E08C
S11314908093D1028093BC02E6EAF2E011821082CA
S11314A0138212828AE69FEF958384831092BB0293
S11314B01092BA028CE0B4DE8091D802882309F439
S11314C04FC08091C302823009F040C08091C902AC
S11314D0843081F48093CA021092DB021092DC0201
S11314E01092DD021092DE02B4DD1092D802109246
S11314F0C90236C08230A1F48093CA0289EA94E218
S1131500A0E0B0E08093DB029093DC02A093DD02C4
S1131510B093DE029EDD1092D8021092C90220C060
S11315208130F1F48093CA0285E59DE2A0E0B0E049
S11315308093DB029093DC02A093DD02B093DE0281
S113154088DD1092D8021092C9020AC0E6EAF2E0DD
S11315508CE390E09183808313821282158214823B
S11315608091DA02882309F47DC18091D50281112A
S11315704CC08091FD02E090FB02F090FC02C82E6A
S1131580082E000CDD08B701F0E58F02601971091F
S11315901124072E000C880B990BFAD32091EB022F
S11315A03091EC024091ED025091EE0256D36093DB
S11315B0F5027093F6028093F7029093F8028091FB
S11315C0EF029091F002C89EB001C99E700DD89EA2
S11315D0700D11246E197F09072E000C880B990BCE
S11315E0D7D32091E7023091E8024091E90250916B
S11315F0EA0233D36093F1027093F2028093F30210
S11316009093F40281E08093D5028091CE028111FF
S113161030C08091CC0281112CC08091E302909162
S1131620E402A091E502B091E60280529340A10940
S1131630B1094091720250917302609174027091E9
S1131640750277233CF470956095509541955F4FF2
S11316506F4F7F4F481759076A077B070CF0DBC1B0
S113166008C08BE0DDDD02C08FE0DADD81E080932D
S1131670CE028091CF028111EFDDC0907202D09032
S11316807302E0907402F09075024090E30250906F
S1131690E4026090E5027090E602D701C601FF20E3
S11316A03CF488279927DC018C199D09AE09BF09F0
S11316B084159505A605B705BCF08091CC02882356
S11316C021F0CADD1092CC02CDC0E6EAF2E011822C
S11316D010828091FD0229E18202C00111249383CA
S11316E0828315821482BEC01C141D041E041F04B0
S11316F0ACF4C701B6014CD369837A838B839C8392
S11317008090EB029090EC02A090ED02B090EE027B
S1131710A5019401EDD38823DCF448C0662777271C
S1131720CB016C197D098E099F0932D369837A83B1
S11317308B839C838090EB029090EC02A090ED024E
S1131740B090EE02A5019401D3D38823C4F43BC026
S1131750C301B2011DD32091E7023091E802409108
S1131760E9025091EA0210D29B01AC0169817A81AD
S11317708B819C816ED218160CF054C117C0C30122
S1131780B20106D32091E7023091E8024091E902C8
S11317905091EA02F9D19B01AC0169817A818B8174
S11317A09C8157D218160CF03DC10DC0C701B6017B
S11317B0EFD269837A838B839C83A501940149D2F8
S11317C0181694F437C066277727CB016C197D0966
S11317D08E099F09DDD269837A838B839C83A5015B
S11317E0940137D2181634F16091FD02062E000CD4
S11317F0770B880B990BCCD24B015C01C701B60166
S1131800C7D22091F5023091F6024091F70250912F
S1131810F80272D320E030E040EA52E4B6D19B01F2
S1131820AC01C501B40168D380D27093A90260935E
S1131830A80218C08090E7029090E802A090E90204
S1131840B090EA02C301B201A3D2A50194019CD1D4
S11318509B01AC0169817A818B819C8149D3882366
S11318600CF0E9C08091D902882309F4BDC08091AD
S1131870C2028D3071F40E94EA011092D9021092D2
S1131880D6028CE390E09093FA028093F9021092CE
S1131890C2028091C402811110C0E6EAF2E0809194
S11318A0F9029091FA02919581959109918380832F
S11318B013821282158214828DC08130A9F4809122
S11318C0F9029091FA02E6EAF2E022273327281B74
S11318D0390B318320830597938382831582148285
S11318E081E08093D6027AC0823081F4E6EAF2E0A5
S11318F011821082138212828091F9029091FA026D
S11319009583848381E08093D60268C0843099F4FF
S1131910E6EAF2E0118210828091F9029091FA02D3
S1131920919581959109938382831582148281E034
S11319308093D60253C0833081F4E6EAF2E0118248
S113194010828091F9029091FA0293838283158226
S1131950148281E08093D60241C0853099F4E6EA8E
S1131960F2E011821082138212828091F902909126
S1131970FA029195819591099583848381E08093FE
S1131980D6022CC0863081F4E6EAF2E0118210829D
S1131990138212828091F9029091FA0295838483D2
S11319A081E08093D6021AC08730A1F40E94EA0134
S11319B01092D6028CE390E09093FA028093F9029D
S11319C01092D9028091D302882321F08AE028DC86
S11319D01092D3028091D602882331F084E190E002
S11319E09093FA028093F90281E08093D40277C045
S11319F08091D002811114CD5FCD8091D0028111EC
S1131A00F3CC5FCD0E94EA011092D0021092D7026B
S1131A101092CD0217CD8091CA028450823008F012
S1131A2023CE1FCE8091FB029091FC029093A902D9
S1131A308093A80217CF6091FD022091EF023091AC
S1131A40F00262038001639F100D1124062E000C26
S1131A50770B880B990B9CD12091F1023091F20203
S1131A604091F3025091F40247D269837A838B83C5
S1131A709C83C701B6018CD19B01AC0169817A8139
S1131A808B819C8139D269837A838B839C83B8014F
S1131A90012E000C880B990B7BD16B017C0180918A
S1131AA0FB029091FC02D801A81BB90BA30192017F
S1131AB086D26ED1A5019401D0D09B01AC01C7019F
S1131AC0B60162D09B01AC0169817A818B819C81D2
S1131AD05CD02BD17093A9026093A802C3CE0F905F
S1131AE00F900F900F90DF91CF911F910F91FF9066
S1131AF0EF90DF90CF90BF90AF909F908F907F90AA
S1131B006F905F904F9008951F920F920FB60F92AF
S1131B1011240BB60F922F933F934F935F936F93C0
S1131B207F938F939F93AF93BF93EF93FF93809192
S1131B30DA02882391F08091D90281110EC080913C
S1131B40D00281110AC003C00E94FB010AC00E9496
S1131B50FB0181E08093CF0204C08091D002811107
S1131B60F3CFFF91EF91BF91AF919F918F917F91AF
S1131B706F915F914F913F912F910F900BBE0F90FA
S1131B800FBE0F901F9018955058BB27AA270ED050
S1131B9075C166D130F06BD120F031F49F3F11F460
S1131BA01EF45BC10EF4E095E7FB51C1E92F77D138
S1131BB080F3BA17620773078407950718F071F466
S1131BC09EF58FC10EF4E0950B2EBA2FA02D0B01BC
S1131BD0B90190010C01CA01A0011124FF27591B6E
S1131BE099F0593F50F4503E68F11A16F040A22F74
S1131BF0232F342F4427585FF3CF469537952795E5
S1131C00A795F0405395C9F77EF41F16BA0B620BE3
S1131C10730B840BBAF09150A1F0FF0FBB1F661F2A
S1131C20771F881FC2F70EC0BA0F621F731F841F6D
S1131C3048F4879577956795B795F7959E3F08F093
S1131C40B3CF9395880F08F09927EE0F9795879552
S1131C500895D9D008F481E008950CD00FC107D1BC
S1131C6040F0FED030F021F45F3F19F0F0C0511184
S1131C7039C1F3C014D198F39923C9F35523B1F3AF
S1131C80951B550BBB27AA2762177307840738F0E7
S1131C909F5F5F4F220F331F441FAA1FA9F333D046
S1131CA00E2E3AF0E0E830D091505040E695001CFA
S1131CB0CAF729D0FE2F27D0660F771F881FBB1FB6
S1131CC0261737074807AB07B0E809F0BB0B802D90
S1131CD0BF01FF2793585F4F2AF09E3F510568F0DC
S1131CE0B6C000C15F3FECF3983EDCF38695779570
S1131CF06795B795F7959F5FC9F7880F911D9695DE
S1131D00879597F90895E1E0660F771F881FBB1F39
S1131D10621773078407BA0720F0621B730B840BE6
S1131D20BA0BEE1F88F7E095089504D06894B111BA
S1131D30D9C00895BCD088F09F5790F0B92F992747
S1131D40B751A0F0D1F0660F771F881F991F1AF0C2
S1131D50BA95C9F712C0B13081F0C3D0B1E008958B
S1131D60C0C0672F782F8827B85F39F0B93FCCF30C
S1131D70869577956795B395D9F73EF490958095B8
S1131D80709561957F4F8F4F9F4F0895E89409C0D8
S1131D9097FB3EF490958095709561957F4F8F4F9A
S1131DA09F4F9923A9F0F92F96E9BB279395F695B0
S1131DB0879577956795B795F111F8CFFAF4BB0F2E
S1131DC011F460FF1BC06F5F7F4F8F4F9F4F16C092
S1131DD0882311F096E911C0772321F09EE8872F1C
S1131DE0762F05C0662371F096E8862F70E060E0D8
S1131DF02AF09A95660F771F881FDAF7880F969551
S1131E00879597F90895990F0008550FAA0BE0E8F4
S1131E10FEEF16161706E807F907C0F012161306A8
S1131E20E407F50798F0621B730B840B950B39F4E8
S1131E300A2661F0232B242B252B21F408950A264E
S1131E4009F4A140A6958FEF811D811D089597F98E
S1131E509F6780E870E060E008959FEF80EC08954C
S1131E6000240A9416161706180609060895002475
S1131E700A9412161306140605060895092E0394EF
S1131E80000C11F4882352F0BB0F40F4BF2B11F463
S1131E9060FF04C06F5F7F4F8F4F9F4F089557FDC2
S1131EA09058440F551F59F05F3F71F04795880FC4
S1131EB097FB991F61F09F3F79F08795089512165B
S1131EC013061406551FF2CF4695F1DF08C0161607
S1131ED017061806991FF1CF8695710561050894B8
S1131EE00895E894BB2766277727CB0197F90895CF
S1131EF08ADF08F48FEF08950BD0C0CFB1DF28F04C
S1131F00B6DF18F0952309F0A2CFA7CF1124EACFAA
S1131F10C6DFA0F3959FD1F3950F50E0551F629F44
S1131F20F001729FBB27F00DB11D639FAA27F00D2E
S1131F30B11DAA1F649F6627B00DA11D661F829F55
S1131F402227B00DA11D621F739FB00DA11D621F3A
S1131F50839FA00D611D221F749F3327A00D611D57
S1131F60231F849F600D211D822F762F6A2F112439
S1131F709F5750408AF0E1F088234AF0EE0FFF1F8C
S1131F80BB1F661F771F881F91505040A9F79E3FC3
S1131F90510570F05CCFA6CF5F3FECF3983EDCF3C5
S1131FA0869577956795B795F795E7959F5FC1F700
S1131FB0FE2B880F911D9695879597F90895B7FF85
S1131FC00CC00BD0821B930B0895EE0FFF1F881FCC
S1131FD08BBF0790F691E02D199409D0A59F900D21
S1131FE0B49F900DA49F800D911D11240895A29F6C
S1131FF0B001B39FC001A39F700D811D1124911DD9
S1132000B29F700D811D1124911D0895F894FFCF86
S10F2010FF0101010101FF01FF0101FFBC
S9030000FC
