S00E00004D61737465722E73726563AA
S113000072C0000084C3000035C300000C94280AA9
S11300108DC000008BC000000C940C0A87C0000047
S113002085C0000083C0000081C000007FC00000C4
S11300307DC000007BC0000079C00000AFC200009A
S113004075C0000073C0000071C000006FC00000E4
S11300506DC000000C94ED0969C0000067C0000089
S113006065C000000C94920A61C000005FC00000EB
S11300705DC000005BC0000059C0000057C0000014
S113008055C0000053C0000051C000004FC0000024
S11300900C94A20A4BC0000049C0000047C00000F5
S11300A045C0000043C0000069C300003FC0000019
S11300B03DC000003BC0000039C0000037C0000054
S11300C035C0000033C0000031C000000C94B20AF7
S11300D02DC000002BC000000C94E60A27C00000CD
S11300E025C00000ED0311241FBECFEFD1E2DEBF17
S11300F0CDBF00E00CBF22E0A0E0B2E001C01D9241
S1130100A139B207E1F710E0C3E7D0E000E006C090
S113011021970109802FFE010E941C0DC237D107CF
S113012080E00807A9F703D00C94240D69CF0E943E
S1130130570A0E947C0A0E94630AE0D55CD1789435
S113014080917802882311F065D601C0A8D78091E8
S113015044028823A9F3FFD510924402F1CFCF9231
S1130160DF92EF92FF920F931F93FC014083518320
S1130170628373830483158326833783C086D18681
S1130180E286F3861F910F91FF90EF90DF90CF905E
S113019008958F929F92AF92BF92EF92FF920F9326
S11301A01F93CF93DF93EC017B016C857D858B01DD
S11301B00E191F091F870E878A899B89800F911F3B
S11301C08E3791052CF08DE790E09B8B8A8B0BC0CA
S11301D083382FEF92071CF09B8B8A8B04C083E833
S11301E09FEF9B8B8A8B6A897B89072E000C880B77
S11301F0990B0E94090C2C813D814E815F810E94E4
S1130200B90C4B015C01B801110F880B990B0E94CA
S1130210090C288139814A815B810E94B90C9B01B8
S1130220AC01C501B4010E94060B4B015C01888935
S11302309989B701681B790B072E000C880B990B61
S11302400E94090C288539854A855B850E94B90C72
S11302509B01AC01C501B4010E94050B2C893D89A9
S11302604E895F890E94060B6C8B7D8B8E8B9F8BD6
S1130270F98AE88ADF91CF911F910F91FF90EF9057
S1130280BF90AF909F908F9008958F929F92AF925E
S1130290BF92EF92FF920F931F93CF93DF93EC01E2
S11302A07B016C857D858B010E191F091F870E87C5
S11302B08A899B89800F911F8E3791052CF08DE7D9
S11302C090E09B8B8A8B0BC083382FEF92071CF036
S11302D09B8B8A8B04C083E89FEF9B8B8A8B6A89F4
S11302E07B89072E000C880B990B0E94090C2C812A
S11302F03D814E815F810E94B90C4B015C01B801C4
S1130300110F880B990B0E94090C288139814A81AD
S11303105B810E94B90C9B01AC01C501B4010E9430
S1130320060B4B015C0188899989B701681B790B1D
S1130330072E000C880B990B0E94090C288539851F
S11303404A855B850E94B90C9B01AC01C501B401CF
S11303500E94050B6C8B7D8B8E8B9F8BF98AE88AB0
S1130360DF91CF911F910F91FF90EF90BF90AF90CD
S11303709F908F900895E1EBF0E08081846080830A
S1130380E0E7F0E08081816080831092B2000895FC
S113039010981498129847980895089A0C9A3F9ABE
S11303A00A9AF6CF08959FB7F894ED9AEAE6F0E03A
S11303B0808188608083E59A9FBF0895E59AED98CF
S11303C008959FB7F894EA9AE9E6F0E080818062A4
S11303D08083E29A9FBF0895E29AEA9808952FB71E
S11303E0F89460910F027091100280911102909123
S11303F012022FBF0895CF92DF92EF92FF920F93D4
S11304001F9310920A02109208021092070210928F
S1130410060210920502109204021092020281E078
S1130420809301021092000210924302109249023A
S113043010924A0210924B0210924C021092440203
S113044061E08CE692E0E9D262E08BE692E0E5D2EC
S113045061E08EE592E040D262E081E592E03CD238
S11304602498E1E0F1E080818F7B8083E2E0F1E099
S11304708081806480832C9A90DF1C9B07C062E398
S113048070E08CE692E09ED21C99F9CFA8DF6093CD
S11304904D0270934E0280934F02909350028CE66B
S11304A092E07BD210926702109268021092690265
S11304B010926A0281E0809309020F2EF3E3CF2E9B
S11304C0DC2CF1E2EF2EF2E4FF2EF02D04E016E531
S11304D02EE03EE346EF58E26DE372E48BE292E0F5
S11304E03EDE0F2EF1E7CF2EFDE3DF2EFEE1EF2EF1
S11304F0F1E4FF2EF02D00E010E0980148EB5EE1FE
S113050065E470E483E192E02ADE6D98759A52986E
S11305105A9A31DF1F910F91FF90EF90DF90CF90A7
S113052008951C9904C08091070281110DC0809127
S1130530000186FD32C080910602811122C0089517
S113054014981092040208951092200210921F022F
S113055010926702109268021092690210926A0265
S1130560109208021092070281E08093050237DF9F
S113057060934D0270934E0280934F029093500209
S1130580D6CF1092200210921F02109208021092ED
S11305900602809104028111D3CF08951F920F9215
S11305A00FB60F9211248F939F93AF93BF938091B3
S11305B00F0290911002A0911102B09112020196C3
S11305C0A11DB11D80930F0290931002A0931102FC
S11305D0B093120280910B0290910C02A0910D0233
S11305E0B0910E020396A11DB11D80930B0290934E
S11305F00C02A0930D02B0930E0280910B02909115
S11306000C02A0910D02B0910E028D379105A10547
S1130610B10538F180910B0290910C02A0910D026A
S1130620B0910E028D579109A109B10980930B0273
S113063090930C02A0930D02B0930E0280910F02CE
S113064090911002A0911102B09112020196A11D85
S1130650B11D80930F0290931002A0931102B093E6
S11306601202BF91AF919F918F910F900FBE0F9087
S11306701F9018951F920F920FB60F9211240BB66C
S11306800F928F939F93AF93BF93EF93FF9395999B
S113069019C0EEE5F2E085819681A781B0850197C6
S11306A0A109B10985839683A783B0878185928543
S11306B0A385B4850197A109B10981879287A3878E
S11306C0B48718C0EEE5F2E085819681A781B085F4
S11306D00196A11DB11D85839683A783B08781856B
S11306E09285A385B4850196A11DB11D818792874A
S11306F0A387B487FF91EF91BF91AF919F918F91A1
S11307000F900BBE0F900FBE0F901F9018951F9265
S11307100F920FB60F9211240BB60F928F939F93E3
S1130720AF93BF93EF93FF9363990EC0E1E5F2E0BB
S113073081859285A385B4850196A11DB11D81870C
S11307409287A387B4870DC0E1E5F2E081859285A5
S1130750A385B4850197A109B10981879287A387ED
S1130760B487FF91EF91BF91AF919F918F910F90BB
S11307700BBE0F900FBE0F901F9018951F920F92F3
S11307800FB60F9211240BB60F924F935F936F9392
S11307907F938F93EF93FF9381E080934302EEE581
S11307A0F2E045815681678170854183528363837A
S11307B07483158216821782108680934402FF91F7
S11307C0EF918F917F916F915F914F910F900BBE3D
S11307D00F900FBE0F901F901895EEE5F2E0118276
S11307E01282138214821582168217821086118651
S11307F0128613861486E1E5F2E0118212821382D6
S11308001482158216821782108611861286138628
S11308101486EBE2F2E010821182128213821482B7
S11308201582168217821086118612861386158603
S1130830148617861686118A108A138A128AE3E1AF
S1130840F2E01082118212821382148215821682BF
S113085017821086118612861386158614861786CB
S11308601686118A108A138A128A089580916D025D
S1130870811117C0E1EAF0E080818B608083E2E7B8
S1130880F0E080818260808388E893E19093A900FE
S11308908093A8001092A5001092A40081E0809398
S11308A06D0208957894FC012081213049F4E9987F
S11308B0E9E6F0E0208128602083E99AE19A0AC001
S11308C0223041F4E898E9E6F0E0208122602083B8
S11308D0E89AE09ACBCF0895FC016083613029F453
S11308E051989D98599AA59A06C0623021F450985F
S11308F06B98589A739AD6CF0895FC018081813001
S1130900C1F40B9A099AEAE0F1E080818062808365
S1130910E0E2F1E080818A608083E1E2F1E08081BD
S11309208A61808389EF90E0909327018093260168
S113093008958230B9F40F9A0D9AEAE0F1E08081CB
S113094080618083E0E2F1E0808182628083E1E281
S1130950F1E080818A61808389EF90E090932701A0
S1130960809326010895FC018081813019F0823042
S113097021F00895139A11980895179A15980895D7
S1130980FC018081813019F0823021F008951398A0
S1130990119A08951798159A0895FC018081813061
S11309A019F0823041F008951398119810922D0196
S11309B010922C0108951798159810922B011092FB
S11309C02A0108950F931F93CF93DF938C01EB01BA
S11309D01C161D060CF4C7DFDD232CF4D195C1953C
S11309E0D109C801CDDFCA3FD10514F0C9EFD0E069
S11309F0F8018081813019F0823031F009C0D09340
S1130A002D01C0932C0104C0D0932B01C0932A0163
S1130A10DF91CF911F910F910895CF93DF93EC0154
S1130A2068836BDFCE01B9DF60E070E0CE01CADF1E
S1130A30DF91CF9108950F931F9380916702909156
S1130A406802A0916902B0916A02873A9F4FAF4F42
S1130A50BF4F0CF0FFC08091090281110AC11BC174
S1130A6080910902882309F40AC180910A0288232B
S1130A7009F45EC080915A0290915B02A0915C02DD
S1130A80B0915D0288369140A105B10554F16091A1
S1130A90390270913A0277231CF4719561957109BA
S1130AA0072E000C880B990BB4D620E030E040E40C
S1130AB050E410D61816ACF010925A0210925B0251
S1130AC010925C0210925D02EBE2F2E0158614864D
S1130AD0138A128A148A158A168A178A10920A02AD
S1130AE027C080910402882371F080915A0290916A
S1130AF05B02A0915C02B0915D02883C9105A10566
S1130B00B1050CF0C2C080915A0290915B02A09191
S1130B105C02B0915D0288379105A105B10544F0EE
S1130B201092020280914302882309F442C004C057
S1130B30809143028823E1F060915A0270915B0234
S1130B4080915C0290915D028BE292E09EDB2ED656
S1130B508BE692E037DF60915F027091600283E17F
S1130B6092E017DB23D68CE692E02CDF109243024E
S1130B70809102028823E9F032DC0091490210914D
S1130B804A0220914B0230914C02DC01CB01801BC4
S1130B90910BA20BB30B8D3B9240A105B10548F01C
S1130BA088E691E0909338028093370281E0809345
S1130BB00A02809100028823C9F011DC00914502E9
S1130BC0109146022091470230914802DC01CB018A
S1130BD0801B910BA20BB30B8D329140A105B10583
S1130BE028F088B1805888B91092000280910502DB
S1130BF0882309F45EC0F3DB00914D0210914E028C
S1130C0020914F0230915002DC01CB01801B910BEB
S1130C10A20BB30B8C329140A105B10508F449C075
S1130C2010981092050280910402882309F441C0AF
S1130C308DEF9FEF9093200280931F0281E08093B9
S1130C40080228E631E0309338022093370280937B
S1130C500A022FC08091670290916802A0916902F4
S1130C60B0916A02863A9F4FAF4FBF4F0CF0F8CE57
S1130C70FCCE1092090281E080930602F6CE81E058
S1130C808093090280930702F0CE4798129881E07E
S1130C908093010238CF8091670290916802A091FD
S1130CA06902B0916A02863A9F4FAF4FBF4F3CF73B
S1130CB0DCCE1F910F9108951092790210927A025E
S1130CC084B5826084BD85B5856085BDEEE6F0E0BF
S1130CD080818260808316BC8BE987BD0895989AD1
S1130CE03E9A3C9A9A9A389A3A9A999AA09846982F
S1130CF04498A29840984298A1980895EEE7F2E0AB
S1130D0082E380838183828310926E0210927C023C
S1130D1089E080937D021092730210927402109203
S1130D2075021092760210926F0210927002109265
S1130D30710210927202109278021092770210924D
S1130D4003026C98749AEAE0F1E080818460808305
S1130D50B3DFC5CF0895CF93DF93809178028823C2
S1130D6071F08EEFD7D380916E02D4D380917B0241
S1130D70D1D380917C02CED310926E020EC08DEF3F
S1130D80C9D3CEE7D2E08881C5D38981C3D38A8110
S1130D90C1D382E3888389838A83DF91CF910895C5
S1130DA01E9B07C080917C028E7F80937C024498B6
S1130DB006C080917C02816080937C02449A1F9BD0
S1130DC007C080917C028D7F80937C02A19806C02D
S1130DD080917C02826080937C02A19A1D9B07C053
S1130DE080917C028B7F80937C02409806C0809126
S1130DF07C02846080937C02409A4B9908C0809165
S1130E00000185FD04C082E080937B020895109266
S1130E107B0208950F931F93A09A469880918502B0
S1130E20803429F4109278021092850261C08130D6
S1130E3089F480936E0280930802809109028823CA
S1130E4031F08DEF9FEF9093200280931F02109258
S1130E5085024EC0823029F480936E02109285027E
S1130E6047C0843031F483E080936E02109285028F
S1130E703FC0883031F489E080936E02109285027D
S1130E8037C090910002911133C0909104029111E6
S1130E902FC09091020291112BC0803249F58091AC
S1130EA00102882389F081E08093020298DA60933A
S1130EB0490270934A0280934B0290934C0292B180
S1130EC084E0892782B901C0129811E010930002CE
S1130ED086DA6093450270934602809347029093AA
S1130EE04802809101021827109301021092850292
S1130EF080918602803231F484E080936E021092F5
S1130F0086021EC0813021F485E080936E0218C0F1
S1130F10843021F486E080936E0212C0823021F482
S1130F2087E080936E020CC0883019F480936E02BF
S1130F3007C0803429F48DE080936E0210928602FB
S1130F40809184028430A1F481E080930402479A62
S1130F50109A8093030243DA60936F0270937002D5
S1130F60809371029093720229DA1092840256C01F
S1130F70853089F4109A22DA81E0809303022FDA13
S1130F8060936F0270937002809371029093720267
S1130F901092840243C090910002911134C0909148
S1130FA00402911130C09091020291112CC08A3038
S1130FB051F580910102882389F081E08093020237
S1130FC00EDA6093490270934A0280934B02909325
S1130FD04C0292B184E0892782B901C0129811E0D1
S1130FE010930002FCD960934502709346028093EB
S1130FF0470290934802809101021827109301023E
S1131000109284020BC08B3021F4CDD9109284024B
S113101005C08C3019F4D5D9109284028091030252
S1131020882379F1DCD900916F021091700220912C
S1131030710230917202DC01CB01801B910BA20B77
S1131040B30B843F9140A105B105D8F0149A1092D6
S1131050030280910402882389F081E080930802CE
S113106080910902811106C083E090E090932002F0
S113107080931F0282E080936E020BC089E080930C
S11310806E0280910802811104C010922002109215
S11310901F02D1DC46DA84DE1F910F9108950F936D
S11310A01F93CF93DF93469AA09880918602823053
S11310B051F4EEE7F2E092E3908380917D028E5C3E
S11310C08183928325C0883059F4EEE7F2E082E30D
S11310D0808390917D02282F291B2183828318C04D
S11310E0813051F4EEE7F2E080917D028E5C8083E2
S11310F082E3818382830CC0843051F4EEE7F2E012
S113110082E390917D02682F691B608381838283CF
S113111080918502803431F481E0809378021092CA
S113112085028DC0813031F492B1892782B9109241
S1131130850285C0823059F490910902911148C00A
S113114092B180E1892782B91092850278C08430F7
S1131150B9F481E08093080280910902882339F070
S11311608DEF9FEF9093200280931F0206C083E0CF
S113117090E09093200280931F021092850270C029
S1131180883061F488E691E09093380280933702C6
S113119081E080930A021092850251C08031C1F42B
S11311A090910902911114C081E080930802809308
S11311B00402479A149A80910902811106C083E0BF
S11311C090E09093200280931F021092850237C012
S11311D090910002911133C09091040291112FC09B
S11311E09091020291112BC0803249F58091010245
S11311F0882389F081E080930202F1D86093490248
S113120070934A0280934B0290934C0292B184E013
S1131210892782B901C01298C1E0C0930002DFD8C7
S1131220609345027093460280934702909348026C
S113123080910102C827C093010210928502809117
S1131240080281110DC080918702853108F4AEC077
S11312501C99A5C0ABC08091000186FDADC0B3C090
S113126080918A0290E09C012253310912161306E0
S113127024F42630310544F032C042E350E0FA0150
S1131280E81BF90B36975CF58091890290E0AC017C
S1131290425351091416150624F4463051054CF0F6
S11312A01EC042E350E0BA01681B790B6630710539
S11312B0B4F480918B0290E0AC01425351091416AE
S11312C015062CF4463051050CF463C008C042E303
S11312D050E0FA01E81BF90B36970CF45AC081E090
S11312E08093790240917A02CEE7D2E04203B001C2
S11312F0439F700D1124072E000C880B990B89D283
S113130020E030E040E752E4E9D120E030E048E476
S113131052E47CD150D2688340917A0205E812E00D
S1131320F801248130E0225331094203B001439F84
S1131330700D1124072E000C880B990B6AD220E043
S113134030E040E752E4CAD120E030E048E452E41F
S11313505DD131D2698340917A02F801268130E06F
S1131360225331094203B001439F700D1124072E0B
S1131370000C880B990B4DD220E030E040E752E49A
S1131380ADD120E030E048E452E440D114D26A8385
S113139002C0109279024FDBC4D802DD19C083E089
S11313A090E09093200280931F025ACF809188028C
S11313B0853108F050CF07C08DEF9FEF9093200246
S11313C080931F024DCF1092200210921F0248CF2B
S11313D0DF91CF911F910F9108951F920F920FB635
S11313E00F9211248F9380917902882331F0809198
S11313F07A028F5F80937A0202C010927A028091FF
S11314007A028D331CF08CE380937A028F910F90D3
S11314100FBE0F901F9018951F920F920FB60F9248
S113142011240BB60F928F939F93EF93FF93EBE0EE
S1131430F1E0908184E089278083FF91EF919F916F
S11314408F910F900BBE0F900FBE0F901F901895A9
S11314501F920F920FB60F9211240BB60F922F9377
S11314603F934F935F936F937F938F939F93AF9328
S1131470BF93EF93FF931098EBE0F1E0908184E049
S1131480892780830E94EC01FF91EF91BF91AF9176
S11314909F918F917F916F915F914F913F912F9188
S11314A00F900BBE0F900FBE0F901F9018951092C7
S11314B0C50087E68093C40088E98093C10086E074
S11314C08093C200089510928302E5E8F2E010824E
S11314D011821282138282E38483858386838783C5
S11314E01092D50089E18093D40088E98093D100DB
S11314F086E08093D2000895109284021092350100
S113150089E18093340188E98093310186E08093F6
S113151032010895E0E3F1E0908195FFFDCF8093DF
S1131520360108951F920F920FB60F9211248F93D4
S11315308091C600809390028F910F900FBE0F9000
S11315401F9018951F920F920FB60F9211248F932C
S11315508091CE0080938F028F910F900FBE0F90D9
S11315601F9018951F920F920FB60F9211240BB66D
S11315700F928F939F93EF93FF938091D600809364
S11315808D0290918202992389F090918302E92F30
S1131590F0E0EB57FD4F80839F5F983018F49093F1
S11315A0830204C010928302109282028F3719F4CE
S11315B081E080938202FF91EF919F918F910F9030
S11315C00BBE0F900FBE0F901F9018951F920F9295
S11315D00FB60F9211248F939F93809136018093BD
S11315E08E0290918102992321F0809384021092BB
S11315F081028C3F19F481E0809381029F918F9145
S11316000F900FBE0F901F9018955058BB27AA2714
S11316100ED075C166D130F06BD120F031F49F3F0C
S113162011F41EF45BC10EF4E095E7FB51C1E92F00
S113163077D180F3BA17620773078407950718F008
S113164071F49EF58FC10EF4E0950B2EBA2FA02DE8
S11316500B01B90190010C01CA01A0011124FF275B
S1131660591B99F0593F50F4503E68F11A16F04056
S1131670A22F232F342F4427585FF3CF4695379555
S11316802795A795F0405395C9F77EF41F16BA0B1A
S1131690620B730B840BBAF09150A1F0FF0FBB1FC8
S11316A0661F771F881FC2F70EC0BA0F621F731F11
S11316B0841F48F4879577956795B795F7959E3F6E
S11316C008F0B3CF9395880F08F09927EE0F9795FC
S11316D087950895D9D008F481E008950CD00FC1FE
S11316E007D140F0FED030F021F45F3F19F0F0C094
S11316F0511139C1F3C014D198F39923C9F3552377
S1131700B1F3951B550BBB27AA27621773078407F0
S113171038F09F5F5F4F220F331F441FAA1FA9F3A6
S113172033D00E2E3AF0E0E830D091505040E69598
S1131730001CCAF729D0FE2F27D0660F771F881FF9
S1131740BB1F261737074807AB07B0E809F0BB0BE8
S1131750802DBF01FF2793585F4F2AF09E3F51050C
S113176068F0B6C000C15F3FECF3983EDCF38695A9
S113177077956795B795F7959F5FC9F7880F911D82
S11317809695879597F90895E1E0660F771F881F6E
S1131790BB1F621773078407BA0720F0621B730B21
S11317A0840BBA0BEE1F88F7E095089504D0689473
S11317B0B111D9C00895BCD088F09F5790F0B92FCB
S11317C09927B751A0F0D1F0660F771F881F991F92
S11317D01AF0BA95C9F712C0B13081F0C3D0B1E0A4
S11317E00895C0C0672F782F8827B85F39F0B93FB4
S11317F0CCF3869577956795B395D9F73EF4909594
S11318008095709561957F4F8F4F9F4F0895E89411
S113181009C097FB3EF490958095709561957F4F34
S11318208F4F9F4F9923A9F0F92F96E9BB279395E2
S1131830F695879577956795B795F111F8CFFAF4F2
S1131840BB0F11F460FF1BC06F5F7F4F8F4F9F4F23
S113185016C0882311F096E911C0772321F09EE881
S1131860872F762F05C0662371F096E8862F70E0E7
S113187060E02AF09A95660F771F881FDAF7880FC1
S11318809695879597F90895990F0008550FAA0B17
S1131890E0E8FEEF16161706E807F907C0F012167F
S11318A01306E407F50798F0621B730B840B950B82
S11318B039F40A2661F0232B242B252B21F40895D7
S11318C00A2609F4A140A6958FEF811D811D089574
S11318D097F99F6780E870E060E008959FEF80ECDF
S11318E0089500240A941616170618060906089582
S11318F000240A9412161306140605060895092EE8
S11319000394000C11F4882352F0BB0F40F4BF2B56
S113191011F460FF04C06F5F7F4F8F4F9F4F089596
S113192057FD9058440F551F59F05F3F71F047958C
S1131930880F97FB991F61F09F3F79F08795089571
S1131940121613061406551FF2CF4695F1DF08C090
S1131950161617061806991FF1CF869571056105AD
S113196008940895E894BB2766277727CB0197F955
S113197008950BD0C4CFB5DF28F0BADF18F0952353
S113198009F0A6CFABCF1124EECFCADFA0F3959F09
S1131990D1F3950F50E0551F629FF001729FBB2752
S11319A0F00DB11D639FAA27F00DB11DAA1F649FFE
S11319B06627B00DA11D661F829F2227B00DA11DB1
S11319C0621F739FB00DA11D621F839FA00D611D37
S11319D0221F749F3327A00D611D231F849F600D58
S11319E0211D822F762F6A2F11249F5750408AF091
S11319F0E1F088234AF0EE0FFF1FBB1F661F771F1D
S1131A00881F91505040A9F79E3F510570F060CF58
S1131A10AACF5F3FECF3983EDCF386957795679504
S1131A20B795F795E7959F5FC1F7FE2B880F911D3A
S1131A309695879597F90895EE0FFF1F881F8BBF22
S10F1A400790F691E02D1994F894FFCF64
S9030000FC
