:1000000072C0000079C300002AC300008FC0000046
:100010008DC000000C94060A0C94EA0987C0000009
:1000200085C0000083C0000081C000007FC00000C8
:100030007DC000007BC0000079C00000A4C20000A9
:1000400075C0000073C0000071C000006FC00000E8
:100050006DC000000C94CB0969C0000067C00000AF
:1000600065C000000C945D0A61C000005FC0000024
:100070005DC000005BC0000059C0000057C0000018
:1000800055C0000053C0000051C000004FC0000028
:100090000C946D0A4BC0000049C0000047C000002E
:1000A00045C0000043C000005EC300003FC0000028
:1000B0003DC000003BC0000039C0000037C0000058
:1000C00035C0000033C0000031C000000C947D0A30
:1000D0002DC000002BC000000C94B10A27C0000006
:1000E00025C00000E20311241FBECFEFD1E2DEBF26
:1000F000CDBF00E00CBF22E0A0E0B2E001C01D9245
:10010000AF38B207E1F710E0C3E7D0E000E006C087
:1001100021970109802FFE010E940E0DC237D107E1
:1001200080E00807A9F703D00C94160D69CF0E9450
:10013000220A0E94470A0E942E0AB8D54BD1789411
:1001400080917202882311F07CD601C091D78091F2
:1001500043028823A9F323D610924302F1CFCF9212
:10016000DF92EF92FF920F931F93FC014083518324
:10017000628373830483158326833783C086D18685
:10018000E286F3861F910F91FF90EF90DF90CF9062
:1001900008958F929F92AF92BF92EF92FF920F932A
:1001A0001F93CF93DF93EC017B016C857D858B01E1
:1001B0000E191F091F870E878A899B89800F911F3F
:1001C0008E3791052CF08DE790E09B8B8A8B0BC0CE
:1001D00083382FEF92071CF09B8B8A8B04C083E837
:1001E0009FEF9B8B8A8B6A897B89072E000C880B7B
:1001F000990B0E94D40B2C813D814E815F810E941E
:10020000840C4B015C01B801110F880B990B0E9403
:10021000D40B288139814A815B810E94840C9B0127
:10022000AC01C501B4010E94D10A4B015C0188896F
:100230009989B701681B790B072E000C880B990B65
:100240000E94D40B288539854A855B850E94840CE1
:100250009B01AC01C501B4010E94D00A2C893D89E3
:100260004E895F890E94D10A6C8B7D8B8E8B9F8B10
:10027000F98AE88ADF91CF911F910F91FF90EF905B
:10028000BF90AF909F908F9008958F929F92AF9262
:10029000BF92EF92FF920F931F93CF93DF93EC01E6
:1002A0007B016C857D858B010E191F091F870E87C9
:1002B0008A899B89800F911F8E3791052CF08DE7DD
:1002C00090E09B8B8A8B0BC083382FEF92071CF03A
:1002D0009B8B8A8B04C083E89FEF9B8B8A8B6A89F8
:1002E0007B89072E000C880B990B0E94D40B2C8164
:1002F0003D814E815F810E94840C4B015C01B801FD
:10030000110F880B990B0E94D40B288139814A81E7
:100310005B810E94840C9B01AC01C501B4010E9469
:10032000D10A4B015C0188899989B701681B790B57
:10033000072E000C880B990B0E94D40B2885398559
:100340004A855B850E94840C9B01AC01C501B40108
:100350000E94D00A6C8B7D8B8E8B9F8BF98AE88AEA
:10036000DF91CF911F910F91FF90EF90BF90AF90D1
:100370009F908F900895E1EBF0E08081846080830E
:10038000E0E7F0E08081816080831092B200089500
:1003900010981498479816980895089A0C9A0E9AEF
:1003A0003F9AF6CF0895EAE6F0E080818860808386
:1003B000ED9AE59A0895ED98E59A08952FB7F89487
:1003C00060910F02709110028091110290911202BF
:1003D0002FBF0895CF92DF92EF92FF920F931F935A
:1003E00010920A021092080210920702109206025E
:1003F000109205021092030281E080930202109293
:1004000001021092000210924802109249021092CA
:100410004A0210924B021092430261E08BE692E096
:10042000F1D262E08AE692E0EDD261E08DE592E001
:1004300048D262E080E592E044D22498E1E0F1E025
:1004400080818F7B8083E2E0F1E080818064808323
:100450002C9AA3DF1C9B07C069EF70E08BE692E04B
:10046000A6D21C99F9CFAADF60934C0270934D027B
:1004700080934E0290934F028BE692E083D21092CB
:10048000660210926702109268021092690281E07F
:10049000809309020F2EF6E6CF2EDC2CFAEEEF2E1B
:1004A000F1E4FF2EF02D04E016E52EE03EE346EFEA
:1004B00058E26DE372E48BE292E051DE0F2EF1EE32
:1004C000CF2EFAE7DF2EFCEDEF2EF0E4FF2EF02D1D
:1004D00000E010E0980142E558EB6AE271E483E144
:1004E00092E03DDE6D98759A46DF1F910F91FF9067
:1004F000EF90DF90CF9008951C9904C0809109027D
:10050000882389F08091000186FD3CC0809108021B
:100510008823C1F180910702811125C008951498A4
:100520001092050208958BE692E02CD210922002E0
:1005300010921F0281E080930902109266021092CD
:10054000670210926802109269021092080280936A
:10055000060234DF60934C0270934D0280934E028A
:1005600090934F02CFCF8BE692E00CD210922002F4
:1005700010921F0210920802109207028091050249
:100580008111CDCF08951F920F920FB60F921124B3
:100590008F939F93AF93BF9380910F02909110021E
:1005A000A0911102B09112020196A11DB11D80937C
:1005B0000F0290931002A0931102B0931202809147
:1005C0000B0290910C02A0910D02B0910E020396C5
:1005D000A11DB11D80930B0290930C02A0930D02FC
:1005E000B0930E0280910B0290910C02A0910D022B
:1005F000B0910E028D379105A105B10538F18091BA
:100600000B0290910C02A0910D02B0910E028D5739
:100610009109A109B10980930B0290930C02A09358
:100620000D02B0930E0280910F0290911002A091E2
:100630001102B09112020196A11DB11D80930F020B
:1006400090931002A0931102B0931202BF91AF9148
:100650009F918F910F900FBE0F901F9018951F9232
:100660000F920FB60F9211240BB60F928F939F9398
:10067000AF93BF93EF93FF93959919C0EDE5F2E027
:1006800085819681A781B0850196A11DB11D8583C5
:100690009683A783B08781859285A385B4850196CB
:1006A000A11DB11D81879287A387B48718C0EDE58E
:1006B000F2E085819681A781B0850197A109B109F2
:1006C00085839683A783B08781859285A385B4852A
:1006D0000197A109B10981879287A387B487FF9108
:1006E000EF91BF91AF919F918F910F900BBE0F90A3
:1006F0000FBE0F901F9018951F920F920FB60F927A
:1007000011240BB60F928F939F93AF93BF93EF93E8
:10071000FF9363990EC0E0E5F2E081859285A385A1
:10072000B4850196A11DB11D81879287A387B487E7
:100730000DC0E0E5F2E081859285A385B48501973F
:10074000A109B10981879287A387B487FF91EF91AF
:10075000BF91AF919F918F910F900BBE0F900FBEE5
:100760000F901F9018951F920F920FB60F921124A1
:100770000BB60F924F935F936F937F938F93EF938B
:10078000FF9381E080930002EDE5F2E04581568120
:1007900067817085418352836383748315821682D7
:1007A0001782108680934302FF91EF918F917F9182
:1007B0006F915F914F910F900BBE0F900FBE0F90F6
:1007C0001F901895EDE5F2E01182128213821482D7
:1007D0001582168217821086118612861386148659
:1007E000E0E5F2E0118212821382148215821682F1
:1007F000178210861186128613861486EBE2F2E0C9
:10080000108211821282138214821582168217823C
:10081000108611861286138615861486178616860C
:10082000118A108A138A128AE3E1F2E0108211829F
:100830001282138214821582168217821086118604
:10084000128613861586148617861686118A108AD4
:10085000138A128A089580916C02811117C0E1EA0F
:10086000F0E080818B608083E2E7F0E0808182604D
:10087000808388E893E19093A9008093A800109268
:10088000A5001092A40081E080936C0208957894F2
:10089000FC012081213049F4E998E9E6F0E020816B
:1008A00028602083E99AE19A0AC0223041F4E8984E
:1008B000E9E6F0E0208122602083E89AE09ACBCF3D
:1008C0000895FC016083613029F451989D98599AEC
:1008D000A59A06C0623021F450986B98589A739A82
:1008E000D6CF0895FC0180818130C1F40B9A099A1A
:1008F000EAE0F1E0808180628083E0E2F1E08081E3
:100900008A608083E1E2F1E080818A61808389EFFF
:1009100090E0909327018093260108958230B9F4E6
:100920000F9A0D9AEAE0F1E0808180618083E0E235
:10093000F1E0808182628083E1E2F1E080818A617E
:10094000808389EF90E0909327018093260108959A
:10095000FC018081813019F0823021F00895139AD2
:1009600011980895179A15980895FC018081813097
:1009700019F0823021F008951398119A089517986C
:10098000159A0895FC018081813019F0823041F080
:1009900008951398119810922D0110922C0108952A
:1009A0001798159810922B0110922A0108950F9311
:1009B0001F93CF93DF938C01EB011C161D060CF4E3
:1009C000C7DFDD232CF4D195C195D109C801CDDF56
:1009D000CA3FD10514F0C9EFD0E0F8018081813021
:1009E00019F0823031F009C0D0932D01C0932C0151
:1009F00004C0D0932B01C0932A01DF91CF911F91A6
:100A00000F910895CF93DF93EC0168836BDFCE01E4
:100A1000B9DF60E070E0CE01CADFDF91CF910895C9
:100A20000F931F938091660290916702A0916802D4
:100A3000B0916902853C9F4FAF4FBF4F4CF48091FE
:100A40000902882329F01092090281E080930702AD
:100A500080910A02882309F45CC080915902909128
:100A60005A02A0915B02B0915C0288369140A105C8
:100A7000B10554F16091390270913A0277231CF468
:100A8000719561957109072E000C880B990B8CD616
:100A900020E030E040E450E4E8D51816ACF01092C5
:100AA000590210925A0210925B0210925C02EBE221
:100AB000F2E015861486138A128A148A158A168A19
:100AC000178A10920A0225C080910502882391F0AE
:100AD0008091590290915A02A0915B02B0915C0200
:100AE000883C9105A105B1052CF01698479881E046
:100AF000809302028091590290915A02A0915B0268
:100B0000B0915C0288379105A105B10514F01092EF
:100B10000302809100028823C1F060915902709114
:100B20005A028BE292E0B1DB0CD68AE692E03FDF1C
:100B300060915E0270915F0283E192E02ADB01D650
:100B40008BE692E034DF1092000280910502882348
:100B500009F1809109028823E9F030DC00914C0210
:100B600010914D0220914E0230914F02DC01CB01D9
:100B7000801B910BA20BB30B8D3B9240A105B105DD
:100B800048F08DEF9FEF9093200280931F0281E049
:100B900080930802809103028823E9F00FDC009122
:100BA00048021091490220914A0230914B02DC0127
:100BB000CB01801B910BA20BB30B8D3B9240A10587
:100BC000B10548F088E691E09093380280933702AF
:100BD00081E080930A02809101028823D1F0EEDB4C
:100BE0000091440210914502209146023091470243
:100BF000DC01CB01801B910BA20BB30B8D3291401A
:100C0000A105B10530F092B180E4892782B9109234
:100C1000010280910602882321F1D0DB00914C0271
:100C200010914D0220914E0230914F02DC01CB0118
:100C3000801B910BA20BB30B8C3B9240A105B1051D
:100C400080F010981092060280910502882349F0E6
:100C500088E691E0909338028093370281E0809398
:100C60000A021F910F91089510927402109275025A
:100C700084B5826084BD85B5856085BDEEE6F0E013
:100C800080818260808316BC8BE987BD0895989A25
:100C90003E9A3C9A9A9A389A3A9A999AA098469883
:100CA0004498A29840984298A1980895ECE7F2E001
:100CB00082E38083818382831092710210927A0290
:100CC000109279021092780289E080937B02109250
:100CD00072021092040210BA6C98749AEAE0F1E081
:100CE000808184608083C0DFD2CF0895EAE6F0E09F
:100CF000808182608083EC9AE49A0895EC98E49A6B
:100D00000895109279021092780210927702109250
:100D1000730241E050E06FB170E0CA01019702C078
:100D2000759567958A95E2F7617060937602862FD4
:100D300090E0849F9001859F300D949F300D112489
:100D4000C901880F991F220F331F220F331F220F53
:100D5000331F280F391F8091780290917902280F54
:100D6000391F309379022093780290917702690FAE
:100D700060937702409373024F5F5F4F4930510594
:100D800051F6611101C061E06093770270E0C90122
:100D90001ED6862F60937802709379020895CF93C0
:100DA000DF9380917202882369F08EEF7ED3809169
:100DB00071027BD3A6DF79D380917A0276D3109229
:100DC00071020EC08DEF71D3CCE7D2E088816DD374
:100DD00089816BD38A8169D382E3888389838A83FB
:100DE000DF91CF9108951E9B07C080917A028E7F7C
:100DF00080937A02449806C080917A028160809341
:100E00007A02449A1F9B07C080917A028D7F80935B
:100E10007A02A19806C080917A02826080937A0259
:100E2000A19A1D9B07C080917A028B7F80937A02E2
:100E30004098089580917A02846080937A02409A63
:100E400008950F931F93CF93A09A469880918302A1
:100E5000803429F410927202109283025DC08130B6
:100E600071F480937102809308028DEF9FEF90934D
:100E7000200280931F0297DA109283024DC08230C5
:100E800029F4809371021092830246C0843031F4B9
:100E900083E080937102109283023EC0883031F467
:100EA00085E0809371021092830236C09091010216
:100EB000911132C09091050291112EC090910302C0
:100EC00091112AC0803241F580910202882381F07D
:100ED00081E08093030272DA6093480270934902C2
:100EE00080934A0290934B0288B1805888B901C020
:100EF0004798C1E0C093010261DA609344027093A5
:100F00004502809346029093470280910202C827CF
:100F1000C09302021092830280918402803229F4ED
:100F200084E0809371021092840280918202843066
:100F3000B1F481E08093080280930502169A109A1A
:100F4000809304023BDA60936D0270936E0280938B
:100F50006F02909370022FDA109282024EC0853099
:100F600081F4109A81E08093040228DA60936D0284
:100F700070936E0280936F029093700210928202BF
:100F80003CC0863049F580910202882381F081E0DF
:100F90008093030213DA60934802709349028093AE
:100FA0004A0290934B0288B1805888B901C0479893
:100FB000C1E0C093010202DA6093440270934502DB
:100FC000809346029093470280910202C827C09303
:100FD00002021092820211C0873021F41098109200
:100FE00082020BC0883021F481DE1092820205C09B
:100FF000893019F483DE10928202809104028823E2
:1010000041F1DCD900916D0210916E0220916F02C6
:1010100030917002DC01CB01801B910BA20BB30B52
:10102000843F9140A105B105A0F0149A809105027A
:10103000882361F083E090E09093200280931F0268
:1010400082E0809371021092040203C085E08093D5
:10105000710280910802811104C010922002109246
:101060001F02DEDC49DABFDECF911F910F91089598
:101070000F931F93CF93DF93469AA0988091840299
:10108000823051F4ECE7F2E092E3908380917B02AE
:101090008E5C8183928325C0883059F4ECE7F2E0BE
:1010A00082E3808390917B02282F291B21838283F6
:1010B00018C0813051F4ECE7F2E080917B028E5C45
:1010C000808382E3818382830CC0843051F4ECE717
:1010D000F2E082E390917B02682F691B6083818339
:1010E000828380918302803431F481E080937202A4
:1010F0001092830288C0813031F492B1892782B97D
:101100001092830280C0823059F4909109029111AB
:1011100044C092B180E1892782B91092830273C0E2
:101120008430B9F481E08093080280910902882319
:1011300039F08DEF9FEF9093200280931F0206C03D
:1011400083E090E09093200280931F02109283022C
:1011500071C0883061F488E691E090933802809302
:10116000370281E080930A02109283024CC08031E2
:10117000A1F490910902911110C081E080930802BE
:1011800080930502169A149A83E090E090932002CF
:1011900080931F021092830236C090910102911138
:1011A00032C09091050291112EC0909103029111CD
:1011B0002AC0803241F580910202882381F081E0CB
:1011C00080930302FBD86093480270934902809396
:1011D0004A0290934B0288B1805888B901C0479861
:1011E000C1E0C0930102EAD86093440270934502C3
:1011F000809346029093470280910202C827C093D1
:1012000002021092830280910802811113C0809122
:101210008502853108F4B4C01C99ABC0B1C08DEF14
:101220009FEF9093200280931F0204C0109220022F
:1012300010921F028091880290E09C012253310994
:101240001216130624F42630310544F032C042E36E
:1012500050E0FA01E81BF90B36975CF580918702A4
:1012600090E0AC01425351091416150624F446309F
:1012700051054CF01EC042E350E0BA01681B790BE7
:1012800066307105B4F48091890290E0AC0142535C
:101290005109141615062CF4463051050CF463C0A0
:1012A00008C042E350E0FA01E81BF90B36970CF452
:1012B0005AC081E08093740240917502CCE7D2E07D
:1012C0004203B001439F700D1124072E000C880BC0
:1012D000990B6AD220E030E040E752E4CAD120E026
:1012E00030E048E452E45DD131D268834091750228
:1012F00003E812E0F801248130E02253310942036F
:10130000B001439F700D1124072E000C880B990B20
:101310004BD220E030E040E752E4ABD120E030E0B7
:1013200048E452E43ED112D2698340917502F8013B
:10133000268130E0225331094203B001439F700DF2
:101340001124072E000C880B990B2ED220E030E0E0
:1013500040E752E48ED120E030E048E452E421D16D
:10136000F5D16A8302C0109274025ADBC5D83BDD06
:101370000DC083E090E09093200280931F025ACF2B
:1013800080918602853108F04ACF50CFDF91CF910E
:101390001F910F9108951F920F920FB60F92112473
:1013A0008F9380917402882331F0809175028F5F52
:1013B0008093750202C010927502809175028D3380
:1013C0001CF08CE3809375028F910F900FBE0F90ED
:1013D0001F9018951F920F920FB60F9211240BB603
:1013E0000F928F939F93EF93FF93EBE0F1E0908147
:1013F00084E089278083FF91EF919F918F910F90D7
:101400000BBE0F900FBE0F901F9018951F920F925A
:101410000FB60F9211240BB60F928F939F93EF93F9
:10142000FF93EBE0F1E0908184E089278083FF91D6
:10143000EF919F918F910F900BBE0F900FBE0F9069
:101440001F9018951092C50087E68093C40088E924
:101450008093C10086E08093C200089510928102BB
:10146000E3E8F2E0108211821282138282E3848325
:101470008583868387831092D50089E18093D40089
:1014800088E98093D10086E08093D200089510927D
:1014900082021092350189E18093340188E98093BA
:1014A000310186E0809332010895E0E3F1E090811C
:1014B00095FFFDCF8093360108951F920F920FB6CE
:1014C0000F9211248F938091C60080938E028F918A
:1014D0000F900FBE0F901F9018951F920F920FB68E
:1014E0000F9211248F938091CE0080938D028F9163
:1014F0000F900FBE0F901F9018951F920F920FB66E
:101500000F9211240BB60F928F939F93EF93FF933B
:101510008091D60080938B0290918002992389F06C
:1015200090918102E92FF0E0ED57FD4F80839F5F9E
:10153000983018F49093810204C0109281021092A6
:1015400080028F3719F481E080938002FF91EF9140
:101550009F918F910F900BBE0F900FBE0F901F9019
:1015600018951F920F920FB60F9211248F939F938D
:101570008091360180938C0290917F02992321F013
:101580008093820210927F028C3F19F481E0809355
:101590007F029F918F910F900FBE0F901F90189513
:1015A0005058BB27AA270ED075C166D130F06BD139
:1015B00020F031F49F3F11F41EF45BC10EF4E0956E
:1015C000E7FB51C1E92F77D180F3BA1762077307A0
:1015D0008407950718F071F49EF58FC10EF4E0951D
:1015E0000B2EBA2FA02D0B01B90190010C01CA01DD
:1015F000A0011124FF27591B99F0593F50F4503E88
:1016000068F11A16F040A22F232F342F4427585F79
:10161000F3CF469537952795A795F0405395C9F791
:101620007EF41F16BA0B620B730B840BBAF0915049
:10163000A1F0FF0FBB1F661F771F881FC2F70EC0E8
:10164000BA0F621F731F841F48F4879577956795BB
:10165000B795F7959E3F08F0B3CF9395880F08F0A4
:101660009927EE0F979587950895D9D008F481E0D2
:1016700008950CD00FC107D140F0FED030F021F416
:101680005F3F19F0F0C0511139C1F3C014D198F384
:101690009923C9F35523B1F3951B550BBB27AA27F3
:1016A00062177307840738F09F5F5F4F220F331F65
:1016B000441FAA1FA9F333D00E2E3AF0E0E830D031
:1016C00091505040E695001CCAF729D0FE2F27D034
:1016D000660F771F881FBB1F261737074807AB0702
:1016E000B0E809F0BB0B802DBF01FF2793585F4F77
:1016F0002AF09E3F510568F0B6C000C15F3FECF391
:10170000983EDCF3869577956795B795F7959F5F3B
:10171000C9F7880F911D9695879597F90895E1E08F
:10172000660F771F881FBB1F621773078407BA07EE
:1017300020F0621B730B840BBA0BEE1F88F7E09549
:10174000089504D06894B111D9C00895BCD088F030
:101750009F5790F0B92F9927B751A0F0D1F0660F9D
:10176000771F881F991F1AF0BA95C9F712C0B130B8
:1017700081F0C3D0B1E00895C0C0672F782F8827CB
:10178000B85F39F0B93FCCF3869577956795B395F7
:10179000D9F73EF490958095709561957F4F8F4F66
:1017A0009F4F0895E89409C097FB3EF4909580956B
:1017B000709561957F4F8F4F9F4F9923A9F0F92F17
:1017C00096E9BB279395F695879577956795B79595
:1017D000F111F8CFFAF4BB0F11F460FF1BC06F5F7B
:1017E0007F4F8F4F9F4F16C0882311F096E911C08D
:1017F000772321F09EE8872F762F05C0662371F0AE
:1018000096E8862F70E060E02AF09A95660F771FC1
:10181000881FDAF7880F9695879597F90895990F9D
:101820000008550FAA0BE0E8FEEF16161706E807AA
:10183000F907C0F012161306E407F50798F0621BCB
:10184000730B840B950B39F40A2661F0232B242BA0
:10185000252B21F408950A2609F4A140A6958FEFBF
:10186000811D811D089597F99F6780E870E060E011
:1018700008959FEF80EC089500240A941616170629
:1018800018060906089500240A9412161306140671
:1018900005060895092E0394000C11F4882352F0D4
:1018A000BB0F40F4BF2B11F460FF04C06F5F7F4F8C
:1018B0008F4F9F4F089557FD9058440F551F59F073
:1018C0005F3F71F04795880F97FB991F61F09F3F2D
:1018D00079F087950895121613061406551FF2CF56
:1018E0004695F1DF08C0161617061806991FF1CFA6
:1018F00086957105610508940895E894BB276627CD
:101900007727CB0197F908950BD0C4CFB5DF28F026
:10191000BADF18F0952309F0A6CFABCF1124EECF94
:10192000CADFA0F3959FD1F3950F50E0551F629F3A
:10193000F001729FBB27F00DB11D639FAA27F00D28
:10194000B11DAA1F649F6627B00DA11D661F829F4F
:101950002227B00DA11D621F739FB00DA11D621F34
:10196000839FA00D611D221F749F3327A00D611D51
:10197000231F849F600D211D822F762F6A2F112433
:101980009F5750408AF0E1F088234AF0EE0FFF1F86
:10199000BB1F661F771F881F91505040A9F79E3FBD
:1019A000510570F060CFAACF5F3FECF3983EDCF3B7
:1019B000869577956795B795F795E7959F5FC1F7FA
:1019C000FE2B880F911D9695879597F9089597FBA3
:1019D000072E16F4009406D077FD08D00BD007FC34
:1019E00005D03EF4909581959F4F0895709561952F
:1019F0007F4F0895AA1BBB1B51E107C0AA1FBB1F45
:101A0000A617B70710F0A61BB70B881F991F5A958A
:101A1000A9F780959095BC01CD010895EE0FFF1FA9
:101A2000881F8BBF0790F691E02D1994F894FFCF93
:00000001FF
