:1000000072C0000098C3000049C300000C94E70AC6
:100010008DC000000C94180B0C94CB0A87C0000014
:1000200085C0000083C0000081C000007FC00000C8
:100030007DC000007BC0000079C00000C3C200008A
:1000400075C0000073C0000071C000006FC00000E8
:100050006DC000000C94AC0A69C0000067C00000CD
:1000600065C000000C94810B61C000005FC00000FF
:100070005DC000005BC0000059C0000057C0000018
:1000800055C0000053C0000051C000004FC0000028
:100090000C94910B4BC0000049C0000047C0000009
:1000A00045C0000043C000007DC300003FC0000009
:1000B0003DC000003BC0000039C0000037C0000058
:1000C00035C0000033C0000031C000000C94A10B0B
:1000D0002DC000002BC000000C94D70B27C00000DF
:1000E00025C00000010411241FBECFEFD1E2DEBF06
:1000F000CDBF00E00CBF22E0A0E0B2E001C01D9245
:10010000A639B207E1F710E0C3E7D0E000E006C08F
:1001100021970109802FFE010E940F0EC237D107DF
:1001200080E00807A9F703D00C94170E69CF0E944E
:10013000460B0E946B0B0E94520BF8D551D178945C
:1001400080917B02882311F0B6D602C00E94090973
:10015000809146028823A1F34FD610924602F0CF39
:10016000CF92DF92EF92FF920F931F93FC01408397
:100170005183628373830483158326833783C08608
:10018000D186E286F3861F910F91FF90EF90DF906A
:10019000CF900895CF92DF92EF92FF920F931F932B
:1001A000CF93DF93EC018B016C857D85601B710B18
:1001B0007F876E878A899B89860F971F8E37910567
:1001C0002CF08DE790E09B8B8A8B0BC083382FEF50
:1001D00092071CF09B8B8A8B04C083E89FEF9B8B5C
:1001E0008A8B072E000C880B990B0E94FC0C28812F
:1001F00039814A815B810E94AC0D6B017C018A8947
:100200009B89BC01990F880B990B0E94FC0C2C81D7
:100210003D814E815F810E94AC0D9B01AC01C70105
:10022000B6010E94F90B6B017C01888999899801BC
:10023000281B390BB901330F880B990B0E94FC0C5A
:10024000288539854A855B850E94AC0D9B01AC01F0
:10025000C701B6010E94F80B2C893D894E895F8940
:100260000E94F90B6C8B7D8B8E8B9F8B198B088B6F
:10027000DF91CF911F910F91FF90EF90DF90CF9082
:100280000895CF92DF92EF92FF920F931F93CF9337
:10029000DF93EC018B016C857D85601B710B7F8783
:1002A0006E878A899B89860F971F8E3791052CF060
:1002B0008DE790E09B8B8A8B0BC083382FEF9207E2
:1002C0001CF09B8B8A8B04C083E89FEF9B8B8A8BEF
:1002D000072E000C880B990B0E94FC0C2881398199
:1002E0004A815B810E94AC0D6B017C018A899B89EC
:1002F000BC01990F880B990B0E94FC0C2C813D814D
:100300004E815F810E94AC0D9B01AC01C701B6011B
:100310000E94F90B6B017C01888999899801281B3F
:10032000390BB901330F880B990B0E94FC0C2885FF
:1003300039854A855B850E94AC0D9B01AC01C701E4
:10034000B6010E94F80B6C8B7D8B8E8B9F8B198B6B
:10035000088BDF91CF911F910F91FF90EF90DF906D
:10036000CF900895E1EBF0E0808184608083E0E746
:10037000F0E08081816080831092B200089510982F
:100380001498129847980895089A0C9A3F9A0A9AD6
:10039000F6CF0895F894ED9AEAE6F0E0808188605F
:1003A0008083E59A78940895E59AED980895F894F5
:1003B000EA9AE9E6F0E0808180628083E29A7894AC
:1003C0000895E29AEA9808952FB7F89460910F0281
:1003D0007091100280911102909112022FBF089526
:1003E000CF92DF92EF92FF920F931F93CF93DF9301
:1003F00010920A021092080210920702109206024E
:1004000010920502109204021092020281E0809381
:1004100001021092000210924502109244021092C2
:10042000430210924B0210924C0210924D02109215
:100430004E021092460261E08EE692E002D362E044
:100440008DE692E0FED261E080E692E059D262E071
:1004500083E592E055D22498E1E0F1E080818F7B42
:100460008083E2E0F1E08081806480832C9A8CDFDD
:100470008091000186FF0AC0C0E0D1E06EEC7FEF02
:100480008EE692E0B3D2888186FDF8CF1092090201
:100490009BDF60934F0270935002809351029093C0
:1004A0005202E0E6F2E011861286138614868185F8
:1004B0009285A385B48588389105A105B1057CF4A2
:1004C000EF0162E370E08EE692E090D289859A8532
:1004D000AB85BC8588389105A105B10594F30F2E35
:1004E000F3E3CF2EDC2CF1E2EF2EF2E4FF2EF02D21
:1004F00004E016E52EE03EE346EF58E26DE372E4D9
:100500008BE292E02DDE0F2EF1E7CF2EFDE3DF2E02
:10051000FEE1EF2EF1E4FF2EF02D00E010E0980157
:1005200048EB5EE165E470E483E192E019DE6D98EA
:10053000759A52985A9A16DFDF91CF911F910F91B9
:10054000FF90EF90DF90CF9008951C9904C08091A8
:10055000070281110DC08091000186FD32C080919B
:10056000060281111AC00895149810920402089589
:100570001092200210921F0210920802109207029D
:1005800081E08093050220DF60934F027093500258
:100590008093510290935202DECF10926902109222
:1005A0006A0210926B0210926C021092200210925A
:1005B0001F0210920802109206028091040281111B
:1005C000D3CF08951F920F920FB60F9211248F93DD
:1005D0009F93AF93BF9380910F0290911002A091CF
:1005E0001102B09112020196A11DB11D80930F025C
:1005F00090931002A0931102B093120280910B020B
:1006000090910C02A0910D02B0910E020396A11DD3
:10061000B11D80930B0290930C02A0930D02B09336
:100620000E0280910B0290910C02A0910D02B091EC
:100630000E028D379105A105B10538F180910B02AD
:1006400090910C02A0910D02B0910E028D5791096C
:10065000A109B10980930B0290930C02A0930D02A3
:10066000B0930E0280910F0290911002A09111029E
:10067000B09112020196A11DB11D80930F029093BB
:100680001002A0931102B0931202BF91AF919F91FB
:100690008F910F900FBE0F901F9018951F920F9281
:1006A0000FB60F9211240BB60F928F939F93AF93B7
:1006B000BF93EF93FF93959919C0E0E6F2E085812F
:1006C0009681A781B0850197A109B1098583968399
:1006D000A783B08781859285A385B4850197A109F9
:1006E000B10981879287A387B48718C0E0E6F2E05A
:1006F00085819681A781B0850196A11DB11D858355
:100700009683A783B08781859285A385B48501965A
:10071000A11DB11D81879287A387B487FF91EF91B7
:10072000BF91AF919F918F910F900BBE0F900FBE15
:100730000F901F9018951F920F920FB60F921124D1
:100740000BB60F928F939F93AF93BF93EF93FF934B
:1007500063990EC0E3E5F2E081859285A385B485B7
:100760000196A11DB11D81879287A387B4870DC013
:10077000E3E5F2E081859285A385B4850197A1091F
:10078000B10981879287A387B487FF91EF91BF91C9
:10079000AF919F918F910F900BBE0F900FBE0F9056
:1007A0001F9018951F920F920FB60F9211240BB63F
:1007B0000F924F935F936F937F938F93EF93FF937A
:1007C00081E080934502E0E6F2E045815681678151
:1007D00070854183528363837483158216821782E6
:1007E000108680934602FF91EF918F917F916F91D8
:1007F0005F914F910F900BBE0F900FBE0F901F9007
:100800001895E0E6F2E011821282138214821582BA
:100810001682178210861186128613861486E3E5E7
:10082000F2E01182128213821482158216821782DC
:1008300010861186128613861486EBE2F2E010828F
:1008400011821282138214821582168217821086F8
:100850001186128613861586148617861686118AC7
:10086000108A138A128AE3E1F2E010821182128266
:1008700013821482158216821782108611861286C0
:1008800013861586148617861686118A108A138A8F
:10089000128A089580916F02811117C0E1EAF0E099
:1008A00080818B608083E2E7F0E0808182608083DA
:1008B00088E893E19093A9008093A8001092A50086
:1008C0001092A40081E080936F0208957894FC0157
:1008D0002081213049F4E998E9E6F0E020812860A0
:1008E0002083E99AE19A0AC0223041F4E898E9E6C7
:1008F000F0E0208122602083E89AE09ACBCF08952F
:10090000FC016083613029F451989D98599AA59A09
:1009100006C0623021F450986B98589A739AD6CFDB
:100920000895FC0180818130C1F40B9A099AEAE0B4
:10093000F1E0808180628083E0E2F1E080818A6082
:100940008083E1E2F1E080818A61808389EF90E039
:10095000909327018093260108958230B9F40F9A6D
:100960000D9AEAE0F1E0808180618083E0E2F1E0CD
:10097000808182628083E1E2F1E080818A6180830C
:1009800089EF90E090932701809326010895FC0160
:100990008081813019F0823021F00895139A1198E6
:1009A0000895179A15980895FC018081813019F0F7
:1009B000823021F008951398119A08951798159A86
:1009C0000895FC018081813019F0823041F0089552
:1009D0001398119810922D0110922C0108951798D8
:1009E000159810922B0110922A0108950F931F93CE
:1009F000CF93DF938C01EB011C161D060CF4C7DFAF
:100A0000DD232CF4D195C195D109C801CDDFCA3FB2
:100A1000D10514F0C9EFD0E0F8018081813019F0E0
:100A2000823031F009C0D0932D01C0932C0104C055
:100A3000D0932B01C0932A01DF91CF911F910F9189
:100A40000895CF93DF93EC0168836BDFCE01B9DFAC
:100A500060E070E0CE01CADFDF91CF9108950F937F
:100A60001F938091690290916A02A0916B02B091EC
:100A70006C0285369105A105B1050CF0E9C08091A5
:100A800009028111F4C01FC180910902882309F471
:100A9000F4C080910A02882309F448C080915C0266
:100AA00090915D02A0915E02B0915F028836914004
:100AB000A105B1050CF402C16091390270913A02AE
:100AC00077231CF4719561957109072E000C880B32
:100AD000990B92D720E030E040E450E4EED61816AF
:100AE0000CF0D1C0EBC080915C0290915D02A091AE
:100AF0005E02B0915F02883C9105A105B1050CF042
:100B0000D7C080915C0290915D02A0915E02B0918D
:100B10005F0288379105A105B10544F010920202E9
:100B200080914502882309F442C004C080914502A7
:100B30008823E1F060915C0270915D0280915E0219
:100B400090915F028BE292E09CDB23D78DE692E0EE
:100B50004DDF609161027091620283E192E01ADBE5
:100B600018D78EE692E042DF109245028091020291
:100B70008823E9F029DC00914B0210914C0220916E
:100B80004D0230914E02DC01CB01801B910BA20B78
:100B9000B30B8D3B9240A105B10548F088E691E08A
:100BA000909338028093370281E080930A0280910B
:100BB00000028823C9F008DC009147021091480226
:100BC0002091490230914A02DC01CB01801B910B3C
:100BD000A20BB30B8D329140A105B10528F088B16D
:100BE000805888B91092000280910502882309F488
:100BF00078C0EADB00914F0210915002209151021F
:100C000030915202DC01CB01801B910BA20BB30B84
:100C10008C329140A105B10508F463C01098109280
:100C2000050280910402882309F45BC08DEF9FEFD9
:100C30009093200280931F0281E08093080228E6AF
:100C400031E0309338022093370280930A0249C082
:100C50008091690290916A02A0916B02B0916C023E
:100C600084369105A105B1050CF00ECF12CF10927C
:100C7000090281E0809306020CCF81E08093090293
:100C80008093070206CF10925C0210925D021092D0
:100C90005E0210925F02EBE2F2E015861486138A80
:100CA000128A148A158A168A178A10920A023ECF6F
:100CB0004798129881E08093010223CF809104022B
:100CC000811111CF1ECF8091690290916A02A0918B
:100CD0006B02B0916C0284369105A105B1056CF6EA
:100CE000D8CE1F910F91089510927E0210927F022C
:100CF00084B5826084BD85B5856085BDEEE6F0E093
:100D000080818260808316BC8BE987BD0895989AA4
:100D10003E9A3C9A9A9A389A3A9A999AA098469802
:100D20004498A29840984298A19808951092810200
:100D300089E08093820210927B026C98749AEAE0B8
:100D4000F1E0808184608083E3E8F2E082E38083E5
:100D50008183828310927002109275021092760243
:100D60001092770210927802109271021092720221
:100D7000109273021092740210927A02109203027F
:100D800010927D0210927C0210927902ADDFBFCFEB
:100D90000895F894EAE6F0E0808182608083EC9A1E
:100DA000E49A78940895EC98E49A0895E3E8F2E0E0
:100DB00082E3808381838283109270021092750295
:100DC00010927602109277021092780210927102BD
:100DD00010927202109273021092740210927A02B0
:100DE0001092030210927D0210927C0210927902FE
:100DF000DBDAE7DAD8CF0895CF93DF9380917B02D7
:100E0000882371F08EEF75D48091700272D4809136
:100E100080026FD4809181026CD4109270020EC057
:100E20008DEF67D4C3E8D2E0888163D4898161D42F
:100E30008A815FD482E3888389838A83DF91CF911B
:100E400008951E9B07C0809181028E7F809381024E
:100E5000449806C080918102816080938102449A07
:100E60001F9B07C0809181028D7F80938102A19892
:100E700006C080918102826080938102A19A1D9BAD
:100E800007C0809181028B7F80938102409806C0C9
:100E900080918102846080938102409A4B9908C0BE
:100EA0008091000185FD04C082E080938002089556
:100EB0001092800208950F931F9381E0809379022E
:100EC000A09A469880918A02803429F410927B027D
:100ED00010928A028CC0813099F480910902882393
:100EE00049F08DEF9FEF9093200280931F0281E0E5
:100EF0008093080281E08093700210928A0277C08A
:100F0000823099F480910902882349F08DEF9FEF98
:100F10009093200280931F0281E08093080282E078
:100F20008093700210928A0262C0843099F480919A
:100F30000902882349F08DEF9FEF90932002809360
:100F40001F0281E08093080283E080937002109278
:100F50008A024DC08830A1F4429A80910902882308
:100F600049F08DEF9FEF9093200280931F0281E064
:100F70008093080289E08093700210928A0237C041
:100F800090910002911133C09091040291112FC0F1
:100F90009091020291112BC0803249F5809101029B
:100FA000882389F081E0809302020EDA60934B027D
:100FB00070934C0280934D0290934E0292B184E064
:100FC000892782B901C0129811E010930002FCD960
:100FD00060934702709348028093490290934A02BB
:100FE0008091010218271093010210928A028091C9
:100FF0008B02803231F484E08093700210928B0275
:101000001EC0813021F485E08093700218C08430C6
:1010100021F486E08093700212C0823021F487E0D0
:10102000809370020CC0883019F48093700207C05E
:10103000803429F48DE08093700210928B028091AD
:1010400089028430A9F481E080930402479A109ABF
:1010500080930302B9D960937502709376028093EE
:10106000770290937802A2989FD9109289025FC06C
:10107000853091F4109AA29897D981E08093030269
:10108000A3D9609375027093760280937702909350
:101090007802109289024BC090910002911134C0E5
:1010A00090910402911130C09091020291112CC0D4
:1010B0008A3051F580910102882389F081E0809384
:1010C000020282D960934B0270934C0280934D02CE
:1010D00090934E0292B184E0892782B901C01298A0
:1010E00011E01093000270D9609347027093480298
:1010F0008093490290934A0280910102182710932D
:1011000001021092890213C08B3029F443D9A29AAC
:10111000109289020CC08C3021F449D910928902B6
:1011200006C08F3021F435DEA29A10928902809198
:101130000302882379F148D9009175021091760253
:101140002091770230917802DC01CB01801B910B5A
:10115000A20BB30B843F9140A105B105D8F0149ABE
:101160001092030280910402882389F08091090281
:10117000811109C083E090E09093200280931F02C8
:1011800081E08093080282E08093700203C089E0CE
:101190008093700280910802811104C01092200295
:1011A00010921F0280917D02882371F081E080936C
:1011B0007C020AD960937102709372028093730269
:1011C0009093740210927D0280917C028823D9F062
:1011D000FBD800917102109172022091730230913C
:1011E0007402DC01CB01801B910BA20BB30B843F7B
:1011F0009140A105B10538F0109842988EE0809397
:10120000700210927C022BDCA0D91BDE1F910F9183
:1012100008950F931F93CF93DF93469AA0988091E0
:1012200079028111C3DD80918B02823051F4E3E8B1
:10123000F2E092E39083809182028E5C81839283BC
:1012400025C0883059F4E3E8F2E082E3808390918E
:101250008202282F291B2183828318C0813051F4F8
:10126000E3E8F2E0809182028E5C808382E38183F6
:1012700082830CC0843051F4E3E8F2E082E3909181
:101280008202682F691B60838183828380918A0236
:10129000803431F481E080937B0210928A028EC008
:1012A000813031F492B1892782B910928A0286C0C6
:1012B000823059F490910902911149C092B180E1B4
:1012C000892782B910928A0279C08430B9F481E00A
:1012D0008093080280910902882339F08DEF9FEFF7
:1012E0009093200280931F0206C083E090E09093C9
:1012F000200280931F0210928A0260C0883061F43D
:1013000088E691E0909338028093370281E08093E1
:101310000A0210928A0252C08031C9F490910902E7
:10132000911115C081E080930402479A149A80912C
:101330000902811109C083E090E09093200280931C
:101340001F0281E08093080210928A0237C09091B8
:101350000002911133C09091040291112FC090911D
:10136000020291112BC0803249F58091010288233D
:1013700089F081E08093020227D860934B0270933A
:101380004C0280934D0290934E0292B184E08927E3
:1013900082B901C01298C1E0C093000215D86093D1
:1013A0004702709348028093490290934A028091C9
:1013B0000102C827C093010210928A02809108029C
:1013C00081110DC080918C02853108F4AEC01C994A
:1013D000A5C0ABC08091000186FDADC0B3C08091B7
:1013E0008F0290E09C01225331091216130624F457
:1013F0002630310544F032C042E350E0FA01E81BE8
:10140000F90B36975CF580918E0290E0AC01425367
:1014100051091416150624F4463051054CF01EC02F
:1014200042E350E0BA01681B790B66307105B4F4F1
:101430008091900290E0AC014253510914161506B8
:101440002CF4463051050CF463C008C042E350E070
:10145000FA01E81BF90B36970CF45AC081E080932F
:101460007E0240917F02C3E8D2E04203B001439F75
:10147000700D1124072E000C880B990BBDD220E0B3
:1014800030E040E752E41DD220E030E048E452E48E
:10149000B0D184D2688340917F020AE812E0F8015B
:1014A000248130E0225331094203B001439F700D83
:1014B0001124072E000C880B990B9ED220E030E0FF
:1014C00040E752E4FED120E030E048E452E491D11C
:1014D00065D2698340917F02F801268130E0225372
:1014E00031094203B001439F700D1124072E000CF7
:1014F000880B990B81D220E030E040E752E4E1D143
:1015000020E030E048E452E474D148D26A8302C05B
:1015100010927E02A4DA19D894DC19C083E090E01E
:101520009093200280931F025ACF80918D028531C3
:1015300008F050CF07C08DEF9FEF9093200280936B
:101540001F024DCF1092200210921F0248CFDF9150
:10155000CF911F910F9108951F920F920FB60F9286
:1015600011248F9380917E02882331F080917F0235
:101570008F5F80937F0202C010927F0280917F0272
:101580008D331CF08CE380937F028F910F900FBE00
:101590000F901F9018951F920F920FB60F92112463
:1015A0000BB60F928F939F93EF93FF93EBE0F1E0D5
:1015B000908184E089278083FF91EF919F918F91A3
:1015C0000F900BBE0F900FBE0F901F9018951F929B
:1015D0000F920FB60F9211240BB60F922F933F93D9
:1015E0004F935F936F937F938F939F93AF93BF932B
:1015F000EF93FF9381E080937D02EBE0F1E0908137
:1016000084E0892780830E94E101FF91EF91BF91DF
:10161000AF919F918F917F916F915F914F913F918A
:101620002F910F900BBE0F900FBE0F901F9018952B
:101630001F920F920FB60F9211240BB60F922F9399
:101640003F934F935F936F937F938F939F93AF934A
:10165000BF93EF93FF93EBE0F1E0908184E0892763
:101660008083A298A0DBFF91EF91BF91AF919F91F2
:101670008F917F916F915F914F913F912F910F903B
:101680000BBE0F900FBE0F901F9018951092C500C3
:1016900087E68093C40088E98093C10086E0809348
:1016A000C200089510928802EAE8F2E010821182E6
:1016B0001282138282E384838583868387831092D8
:1016C000D50089E18093D40088E98093D10086E039
:1016D0008093D2000895109289021092350189E119
:1016E0008093340188E98093310186E08093320150
:1016F0000895E0E3F1E0908195FFFDCF80933601FE
:1017000008951F920F920FB60F9211248F9380911C
:10171000C600809395028F910F900FBE0F901F907F
:1017200018951F920F920FB60F9211248F938091EC
:10173000CE00809394028F910F900FBE0F901F9058
:1017400018951F920F920FB60F9211240BB60F929D
:101750008F939F93EF93FF939091D6009093920273
:1017600080918702882389F080918802E82FF0E039
:10177000E657FD4F90838F5F883018F4809388027E
:1017800004C01092880210928702809192028F37D3
:1017900019F481E080938702FF91EF919F918F91DF
:1017A0000F900BBE0F900FBE0F901F9018951F92B9
:1017B0000F920FB60F9211248F939F938091360151
:1017C0008093930290918602992321F0809389025D
:1017D00010928602809193028C3F19F481E08093ED
:1017E00086029F918F910F900FBE0F901F901895BA
:1017F0005058BB27AA270ED075C166D130F06BD1E7
:1018000020F031F49F3F11F41EF45BC10EF4E0951B
:10181000E7FB51C1E92F77D180F3BA17620773074D
:101820008407950718F071F49EF58FC10EF4E095CA
:101830000B2EBA2FA02D0B01B90190010C01CA018A
:10184000A0011124FF27591B99F0593F50F4503E35
:1018500068F11A16F040A22F232F342F4427585F27
:10186000F3CF469537952795A795F0405395C9F73F
:101870007EF41F16BA0B620B730B840BBAF09150F7
:10188000A1F0FF0FBB1F661F771F881FC2F70EC096
:10189000BA0F621F731F841F48F487957795679569
:1018A000B795F7959E3F08F0B3CF9395880F08F052
:1018B0009927EE0F979587950895D9D008F481E080
:1018C00008950CD00FC107D140F0FED030F021F4C4
:1018D0005F3F19F0F0C0511139C1F3C014D198F332
:1018E0009923C9F35523B1F3951B550BBB27AA27A1
:1018F00062177307840738F09F5F5F4F220F331F13
:10190000441FAA1FA9F333D00E2E3AF0E0E830D0DE
:1019100091505040E695001CCAF729D0FE2F27D0E1
:10192000660F771F881FBB1F261737074807AB07AF
:10193000B0E809F0BB0B802DBF01FF2793585F4F24
:101940002AF09E3F510568F0B6C000C15F3FECF33E
:10195000983EDCF3869577956795B795F7959F5FE9
:10196000C9F7880F911D9695879597F90895E1E03D
:10197000660F771F881FBB1F621773078407BA079C
:1019800020F0621B730B840BBA0BEE1F88F7E095F7
:10199000089504D06894B111D9C00895BCD088F0DE
:1019A0009F5790F0B92F9927B751A0F0D1F0660F4B
:1019B000771F881F991F1AF0BA95C9F712C0B13066
:1019C00081F0C3D0B1E00895C0C0672F782F882779
:1019D000B85F39F0B93FCCF3869577956795B395A5
:1019E000D9F73EF490958095709561957F4F8F4F14
:1019F0009F4F0895E89409C097FB3EF49095809519
:101A0000709561957F4F8F4F9F4F9923A9F0F92FC4
:101A100096E9BB279395F695879577956795B79542
:101A2000F111F8CFFAF4BB0F11F460FF1BC06F5F28
:101A30007F4F8F4F9F4F16C0882311F096E911C03A
:101A4000772321F09EE8872F762F05C0662371F05B
:101A500096E8862F70E060E02AF09A95660F771F6F
:101A6000881FDAF7880F9695879597F90895990F4B
:101A70000008550FAA0BE0E8FEEF16161706E80758
:101A8000F907C0F012161306E407F50798F0621B79
:101A9000730B840B950B39F40A2661F0232B242B4E
:101AA000252B21F408950A2609F4A140A6958FEF6D
:101AB000811D811D089597F99F6780E870E060E0BF
:101AC00008959FEF80EC089500240A9416161706D7
:101AD00018060906089500240A941216130614061F
:101AE00005060895092E0394000C11F4882352F082
:101AF000BB0F40F4BF2B11F460FF04C06F5F7F4F3A
:101B00008F4F9F4F089557FD9058440F551F59F020
:101B10005F3F71F04795880F97FB991F61F09F3FDA
:101B200079F087950895121613061406551FF2CF03
:101B30004695F1DF08C0161617061806991FF1CF53
:101B400086957105610508940895E894BB2766277A
:101B50007727CB0197F908950BD0C4CFB5DF28F0D4
:101B6000BADF18F0952309F0A6CFABCF1124EECF42
:101B7000CADFA0F3959FD1F3950F50E0551F629FE8
:101B8000F001729FBB27F00DB11D639FAA27F00DD6
:101B9000B11DAA1F649F6627B00DA11D661F829FFD
:101BA0002227B00DA11D621F739FB00DA11D621FE2
:101BB000839FA00D611D221F749F3327A00D611DFF
:101BC000231F849F600D211D822F762F6A2F1124E1
:101BD0009F5750408AF0E1F088234AF0EE0FFF1F34
:101BE000BB1F661F771F881F91505040A9F79E3F6B
:101BF000510570F060CFAACF5F3FECF3983EDCF365
:101C0000869577956795B795F795E7959F5FC1F7A7
:101C1000FE2B880F911D9695879597F90895EE0FE5
:101C2000FF1F881F8BBF0790F691E02D1994F89441
:021C3000FFCFE4
:00000001FF
